{
    "data": {
        "bytecode": {
            "linkReferences": {},
            "object": "6000600755600880546001600160a01b0319169055606460095560c0604052600a608081905269135a5c9858db1953919560b21b60a09081526200004791600b9190620002e2565b5060408051808201909152600a80825269135a5c9858db1953919560b21b60209092019182526200007b91600c91620002e2565b506040805160a081018252600181526002602082015260039181019190915260046060820152600560808201819052620000b891600d9162000371565b506005600e556005600f55603260105566038d7ea4c6800060115566038d7ea4c68000601255600a60155560056016556003601755348015620000fa57600080fd5b50604051620073b7380380620073b78339810160408190526200011d91620003d9565b6040518060600160405280602181526020016200739660219139620001428162000246565b50600a80546001600160a01b03199081166001600160a01b03851617909155600880543392168217905562000177906200025f565b60408051600180825281830190925260009160208083019080368337505060085482519293506001600160a01b031691839150600090620001bc57620001bc620004c7565b6001600160a01b0392831660209182029290920101526008546040518492309287929116908590620001ee90620003b4565b620001fe95949392919062000415565b604051809103906000f0801580156200021b573d6000803e3d6000fd5b50601380546001600160a01b0319166001600160a01b039290921691909117905550620004dd915050565b80516200025b906006906020840190620002e2565b5050565b6008546001600160a01b03163314620002be5760405162461bcd60e51b815260206004820181905260248201527f54686973206d6574686f64206d7573742063616c6c6564206279206f776e6572604482015260640160405180910390fd5b6001600160a01b03166000908152600560205260409020805460ff19166001179055565b828054620002f0906200048a565b90600052602060002090601f0160209004810192826200031457600085556200035f565b82601f106200032f57805160ff19168380011785556200035f565b828001600101855582156200035f579182015b828111156200035f57825182559160200191906001019062000342565b506200036d929150620003c2565b5090565b8280548282559060005260206000209081019282156200035f579160200282015b828111156200035f578251829060ff1690559160200191906001019062000392565b6129488062004a4e83390190565b5b808211156200036d5760008155600101620003c3565b60008060408385031215620003ed57600080fd5b82516001600160a01b03811681146200040557600080fd5b6020939093015192949293505050565b600060a08201878352602060018060a01b03808916828601528088166040860152808716606086015260a0608086015282865180855260c087019150838801945060005b818110156200047957855184168352948401949184019160010162000459565b50909b9a5050505050505050505050565b600181811c908216806200049f57607f821691505b60208210811415620004c157634e487b7160e01b600052602260045260246000fd5b50919050565b634e487b7160e01b600052603260045260246000fd5b61456180620004ed6000396000f3fe6080604052600436106103275760003560e01c806376263c8c116101a5578063aa7ac1a3116100ec578063e7619fad11610095578063f220e4ff1161006f578063f220e4ff14610944578063f242432a14610964578063f9893b8e14610984578063f9f494ed146109a457600080fd5b8063e7619fad146108c6578063e985e9c5146108db578063ed2ee69d1461092457600080fd5b8063c365e336116100c6578063c365e33614610853578063ca11e7f014610873578063e4b50cb81461089357600080fd5b8063aa7ac1a314610807578063afa1638514610827578063beba64321461083d57600080fd5b806395d89b411161014e578063a1813fac11610128578063a1813fac1461079a578063a22cb465146107c7578063a5ea0fec146107e757600080fd5b806395d89b4114610745578063973881261461075a578063986192cf1461077a57600080fd5b80638aebc9161161017f5780638aebc916146106ef5780638cbfc3051461070f578063925057fa1461072f57600080fd5b806376263c8c146106b3578063770bdff8146106d157806379ef1b38146106e757600080fd5b80632eb2c2d61161027457806338cb8d201161021d5780636352211e116101f75780636352211e1461061b5780636f03894f1461065357806370a08231146106735780637408a2221461069357600080fd5b806338cb8d20146105b85780634e1273f4146105d85780636121b0b31461060557600080fd5b80633130eb5e1161024e5780633130eb5e1461053f578063313ce5671461058957806336eb146c146105a557600080fd5b80632eb2c2d6146104e95780632fa5fe3814610509578063303b11951461052957600080fd5b80630e53310a116102d657806323b872dd116102b057806323b872dd1461048957806329adb287146104a95780632b1618e0146104c957600080fd5b80630e53310a146104335780630e89341c146104535780631597a43d1461047357600080fd5b806302fe53051161030757806302fe5305146103b657806306fdde03146103d85780630848a136146103fa57600080fd5b806236f0ad1461032c578062fdd58e1461035557806301ffc9a714610375575b600080fd5b34801561033857600080fd5b5061034260175481565b6040519081526020015b60405180910390f35b34801561036157600080fd5b50610342610370366004613b8b565b6109c4565b34801561038157600080fd5b506103a6610390366004613ea0565b6001600160e01b0319166301ffc9a760e01b1490565b604051901515815260200161034c565b3480156103c257600080fd5b506103d66103d1366004613eda565b610a60565b005b3480156103e457600080fd5b506103ed610ab4565b60405161034c91906141fd565b34801561040657600080fd5b506103a66104153660046139b6565b6001600160a01b031660009081526005602052604090205460ff1690565b34801561043f57600080fd5b5061034261044e366004613f0f565b610b42565b34801561045f57600080fd5b506103ed61046e366004613f0f565b610b63565b34801561047f57600080fd5b50610342600e5481565b34801561049557600080fd5b506103d66104a4366004613aae565b610bf7565b3480156104b557600080fd5b506103d66104c4366004613f95565b610c61565b3480156104d557600080fd5b506103d66104e4366004613c86565b610dc6565b3480156104f557600080fd5b506103d6610504366004613a04565b610e47565b34801561051557600080fd5b506103d6610524366004613f0f565b61116c565b34801561053557600080fd5b5061034260115481565b34801561054b57600080fd5b506103d661055a3660046139b6565b6013805473ffffffffffffffffffffffffffffffffffffffff19166001600160a01b0392909216919091179055565b34801561059557600080fd5b506040516000815260200161034c565b6103d66105b3366004613f28565b6111db565b3480156105c457600080fd5b506103d66105d3366004613d28565b611368565b3480156105e457600080fd5b506105f86105f3366004613bb5565b61158f565b60405161034c91906141bc565b34801561061157600080fd5b5061034260105481565b34801561062757600080fd5b5061063b610636366004613f0f565b611788565b6040516001600160a01b03909116815260200161034c565b34801561065f57600080fd5b506103d661066e366004613d28565b611793565b34801561067f57600080fd5b5061034261068e3660046139b6565b6117ee565b34801561069f57600080fd5b506103426106ae366004613f0f565b6117f9565b3480156106bf57600080fd5b506013546001600160a01b031661063b565b3480156106dd57600080fd5b5061034260155481565b6103d6611809565b3480156106fb57600080fd5b506103d661070a366004613daa565b611886565b34801561071b57600080fd5b506103d661072a3660046139b6565b611ba7565b34801561073b57600080fd5b50610342600f5481565b34801561075157600080fd5b506103ed611c13565b34801561076657600080fd5b506103d6610775366004613f0f565b611c20565b34801561078657600080fd5b506103d6610795366004613f0f565b611c6d565b3480156107a657600080fd5b506107ba6107b53660046139b6565b611cba565b60405161034c9190614178565b3480156107d357600080fd5b506103d66107e2366004613b4f565b611d47565b3480156107f357600080fd5b506103d6610802366004613f0f565b611e1e565b34801561081357600080fd5b506103d6610822366004613f0f565b611e8d565b34801561083357600080fd5b5061034260125481565b34801561084957600080fd5b5061034260165481565b34801561085f57600080fd5b506103d661086e366004613e1e565b611ef1565b34801561087f57600080fd5b506103d661088e366004613f0f565b611f4d565b34801561089f57600080fd5b506108b36108ae366004613f0f565b611f9a565b60405161034c9796959493929190614210565b3480156108d257600080fd5b506105f8612019565b3480156108e757600080fd5b506103a66108f63660046139d1565b6001600160a01b03918216600090815260046020908152604080832093909416825291909152205460ff1690565b34801561093057600080fd5b506103d661093f366004613f0f565b61202a565b34801561095057600080fd5b506103d661095f366004613fb7565b612099565b34801561097057600080fd5b506103d661097f366004613aea565b6120b3565b34801561099057600080fd5b506103d661099f366004613d5d565b612303565b3480156109b057600080fd5b506103d66109bf3660046139b6565b612544565b60006001600160a01b038316610a355760405162461bcd60e51b815260206004820152602b60248201527f455243313135353a2062616c616e636520717565727920666f7220746865207a60448201526a65726f206164647265737360a81b60648201526084015b60405180910390fd5b5060008181526003602090815260408083206001600160a01b03861684529091529020545b92915050565b6008546001600160a01b03163314610aa85760405162461bcd60e51b815260206004820181905260248201526000805160206144c18339815191526044820152606401610a2c565b610ab1816125ad565b50565b600b8054610ac1906142ff565b80601f0160208091040260200160405190810160405280929190818152602001828054610aed906142ff565b8015610b3a5780601f10610b0f57610100808354040283529160200191610b3a565b820191906000526020600020905b815481529060010190602001808311610b1d57829003601f168201915b505050505081565b60148181548110610b5257600080fd5b600091825260209091200154905081565b606060068054610b72906142ff565b80601f0160208091040260200160405190810160405280929190818152602001828054610b9e906142ff565b8015610beb5780601f10610bc057610100808354040283529160200191610beb565b820191906000526020600020905b815481529060010190602001808311610bce57829003601f168201915b50505050509050919050565b6008546001600160a01b03163314610c3f5760405162461bcd60e51b815260206004820181905260248201526000805160206144c18339815191526044820152606401610a2c565b610c5c8383836001604051806020016040528060008152506120b3565b505050565b6013546001600160a01b0316610cb95760405162461bcd60e51b815260206004820152601a60248201527f6d697261636c65206475737420746f6b656e206e6f74207365740000000000006044820152606401610a2c565b60008111610d185760405162461bcd60e51b815260206004820152602660248201527f526563686172676520616d6f756e74206d75737420626520677265617465722060448201526507468616e20360d41b6064820152608401610a2c565b600080600080600080610d2a88611f9a565b506013546040516336409cb760e11b8152336004820152602481018f9052969c50949a50929850909650945092506001600160a01b031690636c81396e90604401600060405180830381600087803b158015610d8557600080fd5b505af1158015610d99573d6000803e3d6000fd5b5050505060008785610dab919061429d565b9050610dbb878783878787612099565b505050505050505050565b3360009081526005602052604090205460ff16610e305760405162461bcd60e51b815260206004820152602260248201527f54686973206d6574686f64206d7573742063616c6c6564206279207472757374604482015261195960f21b6064820152608401610a2c565b8051610e439060149060208401906137dc565b5050565b8151835114610ea95760405162461bcd60e51b815260206004820152602860248201527f455243313135353a2069647320616e6420616d6f756e7473206c656e677468206044820152670dad2e6dac2e8c6d60c31b6064820152608401610a2c565b6001600160a01b038416610f0d5760405162461bcd60e51b815260206004820152602560248201527f455243313135353a207472616e7366657220746f20746865207a65726f206164604482015264647265737360d81b6064820152608401610a2c565b6001600160a01b038516331480610f295750610f2985336108f6565b610f9b5760405162461bcd60e51b815260206004820152603260248201527f455243313135353a207472616e736665722063616c6c6572206973206e6f742060448201527f6f776e6572206e6f7220617070726f76656400000000000000000000000000006064820152608401610a2c565b3360005b84518110156110fe576000858281518110610fbc57610fbc6143d8565b602002602001015190506000858381518110610fda57610fda6143d8565b60200260200101519050611047816040518060600160405280602a81526020016144e1602a91396003600086815260200190815260200160002060008d6001600160a01b03166001600160a01b03168152602001908152602001600020546125c09092919063ffffffff16565b60008381526003602090815260408083206001600160a01b038e811685529252808320939093558a168152205461107e90826125f1565b60008381526003602090815260408083206001600160a01b03808e16855290835281842094909455928c16825260029052206110ba90836125fd565b506001600160a01b03881660009081526002602052604090206110dd9083612609565b506110ea6000838a612615565b505050806110f790614367565b9050610f9f565b50846001600160a01b0316866001600160a01b0316826001600160a01b03167f4a39dc06d4c0dbc64b70af90fd698a233a518aa5d07e595d983b8c0526c8f7fb878760405161114e9291906141cf565b60405180910390a461116481878787878761262a565b505050505050565b3360009081526005602052604090205460ff166111d65760405162461bcd60e51b815260206004820152602260248201527f54686973206d6574686f64206d7573742063616c6c6564206279207472757374604482015261195960f21b6064820152608401610a2c565b601755565b60115434101561121f5760405162461bcd60e51b815260206004820152600f60248201526e6e6f20656e6f756768206d6f6e657960881b6044820152606401610a2c565b600a546040516001600160a01b03909116903480156108fc02916000818181858888f19350505050158015611258573d6000803e3d6000fd5b5060006112636127df565b604080516003808252608082019092529192506000919060208201606080368337019050509050848160008151811061129e5761129e6143d8565b60209081029190910101528351156112cd576112c83383836112bf886127f6565b87601554612951565b61132c565b61132c3383836112bf600d80548060200260200160405190810160405280929190818152602001828054801561132257602002820191906000526020600020905b81548152602001906001019080831161130e575b50505050506127f6565b60405182815233907ff9c4ddffd4aef856c95622e875f2337d049085a3d12c8095c51eca343a9a1fe39060200160405180910390a25050505050565b6013546001600160a01b03166113c05760405162461bcd60e51b815260206004820152601a60248201527f6d697261636c65206475737420746f6b656e206e6f74207365740000000000006044820152606401610a2c565b6000805b82518110156115285760008060008060008060006113fa8a89815181106113ed576113ed6143d8565b6020026020010151611f9a565b9650965096509650965096509650336001600160a01b0316816001600160a01b0316146114695760405162461bcd60e51b815260206004820152601860248201527f496e73756666696369656e74207065726d697373696f6e7300000000000000006044820152606401610a2c565b600f5461147690876142c9565b8510156114ba5760405162461bcd60e51b81526020600482015260126024820152714e6f7420656e6f756768206e756d6265727360701b6044820152606401610a2c565b6000600f54876114ca91906142c9565b6114d490876142e8565b90506064601054600f54896114e991906142c9565b6114f391906142c9565b6114fd91906142b5565b995061150d888883888888612099565b5050505050505050808061152090614367565b9150506113c4565b508015610e4357601354604051636c22e3f960e01b8152336004820152602481018390526001600160a01b0390911690636c22e3f990604401600060405180830381600087803b15801561157b57600080fd5b505af1158015611164573d6000803e3d6000fd5b606081518351146115f45760405162461bcd60e51b815260206004820152602960248201527f455243313135353a206163636f756e747320616e6420696473206c656e677468604482015268040dad2e6dac2e8c6d60bb1b6064820152608401610a2c565b6000835167ffffffffffffffff811115611610576116106143ee565b604051908082528060200260200182016040528015611639578160200160208202803683370190505b50905060005b84518110156117805760006001600160a01b0316858281518110611665576116656143d8565b60200260200101516001600160a01b031614156116ea5760405162461bcd60e51b815260206004820152603160248201527f455243313135353a2062617463682062616c616e636520717565727920666f7260448201527f20746865207a65726f20616464726573730000000000000000000000000000006064820152608401610a2c565b60036000858381518110611700576117006143d8565b60200260200101518152602001908152602001600020600086838151811061172a5761172a6143d8565b60200260200101516001600160a01b03166001600160a01b0316815260200190815260200160002054828281518110611765576117656143d8565b602090810291909101015261177981614367565b905061163f565b509392505050565b6000610a5a82612ad7565b6008546001600160a01b031633146117db5760405162461bcd60e51b815260206004820181905260248201526000805160206144c18339815191526044820152606401610a2c565b8051610e4390600d9060208401906137dc565b6000610a5a82612aff565b600d8181548110610b5257600080fd5b60125434101561184d5760405162461bcd60e51b815260206004820152600f60248201526e6e6f20656e6f756768206d6f6e657960881b6044820152606401610a2c565b600a546040516001600160a01b03909116903480156108fc02916000818181858888f19350505050158015610ab1573d6000803e3d6000fd5b6001600160a01b03811660009081526005602052604090205460ff166119145760405162461bcd60e51b815260206004820152603160248201527f5468652064657374696e6174696f6e2061646472657373206d7573742062652060448201527f61207472757374656420616464726573730000000000000000000000000000006064820152608401610a2c565b81518351146119655760405162461bcd60e51b815260206004820152601460248201527f6c656e677468206d75737420626520657175616c0000000000000000000000006044820152606401610a2c565b6000805b8451811015611ad75760008060008060008060006119928c89815181106113ed576113ed6143d8565b9650965096509650965096509650336001600160a01b0316816001600160a01b031614611a015760405162461bcd60e51b815260206004820152601860248201527f496e73756666696369656e74207065726d697373696f6e7300000000000000006044820152606401610a2c565b8a8881518110611a1357611a136143d8565b60200260200101518511611a5e5760405162461bcd60e51b81526020600482015260126024820152714e6f7420656e6f756768206e756d6265727360701b6044820152606401610a2c565b8a8881518110611a7057611a706143d8565b602002602001015189611a83919061429d565b985060008b8981518110611a9957611a996143d8565b602002602001015186611aac91906142e8565b9050611abc888883888888612099565b50505050505050508080611acf90614367565b915050611969565b5060008111611b3b5760405162461bcd60e51b815260206004820152602a60248201527f6c6f636b2076616c7565205175616e74697479206d75737420626520677265616044820152690746572207468616e20360b41b6064820152608401610a2c565b601354604051636c22e3f960e01b81526001600160a01b0384811660048301526024820184905290911690636c22e3f990604401600060405180830381600087803b158015611b8957600080fd5b505af1158015611b9d573d6000803e3d6000fd5b5050505050505050565b6008546001600160a01b03163314611bef5760405162461bcd60e51b815260206004820181905260248201526000805160206144c18339815191526044820152606401610a2c565b6001600160a01b03166000908152600560205260409020805460ff19166001179055565b600c8054610ac1906142ff565b6008546001600160a01b03163314611c685760405162461bcd60e51b815260206004820181905260248201526000805160206144c18339815191526044820152606401610a2c565b600e55565b6008546001600160a01b03163314611cb55760405162461bcd60e51b815260206004820181905260248201526000805160206144c18339815191526044820152606401610a2c565b601255565b60606001600160a01b038216611d265760405162461bcd60e51b815260206004820152602b60248201527f455243313135353a2062616c616e636520717565727920666f7220746865207a60448201526a65726f206164647265737360a81b6064820152608401610a2c565b6001600160a01b0382166000908152600260205260409020610a5a90612b84565b336001600160a01b0383161415611db25760405162461bcd60e51b815260206004820152602960248201527f455243313135353a2073657474696e6720617070726f76616c20737461747573604482015268103337b91039b2b63360b91b6064820152608401610a2c565b3360008181526004602090815260408083206001600160a01b03871680855290835292819020805460ff191686151590811790915590519081529192917f17307eab39ab6107e8899845ad3d59bd9653f200f220920489ca2b5937696c31910160405180910390a35050565b3360009081526005602052604090205460ff16611e885760405162461bcd60e51b815260206004820152602260248201527f54686973206d6574686f64206d7573742063616c6c6564206279207472757374604482015261195960f21b6064820152608401610a2c565b601555565b3360009081526005602052604090205460ff16611eec5760405162461bcd60e51b815260206004820152601460248201527f6e6f7420697354727573746564416464726573730000000000000000000000006044820152606401610a2c565b600955565b6008546001600160a01b03163314611f395760405162461bcd60e51b815260206004820181905260248201526000805160206144c18339815191526044820152606401610a2c565b611f468585858585612bdb565b5050505050565b6008546001600160a01b03163314611f955760405162461bcd60e51b815260206004820181905260248201526000805160206144c18339815191526044820152606401610a2c565b601155565b60008060006060806060600080611fe1896040518060400160405280600c81526020016b18d85c99081b9bc8199a5b9960a21b8152506000612d1b9092919063ffffffff16565b8051602082015160408301516060840151608085015160a086015160c090960151949f939e50919c509a509850919650945092505050565b60606120256000612d72565b905090565b3360009081526005602052604090205460ff166120945760405162461bcd60e51b815260206004820152602260248201527f54686973206d6574686f64206d7573742063616c6c6564206279207472757374604482015261195960f21b6064820152608401610a2c565b601655565b6120aa600087878787878733612d7d565b50505050505050565b6001600160a01b0384166121175760405162461bcd60e51b815260206004820152602560248201527f455243313135353a207472616e7366657220746f20746865207a65726f206164604482015264647265737360d81b6064820152608401610a2c565b6001600160a01b038516331480612133575061213385336108f6565b6121915760405162461bcd60e51b815260206004820152602960248201527f455243313135353a2063616c6c6572206973206e6f74206f776e6572206e6f7260448201526808185c1c1c9bdd995960ba1b6064820152608401610a2c565b336121aa8187876121a188612d9e565b611f4688612d9e565b6121f1836040518060600160405280602a81526020016144e1602a913960008781526003602090815260408083206001600160a01b038d16845290915290205491906125c0565b60008581526003602090815260408083206001600160a01b038b8116855292528083209390935587168152205461222890846125f1565b60008581526003602090815260408083206001600160a01b03808b168552908352818420949094559289168252600290522061226490856125fd565b506001600160a01b03851660009081526002602052604090206122879085612609565b5061229460008587612615565b50846001600160a01b0316866001600160a01b0316826001600160a01b03167fc3d58168c5ae7397731d063d5bbf3d657854427343f4c083240f7aacaa2d0f6287876040516122ed929190918252602082015260400190565b60405180910390a4611164818787878787612de9565b6013546001600160a01b031661235b5760405162461bcd60e51b815260206004820152601a60248201527f6d697261636c65206475737420746f6b656e206e6f74207365740000000000006044820152606401610a2c565b80518251146123ac5760405162461bcd60e51b815260206004820152601b60248201527f4172726179206c656e6774687320617265206e6f7420657175616c00000000006044820152606401610a2c565b6000805b82518110156123f2578281815181106123cb576123cb6143d8565b6020026020010151826123de919061429d565b9150806123ea81614367565b9150506123b0565b50600081116124525760405162461bcd60e51b815260206004820152602660248201527f526563686172676520616d6f756e74206d75737420626520677265617465722060448201526507468616e20360d41b6064820152608401610a2c565b6013546040516336409cb760e11b8152336004820152602481018390526001600160a01b0390911690636c81396e90604401600060405180830381600087803b15801561249e57600080fd5b505af11580156124b2573d6000803e3d6000fd5b5050505060005b835181101561253e576000806000806000806124e08a88815181106113ed576113ed6143d8565b509550955095509550955095506000898881518110612501576125016143d8565b602002602001015185612514919061429d565b9050612524878783878787612099565b50505050505050808061253690614367565b9150506124b9565b50505050565b6008546001600160a01b0316331461258c5760405162461bcd60e51b815260206004820181905260248201526000805160206144c18339815191526044820152606401610a2c565b6001600160a01b03166000908152600560205260409020805460ff19169055565b8051610e43906006906020840190613827565b600081848411156125e45760405162461bcd60e51b8152600401610a2c91906141fd565b50508183035b9392505050565b60006125ea828461429d565b60006125ea8383612ef4565b60006125ea8383612fe7565b6000612622848484613036565b949350505050565b6001600160a01b0384163b156111645760405163bc197c8160e01b81526001600160a01b0385169063bc197c819061266e90899089908890889088906004016140e3565b602060405180830381600087803b15801561268857600080fd5b505af19250505080156126b8575060408051601f3d908101601f191682019092526126b591810190613ebd565b60015b61276e576126c4614404565b806308c379a014156126fe57506126d9614420565b806126e45750612700565b8060405162461bcd60e51b8152600401610a2c91906141fd565b505b60405162461bcd60e51b815260206004820152603460248201527f455243313135353a207472616e7366657220746f206e6f6e204552433131353560448201527f526563656976657220696d706c656d656e7465720000000000000000000000006064820152608401610a2c565b6001600160e01b0319811663bc197c8160e01b146120aa5760405162461bcd60e51b815260206004820152602860248201527f455243313135353a204552433131353552656365697665722072656a656374656044820152676420746f6b656e7360c01b6064820152608401610a2c565b60006127eb60006130b4565b61202590600161429d565b60606000600e5467ffffffffffffffff811115612815576128156143ee565b60405190808252806020026020018201604052801561283e578160200160208202803683370190505b5090506000804442604051602001612860929190918252602082015260400190565b6040516020818303038152906040528051906020012060001c905060005b8551811015612947576001600e5461289691906142e8565b83106128a157612947565b60028682815181106128b5576128b56143d8565b60200260200101516128c791906142b5565b8682815181106128d9576128d96143d8565b6020026020010151836128ec9190614382565b111561293757858181518110612904576129046143d8565b602002602001015184848151811061291e5761291e6143d8565b60209081029190910101528261293381614367565b9350505b61294081614367565b905061287e565b5091949350505050565b6001600160a01b0386166129b15760405162461bcd60e51b815260206004820152602160248201527f455243313135353a206d696e7420746f20746865207a65726f206164647265736044820152607360f81b6064820152608401610a2c565b336129e2816000896129c28a612d9e565b6129cc6001612d9e565b5050604080516020810190915260009052505050565b60008681526003602090815260408083206001600160a01b038b168452909152902054612a109060016125f1565b60008781526003602090815260408083206001600160a01b038c1684528252808320939093556002905220612a459087612609565b506000612a51836130be565b600954909150612a6b90600090899084908a8a8a8f612d7d565b5060408051888152600160208201526001600160a01b03808b1692600092918616917fc3d58168c5ae7397731d063d5bbf3d657854427343f4c083240f7aacaa2d0f62910160405180910390a4611b9d8260008a8a600160405180602001604052806000815250612de9565b6000610a5a8260405180606001604052806021815260200161450b6021913960009190613177565b60006001600160a01b038216612b635760405162461bcd60e51b815260206004820152602360248201527f2062616c616e636520717565727920666f7220746865207a65726f206164647260448201526265737360e81b6064820152608401610a2c565b6001600160a01b0382166000908152600260205260409020610a5a906130b4565b8054604080516020808402820181019092528281526060929091849190830182828015610beb57602002820191906000526020600020905b815481526020019060010190808311612bbc5750505050509050919050565b33612c325760405162461bcd60e51b815260206004820152602160248201527f455243313135353a206d696e7420746f20746865207a65726f206164647265736044820152607360f81b6064820152608401610a2c565b6000612c3c6127df565b905033612c4f816000816129c286612d9e565b6000828152600360209081526040808320338452909152902054612c749060016125f1565b60008381526003602090815260408083203384528252808320939093556002905220612ca09083612609565b50612cb260008387878b8b8933612d7d565b50604080518381526001602082015233916000916001600160a01b038516917fc3d58168c5ae7397731d063d5bbf3d657854427343f4c083240f7aacaa2d0f62910160405180910390a46120aa8160003385600160405180602001604052806000815250612de9565b612d676040518060e0016040528060008019168152602001600081526020016000815260200160608152602001606081526020016060815260200160006001600160a01b031681525090565b612622848484613184565b6060610a5a826133b4565b6000612d8f898989898989898961346a565b90505b98975050505050505050565b60408051600180825281830190925260609160009190602080830190803683370190505090508281600081518110612dd857612dd86143d8565b602090810291909101015292915050565b6001600160a01b0384163b156111645760405163f23a6e6160e01b81526001600160a01b0385169063f23a6e6190612e2d9089908990889088908890600401614135565b602060405180830381600087803b158015612e4757600080fd5b505af1925050508015612e77575060408051601f3d908101601f19168201909252612e7491810190613ebd565b60015b612e83576126c4614404565b6001600160e01b0319811663f23a6e6160e01b146120aa5760405162461bcd60e51b815260206004820152602860248201527f455243313135353a204552433131353552656365697665722072656a656374656044820152676420746f6b656e7360c01b6064820152608401610a2c565b60008181526001830160205260408120548015612fdd576000612f186001836142e8565b8554909150600090612f2c906001906142e8565b90506000866000018281548110612f4557612f456143d8565b9060005260206000200154905080876000018481548110612f6857612f686143d8565b600091825260209091200155612f7f83600161429d565b60008281526001890160205260409020558654879080612fa157612fa16143c2565b60019003818190600052602060002001600090559055866001016000878152602001908152602001600020600090556001945050505050610a5a565b6000915050610a5a565b600081815260018301602052604081205461302e57508154600181810184556000848152602080822090930184905584548482528286019093526040902091909155610a5a565b506000610a5a565b6000828152600184016020526040812054806130565760009150506125ea565b82856130636001846142e8565b81548110613073576130736143d8565b906000526020600020906007020160060160006101000a8154816001600160a01b0302191690836001600160a01b0316021790555060019150509392505050565b6000610a5a825490565b600754604080513360208083019190915244828401524260608301526080808301949094528251808303909401845260a09091019091528151910120600090816131098460646142c9565b9050600061311d655af3107a4000346142b5565b6131278385614382565b613131919061429d565b90508181111561313e5750805b600061314b86600a6142c9565b60078054919250600061315d83614367565b9091555061316d905081836142b5565b9695505050505050565b6000612622848484613769565b6131d06040518060e0016040528060008019168152602001600081526020016000815260200160608152602001606081526020016060815260200160006001600160a01b031681525090565b600083815260018501602052604090205482816132005760405162461bcd60e51b8152600401610a2c91906141fd565b508461320d6001836142e8565b8154811061321d5761321d6143d8565b90600052602060002090600702016040518060e0016040529081600082015481526020016001820154815260200160028201548152602001600382018054806020026020016040519081016040528092919081815260200182805480156132a357602002820191906000526020600020905b81548152602001906001019080831161328f575b50505050508152602001600482018054806020026020016040519081016040528092919081815260200182805480156132fb57602002820191906000526020600020905b8154815260200190600101908083116132e7575b50505050508152602001600582018054613314906142ff565b80601f0160208091040260200160405190810160405280929190818152602001828054613340906142ff565b801561338d5780601f106133625761010080835404028352916020019161338d565b820191906000526020600020905b81548152906001019060200180831161337057829003601f168201915b5050509183525050600691909101546001600160a01b031660209091015295945050505050565b805460609060009067ffffffffffffffff8111156133d4576133d46143ee565b6040519080825280602002602001820160405280156133fd578160200160208202803683370190505b50905060005b835481101561346357836000018181548110613421576134216143d8565b90600052602060002090600702016000015460001c828281518110613448576134486143d8565b602090810291909101015261345c81614367565b9050613403565b5092915050565b6000878152600189016020526040812054806135b157896000016040518060e001604052808b81526020018a8152602001898152602001888152602001878152602001868152602001856001600160a01b0316815250908060018154018082558091505060019003906000526020600020906007020160009091909190915060008201518160000155602082015181600101556040820151816002015560608201518160030190805190602001906135239291906137dc565b506080820151805161353f9160048401916020909101906137dc565b5060a0820151805161355b916005840191602090910190613827565b5060c091909101516006909101805473ffffffffffffffffffffffffffffffffffffffff19166001600160a01b0390921691909117905550508754600088815260018a8101602052604090912091909155612d92565b888a6135be6001846142e8565b815481106135ce576135ce6143d8565b6000918252602090912060079091020155878a6135ec6001846142e8565b815481106135fc576135fc6143d8565b906000526020600020906007020160010181905550868a60000160018361362391906142e8565b81548110613633576136336143d8565b6000918252602090912060026007909202010155858a6136546001846142e8565b81548110613664576136646143d8565b906000526020600020906007020160030190805190602001906136889291906137dc565b50848a6136966001846142e8565b815481106136a6576136a66143d8565b906000526020600020906007020160040190805190602001906136ca9291906137dc565b50838a6136d86001846142e8565b815481106136e8576136e86143d8565b9060005260206000209060070201600501908051906020019061370c929190613827565b50828a61371a6001846142e8565b8154811061372a5761372a6143d8565b906000526020600020906007020160060160006101000a8154816001600160a01b0302191690836001600160a01b031602179055506000915050612d92565b600082815260018401602052604081205482816137995760405162461bcd60e51b8152600401610a2c91906141fd565b50846137a66001836142e8565b815481106137b6576137b66143d8565b60009182526020909120600790910201600601546001600160a01b031695945050505050565b828054828255906000526020600020908101928215613817579160200282015b828111156138175782518255916020019190600101906137fc565b5061382392915061389a565b5090565b828054613833906142ff565b90600052602060002090601f0160209004810192826138555760008555613817565b82601f1061386e57805160ff1916838001178555613817565b8280016001018555821561381757918201828111156138175782518255916020019190600101906137fc565b5b80821115613823576000815560010161389b565b80356001600160a01b03811681146138c657600080fd5b919050565b600082601f8301126138dc57600080fd5b813560206138e982614279565b6040516138f6828261433a565b8381528281019150858301600585901b8701840188101561391657600080fd5b60005b8581101561393557813584529284019290840190600101613919565b5090979650505050505050565b600082601f83011261395357600080fd5b813567ffffffffffffffff81111561396d5761396d6143ee565b604051613984601f8301601f19166020018261433a565b81815284602083860101111561399957600080fd5b816020850160208301376000918101602001919091529392505050565b6000602082840312156139c857600080fd5b6125ea826138af565b600080604083850312156139e457600080fd5b6139ed836138af565b91506139fb602084016138af565b90509250929050565b600080600080600060a08688031215613a1c57600080fd5b613a25866138af565b9450613a33602087016138af565b9350604086013567ffffffffffffffff80821115613a5057600080fd5b613a5c89838a016138cb565b94506060880135915080821115613a7257600080fd5b613a7e89838a016138cb565b93506080880135915080821115613a9457600080fd5b50613aa188828901613942565b9150509295509295909350565b600080600060608486031215613ac357600080fd5b613acc846138af565b9250613ada602085016138af565b9150604084013590509250925092565b600080600080600060a08688031215613b0257600080fd5b613b0b866138af565b9450613b19602087016138af565b93506040860135925060608601359150608086013567ffffffffffffffff811115613b4357600080fd5b613aa188828901613942565b60008060408385031215613b6257600080fd5b613b6b836138af565b915060208301358015158114613b8057600080fd5b809150509250929050565b60008060408385031215613b9e57600080fd5b613ba7836138af565b946020939093013593505050565b60008060408385031215613bc857600080fd5b823567ffffffffffffffff80821115613be057600080fd5b818501915085601f830112613bf457600080fd5b81356020613c0182614279565b604051613c0e828261433a565b8381528281019150858301600585901b870184018b1015613c2e57600080fd5b600096505b84871015613c5857613c44816138af565b835260019690960195918301918301613c33565b5096505086013592505080821115613c6f57600080fd5b50613c7c858286016138cb565b9150509250929050565b60006020808385031215613c9957600080fd5b823567ffffffffffffffff811115613cb057600080fd5b8301601f81018513613cc157600080fd5b8035613ccc81614279565b604051613cd9828261433a565b8281528481019150838501600584901b85018601891015613cf957600080fd5b600094505b83851015613d1c578035835260019490940193918501918501613cfe565b50979650505050505050565b600060208284031215613d3a57600080fd5b813567ffffffffffffffff811115613d5157600080fd5b612622848285016138cb565b60008060408385031215613d7057600080fd5b823567ffffffffffffffff80821115613d8857600080fd5b613d94868387016138cb565b93506020850135915080821115613c6f57600080fd5b600080600060608486031215613dbf57600080fd5b833567ffffffffffffffff80821115613dd757600080fd5b613de3878388016138cb565b94506020860135915080821115613df957600080fd5b50613e06868287016138cb565b925050613e15604085016138af565b90509250925092565b600080600080600060a08688031215613e3657600080fd5b853567ffffffffffffffff80821115613e4e57600080fd5b613e5a89838a016138cb565b96506020880135915080821115613e7057600080fd5b613e7c89838a016138cb565b955060408801359450606088013593506080880135915080821115613a9457600080fd5b600060208284031215613eb257600080fd5b81356125ea816144aa565b600060208284031215613ecf57600080fd5b81516125ea816144aa565b600060208284031215613eec57600080fd5b813567ffffffffffffffff811115613f0357600080fd5b61262284828501613942565b600060208284031215613f2157600080fd5b5035919050565b600080600060608486031215613f3d57600080fd5b83359250602084013567ffffffffffffffff80821115613f5c57600080fd5b613f68878388016138cb565b93506040860135915080821115613f7e57600080fd5b50613f8b86828701613942565b9150509250925092565b60008060408385031215613fa857600080fd5b50508035926020909101359150565b60008060008060008060c08789031215613fd057600080fd5b863595506020870135945060408701359350606087013567ffffffffffffffff80821115613ffd57600080fd5b6140098a838b016138cb565b9450608089013591508082111561401f57600080fd5b61402b8a838b016138cb565b935060a089013591508082111561404157600080fd5b5061404e89828a01613942565b9150509295509295509295565b600081518084526020808501945080840160005b8381101561408b5781518752958201959082019060010161406f565b509495945050505050565b6000815180845260005b818110156140bc576020818501810151868301820152016140a0565b818111156140ce576000602083870101525b50601f01601f19169290920160200192915050565b60006001600160a01b03808816835280871660208401525060a0604083015261410f60a083018661405b565b8281036060840152614121818661405b565b90508281036080840152612d928185614096565b60006001600160a01b03808816835280871660208401525084604083015283606083015260a0608083015261416d60a0830184614096565b979650505050505050565b6020808252825182820181905260009190848201906040850190845b818110156141b057835183529284019291840191600101614194565b50909695505050505050565b6020815260006125ea602083018461405b565b6040815260006141e2604083018561405b565b82810360208401526141f4818561405b565b95945050505050565b6020815260006125ea6020830184614096565b87815286602082015285604082015260e06060820152600061423560e083018761405b565b8281036080840152614247818761405b565b905082810360a084015261425b8186614096565b9150506001600160a01b03831660c083015298975050505050505050565b600067ffffffffffffffff821115614293576142936143ee565b5060051b60200190565b600082198211156142b0576142b0614396565b500190565b6000826142c4576142c46143ac565b500490565b60008160001904831182151516156142e3576142e3614396565b500290565b6000828210156142fa576142fa614396565b500390565b600181811c9082168061431357607f821691505b6020821081141561433457634e487b7160e01b600052602260045260246000fd5b50919050565b601f8201601f1916810167ffffffffffffffff81118282101715614360576143606143ee565b6040525050565b600060001982141561437b5761437b614396565b5060010190565b600082614391576143916143ac565b500690565b634e487b7160e01b600052601160045260246000fd5b634e487b7160e01b600052601260045260246000fd5b634e487b7160e01b600052603160045260246000fd5b634e487b7160e01b600052603260045260246000fd5b634e487b7160e01b600052604160045260246000fd5b600060033d111561441d5760046000803e5060005160e01c5b90565b600060443d101561442e5790565b6040516003193d81016004833e81513d67ffffffffffffffff816024840111818411171561445e57505050505090565b82850191508151818111156144765750505050505090565b843d87010160208285010111156144905750505050505090565b61449f6020828601018761433a565b509095945050505050565b6001600160e01b031981168114610ab157600080fdfe54686973206d6574686f64206d7573742063616c6c6564206279206f776e6572455243313135353a20696e73756666696369656e742062616c616e636520666f72207472616e736665726f776e657220717565727920666f72206e6f6e6578697374656e7420746f6b656ea26469706673582212207113b20efbf1ba5726724da1146d9bbb7e91b68703b86107d72278608a60a5a064736f6c634300080700336080604052600980546001600160a01b0319908116909155600a805490911690553480156200002d57600080fd5b5060405162002948380380620029488339810160408190526200005091620007ae565b604080518082018252600b81526a135a5c9858db19511d5cdd60aa1b60208083019182528351808501909452600384526213511560ea1b9084015281519192918491620000a191600291906200066e565b508151620000b79060039060208501906200066e565b508051620000cd906004906020840190620006fd565b5060005b81518110156200013d57600160056000848481518110620000f657620000f662000b68565b6020908102919091018101516001600160a01b03168252810191909152604001600020805460ff191691151591909117905580620001348162000b34565b915050620000d1565b506040516329965a1d60e01b815230600482018190527fac7fbab5f54a3ca8194167523c6753bfeb96a445279294b6125b68cce217705460248301526044820152731820a4b7618bde71dce8cdc73aab6c95905fad24906329965a1d90606401600060405180830381600087803b158015620001b857600080fd5b505af1158015620001cd573d6000803e3d6000fd5b50506040516329965a1d60e01b815230600482018190527faea199e31a596269b42cdafd93407f14436db6e4cad65417994c2eb37381e05a60248301526044820152731820a4b7618bde71dce8cdc73aab6c95905fad2492506329965a1d9150606401600060405180830381600087803b1580156200024b57600080fd5b505af115801562000260573d6000803e3d6000fd5b5050600a80546001600160a01b03808a166001600160a01b03199283161790925560098054928c16929091169190911790555060009350620002a6925050620003029050565b620002b69060ff16600a62000a17565b620002c2908762000ad5565b9050620002f6848260405180602001604052806000815250604051806020016040528060008152506200030760201b60201c565b50505050505062000b94565b601290565b620003178484848460016200031d565b50505050565b6001600160a01b038516620003795760405162461bcd60e51b815260206004820181905260248201527f4552433737373a206d696e7420746f20746865207a65726f206164647265737360448201526064015b60405180910390fd5b60003390508460016000828254620003929190620009b3565b90915550506001600160a01b03861660009081526020819052604081208054879290620003c1908490620009b3565b90915550620003d99050816000888888888862000473565b856001600160a01b0316816001600160a01b03167f2fe5be0146f74c5bce36c0b80911af6c7d86ff27e89d5cfa61fc681327954e5d87878760405162000422939291906200097a565b60405180910390a36040518581526001600160a01b038716906000907fddf252ad1be2c89b69c2b068fc378daa952ba7f163c4a11628f55a4df523b3ef9060200160405180910390a3505050505050565b60405163555ddc6560e11b81526001600160a01b03861660048201527fb281fc8c12954d22544db45de3159a39272895b169a852b314f9cc762e44c53b6024820152600090731820a4b7618bde71dce8cdc73aab6c95905fad249063aabbb8ca9060440160206040518083038186803b158015620004f057600080fd5b505afa15801562000505573d6000803e3d6000fd5b505050506040513d601f19601f820116820180604052508101906200052b919062000789565b90506001600160a01b03811615620005ad576040516223de2960e01b81526001600160a01b038216906223de299062000573908b908b908b908b908b908b906004016200091c565b600060405180830381600087803b1580156200058e57600080fd5b505af1158015620005a3573d6000803e3d6000fd5b505050506200065e565b81156200065e57620005d3866001600160a01b03166200066860201b62000dda1760201c565b156200065e5760405162461bcd60e51b815260206004820152604d60248201527f4552433737373a20746f6b656e20726563697069656e7420636f6e747261637460448201527f20686173206e6f20696d706c656d656e74657220666f7220455243373737546f60648201526c1ad95b9cd49958da5c1a595b9d609a1b608482015260a40162000370565b5050505050505050565b3b151590565b8280546200067c9062000af7565b90600052602060002090601f016020900481019282620006a05760008555620006eb565b82601f10620006bb57805160ff1916838001178555620006eb565b82800160010185558215620006eb579182015b82811115620006eb578251825591602001919060010190620006ce565b50620006f992915062000755565b5090565b828054828255906000526020600020908101928215620006eb579160200282015b82811115620006eb57825182546001600160a01b0319166001600160a01b039091161782556020909201916001909101906200071e565b5b80821115620006f9576000815560010162000756565b80516001600160a01b03811681146200078457600080fd5b919050565b6000602082840312156200079c57600080fd5b620007a7826200076c565b9392505050565b600080600080600060a08688031215620007c757600080fd5b855194506020620007da8188016200076c565b9450620007ea604088016200076c565b9350620007fa606088016200076c565b60808801519093506001600160401b03808211156200081857600080fd5b818901915089601f8301126200082d57600080fd5b81518181111562000842576200084262000b7e565b8060051b604051601f19603f830116810181811085821117156200086a576200086a62000b7e565b604052828152858101935084860182860187018e10156200088a57600080fd5b600095505b83861015620008b857620008a3816200076c565b8552600195909501949386019386016200088f565b508096505050505050509295509295909350565b6000815180845260005b81811015620008f457602081850181015186830182015201620008d6565b8181111562000907576000602083870101525b50601f01601f19169290920160200192915050565b6001600160a01b0387811682528681166020830152851660408201526060810184905260c0608082018190526000906200095990830185620008cc565b82810360a08401526200096d8185620008cc565b9998505050505050505050565b838152606060208201526000620009956060830185620008cc565b8281036040840152620009a98185620008cc565b9695505050505050565b60008219821115620009c957620009c962000b52565b500190565b600181815b8085111562000a0f578160001904821115620009f357620009f362000b52565b8085161562000a0157918102915b93841c9390800290620009d3565b509250929050565b6000620007a7838360008262000a305750600162000acf565b8162000a3f5750600062000acf565b816001811462000a58576002811462000a635762000a83565b600191505062000acf565b60ff84111562000a775762000a7762000b52565b50506001821b62000acf565b5060208310610133831016604e8410600b841016171562000aa8575081810a62000acf565b62000ab48383620009ce565b806000190482111562000acb5762000acb62000b52565b0290505b92915050565b600081600019048311821515161562000af25762000af262000b52565b500290565b600181811c9082168062000b0c57607f821691505b6020821081141562000b2e57634e487b7160e01b600052602260045260246000fd5b50919050565b600060001982141562000b4b5762000b4b62000b52565b5060010190565b634e487b7160e01b600052601160045260246000fd5b634e487b7160e01b600052603260045260246000fd5b634e487b7160e01b600052604160045260246000fd5b611da48062000ba46000396000f3fe608060405234801561001057600080fd5b50600436106101475760003560e01c806370a08231116100c8578063a9059cbb1161008c578063fad8b32a11610066578063fad8b32a146102e9578063fc673c4f146102fc578063fe9d93031461030f57600080fd5b8063a9059cbb1461028a578063d95b63711461029d578063dd62ed3e146102b057600080fd5b806370a0823114610218578063959b8c3f1461024157806395d89b41146102545780639bd9bbc61461025c5780639be003631461026f57600080fd5b8063313ce5671161010f578063313ce567146101c7578063556f0dc7146101d657806362ad1b83146101dd5780636c22e3f9146101f25780636c81396e1461020557600080fd5b806306e485381461014c57806306fdde031461016a578063095ea7b31461017f57806318160ddd146101a257806323b872dd146101b4575b600080fd5b610154610322565b6040516101619190611b21565b60405180910390f35b610172610384565b6040516101619190611b6e565b61019261018d36600461192f565b61040d565b6040519015158152602001610161565b6001545b604051908152602001610161565b6101926101c236600461185b565b610427565b60405160128152602001610161565b60016101a6565b6101f06101eb36600461189c565b610628565b005b6101f061020036600461192f565b6106a9565b6101f061021336600461192f565b61082a565b6101a66102263660046117e8565b6001600160a01b031660009081526020819052604090205490565b6101f061024f3660046117e8565b610946565b610172610a64565b6101f061026a36600461195b565b610a73565b6009546040516001600160a01b039091168152602001610161565b61019261029836600461192f565b610a91565b6101926102ab366004611822565b610b80565b6101a66102be366004611822565b6001600160a01b03918216600090815260086020908152604080832093909416825291909152205490565b6101f06102f73660046117e8565b610c22565b6101f061030a3660046119b4565b610d3e565b6101f061031d366004611a34565b610dbb565b6060600480548060200260200160405190810160405280929190818152602001828054801561037a57602002820191906000526020600020905b81546001600160a01b0316815260019091019060200180831161035c575b5050505050905090565b60606002805461039390611cef565b80601f01602080910402602001604051908101604052809291908181526020018280546103bf90611cef565b801561037a5780601f106103e15761010080835404028352916020019161037a565b820191906000526020600020905b8154815290600101906020018083116103ef57509395945050505050565b60003361041b818585610de0565b60019150505b92915050565b60006001600160a01b0383166104905760405162461bcd60e51b8152602060048201526024808201527f4552433737373a207472616e7366657220746f20746865207a65726f206164646044820152637265737360e01b60648201526084015b60405180910390fd5b6001600160a01b0384166104f55760405162461bcd60e51b815260206004820152602660248201527f4552433737373a207472616e736665722066726f6d20746865207a65726f206160448201526564647265737360d01b6064820152608401610487565b6000339050610526818686866040518060200160405280600081525060405180602001604052806000815250610f07565b61055281868686604051806020016040528060008152506040518060200160405280600081525061103e565b6001600160a01b03808616600090815260086020908152604080832093851683529290522054838110156105da5760405162461bcd60e51b815260206004820152602960248201527f4552433737373a207472616e7366657220616d6f756e74206578636565647320604482015268616c6c6f77616e636560b81b6064820152608401610487565b6105ee86836105e98785611cd8565b610de0565b61061c82878787604051806020016040528060008152506040518060200160405280600081525060006111a4565b50600195945050505050565b6106323386610b80565b6106935760405162461bcd60e51b815260206004820152602c60248201527f4552433737373a2063616c6c6572206973206e6f7420616e206f70657261746f60448201526b39103337b9103437b63232b960a11b6064820152608401610487565b6106a285858585856001611378565b5050505050565b6009546001600160a01b03166107015760405162461bcd60e51b815260206004820152601e60248201527f6d697261636c65436172642061646472657373206973206e6f742073657400006044820152606401610487565b6009546001600160a01b031633146107815760405162461bcd60e51b815260206004820152603860248201527f54686973206d6574686f642063616e206f6e6c792062652063616c6c6564206260448201527f79207468652073706563696669656420636f6e747261637400000000000000006064820152608401610487565b6001600160a01b0382166107e15760405162461bcd60e51b815260206004820152602160248201527f455243313135353a206d696e7420746f20746865207a65726f206164647265736044820152607360f81b6064820152608401610487565b60006107ef6012600a611c11565b6107f99083611cb9565b90506108258382604051806020016040528060008152506040518060200160405280600081525061145b565b505050565b6009546001600160a01b03166108825760405162461bcd60e51b815260206004820152601e60248201527f6d697261636c65436172642061646472657373206973206e6f742073657400006044820152606401610487565b6009546001600160a01b031633146109025760405162461bcd60e51b815260206004820152603860248201527f54686973206d6574686f642063616e206f6e6c792062652063616c6c6564206260448201527f79207468652073706563696669656420636f6e747261637400000000000000006064820152608401610487565b60006109106012600a611c11565b61091a9083611cb9565b905061082583826040518060200160405280600081525060405180602001604052806000815250611469565b336001600160a01b03821614156109ab5760405162461bcd60e51b8152602060048201526024808201527f4552433737373a20617574686f72697a696e672073656c66206173206f70657260448201526330ba37b960e11b6064820152608401610487565b6001600160a01b03811660009081526005602052604090205460ff16156109fc573360009081526007602090815260408083206001600160a01b03851684529091529020805460ff19169055610a2b565b3360009081526006602090815260408083206001600160a01b03851684529091529020805460ff191660011790555b60405133906001600160a01b038316907ff4caeb2d6ca8932a215a353d0703c326ec2d81fc68170f320eb2ab49e9df61f990600090a350565b60606003805461039390611cef565b61082533848484604051806020016040528060008152506001611378565b60006001600160a01b038316610af55760405162461bcd60e51b8152602060048201526024808201527f4552433737373a207472616e7366657220746f20746865207a65726f206164646044820152637265737360e01b6064820152608401610487565b6000339050610b26818286866040518060200160405280600081525060405180602001604052806000815250610f07565b610b5281828686604051806020016040528060008152506040518060200160405280600081525061103e565b61041b81828686604051806020016040528060008152506040518060200160405280600081525060006111a4565b6000816001600160a01b0316836001600160a01b03161480610beb57506001600160a01b03831660009081526005602052604090205460ff168015610beb57506001600160a01b0380831660009081526007602090815260408083209387168352929052205460ff16155b80610c1b57506001600160a01b0380831660009081526006602090815260408083209387168352929052205460ff165b9392505050565b6001600160a01b038116331415610c855760405162461bcd60e51b815260206004820152602160248201527f4552433737373a207265766f6b696e672073656c66206173206f70657261746f6044820152603960f91b6064820152608401610487565b6001600160a01b03811660009081526005602052604090205460ff1615610cd9573360009081526007602090815260408083206001600160a01b03851684529091529020805460ff19166001179055610d05565b3360009081526006602090815260408083206001600160a01b03851684529091529020805460ff191690555b60405133906001600160a01b038316907f50546e66e5f44d728365dc3908c63bc5cfeeab470722c1677e3073a6ac294aa190600090a350565b610d483385610b80565b610da95760405162461bcd60e51b815260206004820152602c60248201527f4552433737373a2063616c6c6572206973206e6f7420616e206f70657261746f60448201526b39103337b9103437b63232b960a11b6064820152608401610487565b610db584848484611469565b50505050565b610dd633838360405180602001604052806000815250611469565b5050565b3b151590565b6001600160a01b038316610e445760405162461bcd60e51b815260206004820152602560248201527f4552433737373a20617070726f76652066726f6d20746865207a65726f206164604482015264647265737360d81b6064820152608401610487565b6001600160a01b038216610ea65760405162461bcd60e51b815260206004820152602360248201527f4552433737373a20617070726f766520746f20746865207a65726f206164647260448201526265737360e81b6064820152608401610487565b6001600160a01b0383811660008181526008602090815260408083209487168084529482529182902085905590518481527f8c5be1e5ebec7d5bd14f71427d1e84f3dd0314c0f7b2291e5b200ac8c7c3b925910160405180910390a3505050565b60405163555ddc6560e11b81526001600160a01b03861660048201527f29ddb589b1fb5fc7cf394961c1adf5f8c6454761adf795e67fe149f658abe8956024820152600090731820a4b7618bde71dce8cdc73aab6c95905fad249063aabbb8ca9060440160206040518083038186803b158015610f8357600080fd5b505afa158015610f97573d6000803e3d6000fd5b505050506040513d601f19601f82011682018060405250810190610fbb9190611805565b90506001600160a01b0381161561103557604051633ad5cbc160e11b81526001600160a01b038216906375ab978290611002908a908a908a908a908a908a90600401611ac8565b600060405180830381600087803b15801561101c57600080fd5b505af1158015611030573d6000803e3d6000fd5b505050505b50505050505050565b6001600160a01b038516600090815260208190526040902054838110156110b75760405162461bcd60e51b815260206004820152602760248201527f4552433737373a207472616e7366657220616d6f756e7420657863656564732060448201526662616c616e636560c81b6064820152608401610487565b6001600160a01b038087166000908152602081905260408082208785039055918716815290812080548692906110ee908490611bb6565b92505081905550846001600160a01b0316866001600160a01b0316886001600160a01b03167f06b541ddaa720db2b10a4d0cdac39b8d360425fc073085fac19bc8261467798787878760405161114693929190611b81565b60405180910390a4846001600160a01b0316866001600160a01b03167fddf252ad1be2c89b69c2b068fc378daa952ba7f163c4a11628f55a4df523b3ef8660405161119391815260200190565b60405180910390a350505050505050565b60405163555ddc6560e11b81526001600160a01b03861660048201527fb281fc8c12954d22544db45de3159a39272895b169a852b314f9cc762e44c53b6024820152600090731820a4b7618bde71dce8cdc73aab6c95905fad249063aabbb8ca9060440160206040518083038186803b15801561122057600080fd5b505afa158015611234573d6000803e3d6000fd5b505050506040513d601f19601f820116820180604052508101906112589190611805565b90506001600160a01b038116156112d4576040516223de2960e01b81526001600160a01b038216906223de299061129d908b908b908b908b908b908b90600401611ac8565b600060405180830381600087803b1580156112b757600080fd5b505af11580156112cb573d6000803e3d6000fd5b5050505061136e565b811561136e576001600160a01b0386163b1561136e5760405162461bcd60e51b815260206004820152604d60248201527f4552433737373a20746f6b656e20726563697069656e7420636f6e747261637460448201527f20686173206e6f20696d706c656d656e74657220666f7220455243373737546f60648201526c1ad95b9cd49958da5c1a595b9d609a1b608482015260a401610487565b5050505050505050565b6001600160a01b0386166113d95760405162461bcd60e51b815260206004820152602260248201527f4552433737373a2073656e642066726f6d20746865207a65726f206164647265604482015261737360f01b6064820152608401610487565b6001600160a01b03851661142f5760405162461bcd60e51b815260206004820181905260248201527f4552433737373a2073656e6420746f20746865207a65726f20616464726573736044820152606401610487565b3361143e818888888888610f07565b61144c81888888888861103e565b611035818888888888886111a4565b610db584848484600161161e565b6001600160a01b0384166114ca5760405162461bcd60e51b815260206004820152602260248201527f4552433737373a206275726e2066726f6d20746865207a65726f206164647265604482015261737360f01b6064820152608401610487565b336114da81866000878787610f07565b6001600160a01b0385166000908152602081905260409020548481101561154f5760405162461bcd60e51b815260206004820152602360248201527f4552433737373a206275726e20616d6f756e7420657863656564732062616c616044820152626e636560e81b6064820152608401610487565b6001600160a01b038616600090815260208190526040812086830390556001805487929061157e908490611cd8565b92505081905550856001600160a01b0316826001600160a01b03167fa78a9be3a7b862d26933ad85fb11d80ef66b8f972d7cbba06621d583943a40988787876040516115cc93929190611b81565b60405180910390a36040518581526000906001600160a01b038816907fddf252ad1be2c89b69c2b068fc378daa952ba7f163c4a11628f55a4df523b3ef906020015b60405180910390a3505050505050565b6001600160a01b0385166116745760405162461bcd60e51b815260206004820181905260248201527f4552433737373a206d696e7420746f20746865207a65726f20616464726573736044820152606401610487565b6000339050846001600082825461168b9190611bb6565b90915550506001600160a01b038616600090815260208190526040812080548792906116b8908490611bb6565b909155506116ce905081600088888888886111a4565b856001600160a01b0316816001600160a01b03167f2fe5be0146f74c5bce36c0b80911af6c7d86ff27e89d5cfa61fc681327954e5d87878760405161171593929190611b81565b60405180910390a36040518581526001600160a01b038716906000907fddf252ad1be2c89b69c2b068fc378daa952ba7f163c4a11628f55a4df523b3ef9060200161160e565b600082601f83011261176c57600080fd5b813567ffffffffffffffff8082111561178757611787611d40565b604051601f8301601f19908116603f011681019082821181831017156117af576117af611d40565b816040528381528660208588010111156117c857600080fd5b836020870160208301376000602085830101528094505050505092915050565b6000602082840312156117fa57600080fd5b8135610c1b81611d56565b60006020828403121561181757600080fd5b8151610c1b81611d56565b6000806040838503121561183557600080fd5b823561184081611d56565b9150602083013561185081611d56565b809150509250929050565b60008060006060848603121561187057600080fd5b833561187b81611d56565b9250602084013561188b81611d56565b929592945050506040919091013590565b600080600080600060a086880312156118b457600080fd5b85356118bf81611d56565b945060208601356118cf81611d56565b935060408601359250606086013567ffffffffffffffff808211156118f357600080fd5b6118ff89838a0161175b565b9350608088013591508082111561191557600080fd5b506119228882890161175b565b9150509295509295909350565b6000806040838503121561194257600080fd5b823561194d81611d56565b946020939093013593505050565b60008060006060848603121561197057600080fd5b833561197b81611d56565b925060208401359150604084013567ffffffffffffffff81111561199e57600080fd5b6119aa8682870161175b565b9150509250925092565b600080600080608085870312156119ca57600080fd5b84356119d581611d56565b935060208501359250604085013567ffffffffffffffff808211156119f957600080fd5b611a058883890161175b565b93506060870135915080821115611a1b57600080fd5b50611a288782880161175b565b91505092959194509250565b60008060408385031215611a4757600080fd5b82359150602083013567ffffffffffffffff811115611a6557600080fd5b611a718582860161175b565b9150509250929050565b6000815180845260005b81811015611aa157602081850181015186830182015201611a85565b81811115611ab3576000602083870101525b50601f01601f19169290920160200192915050565b60006001600160a01b038089168352808816602084015280871660408401525084606083015260c06080830152611b0260c0830185611a7b565b82810360a0840152611b148185611a7b565b9998505050505050505050565b6020808252825182820181905260009190848201906040850190845b81811015611b625783516001600160a01b031683529284019291840191600101611b3d565b50909695505050505050565b602081526000610c1b6020830184611a7b565b838152606060208201526000611b9a6060830185611a7b565b8281036040840152611bac8185611a7b565b9695505050505050565b60008219821115611bc957611bc9611d2a565b500190565b600181815b80851115611c09578160001904821115611bef57611bef611d2a565b80851615611bfc57918102915b93841c9390800290611bd3565b509250929050565b6000610c1b8383600082611c2757506001610421565b81611c3457506000610421565b8160018114611c4a5760028114611c5457611c70565b6001915050610421565b60ff841115611c6557611c65611d2a565b50506001821b610421565b5060208310610133831016604e8410600b8410161715611c93575081810a610421565b611c9d8383611bce565b8060001904821115611cb157611cb1611d2a565b029392505050565b6000816000190483118215151615611cd357611cd3611d2a565b500290565b600082821015611cea57611cea611d2a565b500390565b600181811c90821680611d0357607f821691505b60208210811415611d2457634e487b7160e01b600052602260045260246000fd5b50919050565b634e487b7160e01b600052601160045260246000fd5b634e487b7160e01b600052604160045260246000fd5b6001600160a01b0381168114611d6b57600080fd5b5056fea2646970667358221220d1044378dc9f0302d0b04ecaddc3ba33825120330f391ad49c447e6dc25b1a1d64736f6c6343000807003368747470733a2f2f6e66742e6675616b6f726d2e636f6d2f7b69647d2e6a736f6e",
            "opcodes": "PUSH1 0x0 PUSH1 0x7 SSTORE PUSH1 0x8 DUP1 SLOAD PUSH1 0x1 PUSH1 0x1 PUSH1 0xA0 SHL SUB NOT AND SWAP1 SSTORE PUSH1 0x64 PUSH1 0x9 SSTORE PUSH1 0xC0 PUSH1 0x40 MSTORE PUSH1 0xA PUSH1 0x80 DUP2 SWAP1 MSTORE PUSH10 0x135A5C9858DB19539195 PUSH1 0xB2 SHL PUSH1 0xA0 SWAP1 DUP2 MSTORE PUSH3 0x47 SWAP2 PUSH1 0xB SWAP2 SWAP1 PUSH3 0x2E2 JUMP JUMPDEST POP PUSH1 0x40 DUP1 MLOAD DUP1 DUP3 ADD SWAP1 SWAP2 MSTORE PUSH1 0xA DUP1 DUP3 MSTORE PUSH10 0x135A5C9858DB19539195 PUSH1 0xB2 SHL PUSH1 0x20 SWAP1 SWAP3 ADD SWAP2 DUP3 MSTORE PUSH3 0x7B SWAP2 PUSH1 0xC SWAP2 PUSH3 0x2E2 JUMP JUMPDEST POP PUSH1 0x40 DUP1 MLOAD PUSH1 0xA0 DUP2 ADD DUP3 MSTORE PUSH1 0x1 DUP2 MSTORE PUSH1 0x2 PUSH1 0x20 DUP3 ADD MSTORE PUSH1 0x3 SWAP2 DUP2 ADD SWAP2 SWAP1 SWAP2 MSTORE PUSH1 0x4 PUSH1 0x60 DUP3 ADD MSTORE PUSH1 0x5 PUSH1 0x80 DUP3 ADD DUP2 SWAP1 MSTORE PUSH3 0xB8 SWAP2 PUSH1 0xD SWAP2 PUSH3 0x371 JUMP JUMPDEST POP PUSH1 0x5 PUSH1 0xE SSTORE PUSH1 0x5 PUSH1 0xF SSTORE PUSH1 0x32 PUSH1 0x10 SSTORE PUSH7 0x38D7EA4C68000 PUSH1 0x11 SSTORE PUSH7 0x38D7EA4C68000 PUSH1 0x12 SSTORE PUSH1 0xA PUSH1 0x15 SSTORE PUSH1 0x5 PUSH1 0x16 SSTORE PUSH1 0x3 PUSH1 0x17 SSTORE CALLVALUE DUP1 ISZERO PUSH3 0xFA JUMPI PUSH1 0x0 DUP1 REVERT JUMPDEST POP PUSH1 0x40 MLOAD PUSH3 0x73B7 CODESIZE SUB DUP1 PUSH3 0x73B7 DUP4 CODECOPY DUP2 ADD PUSH1 0x40 DUP2 SWAP1 MSTORE PUSH3 0x11D SWAP2 PUSH3 0x3D9 JUMP JUMPDEST PUSH1 0x40 MLOAD DUP1 PUSH1 0x60 ADD PUSH1 0x40 MSTORE DUP1 PUSH1 0x21 DUP2 MSTORE PUSH1 0x20 ADD PUSH3 0x7396 PUSH1 0x21 SWAP2 CODECOPY PUSH3 0x142 DUP2 PUSH3 0x246 JUMP JUMPDEST POP PUSH1 0xA DUP1 SLOAD PUSH1 0x1 PUSH1 0x1 PUSH1 0xA0 SHL SUB NOT SWAP1 DUP2 AND PUSH1 0x1 PUSH1 0x1 PUSH1 0xA0 SHL SUB DUP6 AND OR SWAP1 SWAP2 SSTORE PUSH1 0x8 DUP1 SLOAD CALLER SWAP3 AND DUP3 OR SWAP1 SSTORE PUSH3 0x177 SWAP1 PUSH3 0x25F JUMP JUMPDEST PUSH1 0x40 DUP1 MLOAD PUSH1 0x1 DUP1 DUP3 MSTORE DUP2 DUP4 ADD SWAP1 SWAP3 MSTORE PUSH1 0x0 SWAP2 PUSH1 0x20 DUP1 DUP4 ADD SWAP1 DUP1 CALLDATASIZE DUP4 CALLDATACOPY POP POP PUSH1 0x8 SLOAD DUP3 MLOAD SWAP3 SWAP4 POP PUSH1 0x1 PUSH1 0x1 PUSH1 0xA0 SHL SUB AND SWAP2 DUP4 SWAP2 POP PUSH1 0x0 SWAP1 PUSH3 0x1BC JUMPI PUSH3 0x1BC PUSH3 0x4C7 JUMP JUMPDEST PUSH1 0x1 PUSH1 0x1 PUSH1 0xA0 SHL SUB SWAP3 DUP4 AND PUSH1 0x20 SWAP2 DUP3 MUL SWAP3 SWAP1 SWAP3 ADD ADD MSTORE PUSH1 0x8 SLOAD PUSH1 0x40 MLOAD DUP5 SWAP3 ADDRESS SWAP3 DUP8 SWAP3 SWAP2 AND SWAP1 DUP6 SWAP1 PUSH3 0x1EE SWAP1 PUSH3 0x3B4 JUMP JUMPDEST PUSH3 0x1FE SWAP6 SWAP5 SWAP4 SWAP3 SWAP2 SWAP1 PUSH3 0x415 JUMP JUMPDEST PUSH1 0x40 MLOAD DUP1 SWAP2 SUB SWAP1 PUSH1 0x0 CREATE DUP1 ISZERO DUP1 ISZERO PUSH3 0x21B JUMPI RETURNDATASIZE PUSH1 0x0 DUP1 RETURNDATACOPY RETURNDATASIZE PUSH1 0x0 REVERT JUMPDEST POP PUSH1 0x13 DUP1 SLOAD PUSH1 0x1 PUSH1 0x1 PUSH1 0xA0 SHL SUB NOT AND PUSH1 0x1 PUSH1 0x1 PUSH1 0xA0 SHL SUB SWAP3 SWAP1 SWAP3 AND SWAP2 SWAP1 SWAP2 OR SWAP1 SSTORE POP PUSH3 0x4DD SWAP2 POP POP JUMP JUMPDEST DUP1 MLOAD PUSH3 0x25B SWAP1 PUSH1 0x6 SWAP1 PUSH1 0x20 DUP5 ADD SWAP1 PUSH3 0x2E2 JUMP JUMPDEST POP POP JUMP JUMPDEST PUSH1 0x8 SLOAD PUSH1 0x1 PUSH1 0x1 PUSH1 0xA0 SHL SUB AND CALLER EQ PUSH3 0x2BE JUMPI PUSH1 0x40 MLOAD PUSH3 0x461BCD PUSH1 0xE5 SHL DUP2 MSTORE PUSH1 0x20 PUSH1 0x4 DUP3 ADD DUP2 SWAP1 MSTORE PUSH1 0x24 DUP3 ADD MSTORE PUSH32 0x54686973206D6574686F64206D7573742063616C6C6564206279206F776E6572 PUSH1 0x44 DUP3 ADD MSTORE PUSH1 0x64 ADD PUSH1 0x40 MLOAD DUP1 SWAP2 SUB SWAP1 REVERT JUMPDEST PUSH1 0x1 PUSH1 0x1 PUSH1 0xA0 SHL SUB AND PUSH1 0x0 SWAP1 DUP2 MSTORE PUSH1 0x5 PUSH1 0x20 MSTORE PUSH1 0x40 SWAP1 KECCAK256 DUP1 SLOAD PUSH1 0xFF NOT AND PUSH1 0x1 OR SWAP1 SSTORE JUMP JUMPDEST DUP3 DUP1 SLOAD PUSH3 0x2F0 SWAP1 PUSH3 0x48A JUMP JUMPDEST SWAP1 PUSH1 0x0 MSTORE PUSH1 0x20 PUSH1 0x0 KECCAK256 SWAP1 PUSH1 0x1F ADD PUSH1 0x20 SWAP1 DIV DUP2 ADD SWAP3 DUP3 PUSH3 0x314 JUMPI PUSH1 0x0 DUP6 SSTORE PUSH3 0x35F JUMP JUMPDEST DUP3 PUSH1 0x1F LT PUSH3 0x32F JUMPI DUP1 MLOAD PUSH1 0xFF NOT AND DUP4 DUP1 ADD OR DUP6 SSTORE PUSH3 0x35F JUMP JUMPDEST DUP3 DUP1 ADD PUSH1 0x1 ADD DUP6 SSTORE DUP3 ISZERO PUSH3 0x35F JUMPI SWAP2 DUP3 ADD JUMPDEST DUP3 DUP2 GT ISZERO PUSH3 0x35F JUMPI DUP3 MLOAD DUP3 SSTORE SWAP2 PUSH1 0x20 ADD SWAP2 SWAP1 PUSH1 0x1 ADD SWAP1 PUSH3 0x342 JUMP JUMPDEST POP PUSH3 0x36D SWAP3 SWAP2 POP PUSH3 0x3C2 JUMP JUMPDEST POP SWAP1 JUMP JUMPDEST DUP3 DUP1 SLOAD DUP3 DUP3 SSTORE SWAP1 PUSH1 0x0 MSTORE PUSH1 0x20 PUSH1 0x0 KECCAK256 SWAP1 DUP2 ADD SWAP3 DUP3 ISZERO PUSH3 0x35F JUMPI SWAP2 PUSH1 0x20 MUL DUP3 ADD JUMPDEST DUP3 DUP2 GT ISZERO PUSH3 0x35F JUMPI DUP3 MLOAD DUP3 SWAP1 PUSH1 0xFF AND SWAP1 SSTORE SWAP2 PUSH1 0x20 ADD SWAP2 SWAP1 PUSH1 0x1 ADD SWAP1 PUSH3 0x392 JUMP JUMPDEST PUSH2 0x2948 DUP1 PUSH3 0x4A4E DUP4 CODECOPY ADD SWAP1 JUMP JUMPDEST JUMPDEST DUP1 DUP3 GT ISZERO PUSH3 0x36D JUMPI PUSH1 0x0 DUP2 SSTORE PUSH1 0x1 ADD PUSH3 0x3C3 JUMP JUMPDEST PUSH1 0x0 DUP1 PUSH1 0x40 DUP4 DUP6 SUB SLT ISZERO PUSH3 0x3ED JUMPI PUSH1 0x0 DUP1 REVERT JUMPDEST DUP3 MLOAD PUSH1 0x1 PUSH1 0x1 PUSH1 0xA0 SHL SUB DUP2 AND DUP2 EQ PUSH3 0x405 JUMPI PUSH1 0x0 DUP1 REVERT JUMPDEST PUSH1 0x20 SWAP4 SWAP1 SWAP4 ADD MLOAD SWAP3 SWAP5 SWAP3 SWAP4 POP POP POP JUMP JUMPDEST PUSH1 0x0 PUSH1 0xA0 DUP3 ADD DUP8 DUP4 MSTORE PUSH1 0x20 PUSH1 0x1 DUP1 PUSH1 0xA0 SHL SUB DUP1 DUP10 AND DUP3 DUP7 ADD MSTORE DUP1 DUP9 AND PUSH1 0x40 DUP7 ADD MSTORE DUP1 DUP8 AND PUSH1 0x60 DUP7 ADD MSTORE PUSH1 0xA0 PUSH1 0x80 DUP7 ADD MSTORE DUP3 DUP7 MLOAD DUP1 DUP6 MSTORE PUSH1 0xC0 DUP8 ADD SWAP2 POP DUP4 DUP9 ADD SWAP5 POP PUSH1 0x0 JUMPDEST DUP2 DUP2 LT ISZERO PUSH3 0x479 JUMPI DUP6 MLOAD DUP5 AND DUP4 MSTORE SWAP5 DUP5 ADD SWAP5 SWAP2 DUP5 ADD SWAP2 PUSH1 0x1 ADD PUSH3 0x459 JUMP JUMPDEST POP SWAP1 SWAP12 SWAP11 POP POP POP POP POP POP POP POP POP POP POP JUMP JUMPDEST PUSH1 0x1 DUP2 DUP2 SHR SWAP1 DUP3 AND DUP1 PUSH3 0x49F JUMPI PUSH1 0x7F DUP3 AND SWAP2 POP JUMPDEST PUSH1 0x20 DUP3 LT DUP2 EQ ISZERO PUSH3 0x4C1 JUMPI PUSH4 0x4E487B71 PUSH1 0xE0 SHL PUSH1 0x0 MSTORE PUSH1 0x22 PUSH1 0x4 MSTORE PUSH1 0x24 PUSH1 0x0 REVERT JUMPDEST POP SWAP2 SWAP1 POP JUMP JUMPDEST PUSH4 0x4E487B71 PUSH1 0xE0 SHL PUSH1 0x0 MSTORE PUSH1 0x32 PUSH1 0x4 MSTORE PUSH1 0x24 PUSH1 0x0 REVERT JUMPDEST PUSH2 0x4561 DUP1 PUSH3 0x4ED PUSH1 0x0 CODECOPY PUSH1 0x0 RETURN INVALID PUSH1 0x80 PUSH1 0x40 MSTORE PUSH1 0x4 CALLDATASIZE LT PUSH2 0x327 JUMPI PUSH1 0x0 CALLDATALOAD PUSH1 0xE0 SHR DUP1 PUSH4 0x76263C8C GT PUSH2 0x1A5 JUMPI DUP1 PUSH4 0xAA7AC1A3 GT PUSH2 0xEC JUMPI DUP1 PUSH4 0xE7619FAD GT PUSH2 0x95 JUMPI DUP1 PUSH4 0xF220E4FF GT PUSH2 0x6F JUMPI DUP1 PUSH4 0xF220E4FF EQ PUSH2 0x944 JUMPI DUP1 PUSH4 0xF242432A EQ PUSH2 0x964 JUMPI DUP1 PUSH4 0xF9893B8E EQ PUSH2 0x984 JUMPI DUP1 PUSH4 0xF9F494ED EQ PUSH2 0x9A4 JUMPI PUSH1 0x0 DUP1 REVERT JUMPDEST DUP1 PUSH4 0xE7619FAD EQ PUSH2 0x8C6 JUMPI DUP1 PUSH4 0xE985E9C5 EQ PUSH2 0x8DB JUMPI DUP1 PUSH4 0xED2EE69D EQ PUSH2 0x924 JUMPI PUSH1 0x0 DUP1 REVERT JUMPDEST DUP1 PUSH4 0xC365E336 GT PUSH2 0xC6 JUMPI DUP1 PUSH4 0xC365E336 EQ PUSH2 0x853 JUMPI DUP1 PUSH4 0xCA11E7F0 EQ PUSH2 0x873 JUMPI DUP1 PUSH4 0xE4B50CB8 EQ PUSH2 0x893 JUMPI PUSH1 0x0 DUP1 REVERT JUMPDEST DUP1 PUSH4 0xAA7AC1A3 EQ PUSH2 0x807 JUMPI DUP1 PUSH4 0xAFA16385 EQ PUSH2 0x827 JUMPI DUP1 PUSH4 0xBEBA6432 EQ PUSH2 0x83D JUMPI PUSH1 0x0 DUP1 REVERT JUMPDEST DUP1 PUSH4 0x95D89B41 GT PUSH2 0x14E JUMPI DUP1 PUSH4 0xA1813FAC GT PUSH2 0x128 JUMPI DUP1 PUSH4 0xA1813FAC EQ PUSH2 0x79A JUMPI DUP1 PUSH4 0xA22CB465 EQ PUSH2 0x7C7 JUMPI DUP1 PUSH4 0xA5EA0FEC EQ PUSH2 0x7E7 JUMPI PUSH1 0x0 DUP1 REVERT JUMPDEST DUP1 PUSH4 0x95D89B41 EQ PUSH2 0x745 JUMPI DUP1 PUSH4 0x97388126 EQ PUSH2 0x75A JUMPI DUP1 PUSH4 0x986192CF EQ PUSH2 0x77A JUMPI PUSH1 0x0 DUP1 REVERT JUMPDEST DUP1 PUSH4 0x8AEBC916 GT PUSH2 0x17F JUMPI DUP1 PUSH4 0x8AEBC916 EQ PUSH2 0x6EF JUMPI DUP1 PUSH4 0x8CBFC305 EQ PUSH2 0x70F JUMPI DUP1 PUSH4 0x925057FA EQ PUSH2 0x72F JUMPI PUSH1 0x0 DUP1 REVERT JUMPDEST DUP1 PUSH4 0x76263C8C EQ PUSH2 0x6B3 JUMPI DUP1 PUSH4 0x770BDFF8 EQ PUSH2 0x6D1 JUMPI DUP1 PUSH4 0x79EF1B38 EQ PUSH2 0x6E7 JUMPI PUSH1 0x0 DUP1 REVERT JUMPDEST DUP1 PUSH4 0x2EB2C2D6 GT PUSH2 0x274 JUMPI DUP1 PUSH4 0x38CB8D20 GT PUSH2 0x21D JUMPI DUP1 PUSH4 0x6352211E GT PUSH2 0x1F7 JUMPI DUP1 PUSH4 0x6352211E EQ PUSH2 0x61B JUMPI DUP1 PUSH4 0x6F03894F EQ PUSH2 0x653 JUMPI DUP1 PUSH4 0x70A08231 EQ PUSH2 0x673 JUMPI DUP1 PUSH4 0x7408A222 EQ PUSH2 0x693 JUMPI PUSH1 0x0 DUP1 REVERT JUMPDEST DUP1 PUSH4 0x38CB8D20 EQ PUSH2 0x5B8 JUMPI DUP1 PUSH4 0x4E1273F4 EQ PUSH2 0x5D8 JUMPI DUP1 PUSH4 0x6121B0B3 EQ PUSH2 0x605 JUMPI PUSH1 0x0 DUP1 REVERT JUMPDEST DUP1 PUSH4 0x3130EB5E GT PUSH2 0x24E JUMPI DUP1 PUSH4 0x3130EB5E EQ PUSH2 0x53F JUMPI DUP1 PUSH4 0x313CE567 EQ PUSH2 0x589 JUMPI DUP1 PUSH4 0x36EB146C EQ PUSH2 0x5A5 JUMPI PUSH1 0x0 DUP1 REVERT JUMPDEST DUP1 PUSH4 0x2EB2C2D6 EQ PUSH2 0x4E9 JUMPI DUP1 PUSH4 0x2FA5FE38 EQ PUSH2 0x509 JUMPI DUP1 PUSH4 0x303B1195 EQ PUSH2 0x529 JUMPI PUSH1 0x0 DUP1 REVERT JUMPDEST DUP1 PUSH4 0xE53310A GT PUSH2 0x2D6 JUMPI DUP1 PUSH4 0x23B872DD GT PUSH2 0x2B0 JUMPI DUP1 PUSH4 0x23B872DD EQ PUSH2 0x489 JUMPI DUP1 PUSH4 0x29ADB287 EQ PUSH2 0x4A9 JUMPI DUP1 PUSH4 0x2B1618E0 EQ PUSH2 0x4C9 JUMPI PUSH1 0x0 DUP1 REVERT JUMPDEST DUP1 PUSH4 0xE53310A EQ PUSH2 0x433 JUMPI DUP1 PUSH4 0xE89341C EQ PUSH2 0x453 JUMPI DUP1 PUSH4 0x1597A43D EQ PUSH2 0x473 JUMPI PUSH1 0x0 DUP1 REVERT JUMPDEST DUP1 PUSH4 0x2FE5305 GT PUSH2 0x307 JUMPI DUP1 PUSH4 0x2FE5305 EQ PUSH2 0x3B6 JUMPI DUP1 PUSH4 0x6FDDE03 EQ PUSH2 0x3D8 JUMPI DUP1 PUSH4 0x848A136 EQ PUSH2 0x3FA JUMPI PUSH1 0x0 DUP1 REVERT JUMPDEST DUP1 PUSH3 0x36F0AD EQ PUSH2 0x32C JUMPI DUP1 PUSH3 0xFDD58E EQ PUSH2 0x355 JUMPI DUP1 PUSH4 0x1FFC9A7 EQ PUSH2 0x375 JUMPI JUMPDEST PUSH1 0x0 DUP1 REVERT JUMPDEST CALLVALUE DUP1 ISZERO PUSH2 0x338 JUMPI PUSH1 0x0 DUP1 REVERT JUMPDEST POP PUSH2 0x342 PUSH1 0x17 SLOAD DUP2 JUMP JUMPDEST PUSH1 0x40 MLOAD SWAP1 DUP2 MSTORE PUSH1 0x20 ADD JUMPDEST PUSH1 0x40 MLOAD DUP1 SWAP2 SUB SWAP1 RETURN JUMPDEST CALLVALUE DUP1 ISZERO PUSH2 0x361 JUMPI PUSH1 0x0 DUP1 REVERT JUMPDEST POP PUSH2 0x342 PUSH2 0x370 CALLDATASIZE PUSH1 0x4 PUSH2 0x3B8B JUMP JUMPDEST PUSH2 0x9C4 JUMP JUMPDEST CALLVALUE DUP1 ISZERO PUSH2 0x381 JUMPI PUSH1 0x0 DUP1 REVERT JUMPDEST POP PUSH2 0x3A6 PUSH2 0x390 CALLDATASIZE PUSH1 0x4 PUSH2 0x3EA0 JUMP JUMPDEST PUSH1 0x1 PUSH1 0x1 PUSH1 0xE0 SHL SUB NOT AND PUSH4 0x1FFC9A7 PUSH1 0xE0 SHL EQ SWAP1 JUMP JUMPDEST PUSH1 0x40 MLOAD SWAP1 ISZERO ISZERO DUP2 MSTORE PUSH1 0x20 ADD PUSH2 0x34C JUMP JUMPDEST CALLVALUE DUP1 ISZERO PUSH2 0x3C2 JUMPI PUSH1 0x0 DUP1 REVERT JUMPDEST POP PUSH2 0x3D6 PUSH2 0x3D1 CALLDATASIZE PUSH1 0x4 PUSH2 0x3EDA JUMP JUMPDEST PUSH2 0xA60 JUMP JUMPDEST STOP JUMPDEST CALLVALUE DUP1 ISZERO PUSH2 0x3E4 JUMPI PUSH1 0x0 DUP1 REVERT JUMPDEST POP PUSH2 0x3ED PUSH2 0xAB4 JUMP JUMPDEST PUSH1 0x40 MLOAD PUSH2 0x34C SWAP2 SWAP1 PUSH2 0x41FD JUMP JUMPDEST CALLVALUE DUP1 ISZERO PUSH2 0x406 JUMPI PUSH1 0x0 DUP1 REVERT JUMPDEST POP PUSH2 0x3A6 PUSH2 0x415 CALLDATASIZE PUSH1 0x4 PUSH2 0x39B6 JUMP JUMPDEST PUSH1 0x1 PUSH1 0x1 PUSH1 0xA0 SHL SUB AND PUSH1 0x0 SWAP1 DUP2 MSTORE PUSH1 0x5 PUSH1 0x20 MSTORE PUSH1 0x40 SWAP1 KECCAK256 SLOAD PUSH1 0xFF AND SWAP1 JUMP JUMPDEST CALLVALUE DUP1 ISZERO PUSH2 0x43F JUMPI PUSH1 0x0 DUP1 REVERT JUMPDEST POP PUSH2 0x342 PUSH2 0x44E CALLDATASIZE PUSH1 0x4 PUSH2 0x3F0F JUMP JUMPDEST PUSH2 0xB42 JUMP JUMPDEST CALLVALUE DUP1 ISZERO PUSH2 0x45F JUMPI PUSH1 0x0 DUP1 REVERT JUMPDEST POP PUSH2 0x3ED PUSH2 0x46E CALLDATASIZE PUSH1 0x4 PUSH2 0x3F0F JUMP JUMPDEST PUSH2 0xB63 JUMP JUMPDEST CALLVALUE DUP1 ISZERO PUSH2 0x47F JUMPI PUSH1 0x0 DUP1 REVERT JUMPDEST POP PUSH2 0x342 PUSH1 0xE SLOAD DUP2 JUMP JUMPDEST CALLVALUE DUP1 ISZERO PUSH2 0x495 JUMPI PUSH1 0x0 DUP1 REVERT JUMPDEST POP PUSH2 0x3D6 PUSH2 0x4A4 CALLDATASIZE PUSH1 0x4 PUSH2 0x3AAE JUMP JUMPDEST PUSH2 0xBF7 JUMP JUMPDEST CALLVALUE DUP1 ISZERO PUSH2 0x4B5 JUMPI PUSH1 0x0 DUP1 REVERT JUMPDEST POP PUSH2 0x3D6 PUSH2 0x4C4 CALLDATASIZE PUSH1 0x4 PUSH2 0x3F95 JUMP JUMPDEST PUSH2 0xC61 JUMP JUMPDEST CALLVALUE DUP1 ISZERO PUSH2 0x4D5 JUMPI PUSH1 0x0 DUP1 REVERT JUMPDEST POP PUSH2 0x3D6 PUSH2 0x4E4 CALLDATASIZE PUSH1 0x4 PUSH2 0x3C86 JUMP JUMPDEST PUSH2 0xDC6 JUMP JUMPDEST CALLVALUE DUP1 ISZERO PUSH2 0x4F5 JUMPI PUSH1 0x0 DUP1 REVERT JUMPDEST POP PUSH2 0x3D6 PUSH2 0x504 CALLDATASIZE PUSH1 0x4 PUSH2 0x3A04 JUMP JUMPDEST PUSH2 0xE47 JUMP JUMPDEST CALLVALUE DUP1 ISZERO PUSH2 0x515 JUMPI PUSH1 0x0 DUP1 REVERT JUMPDEST POP PUSH2 0x3D6 PUSH2 0x524 CALLDATASIZE PUSH1 0x4 PUSH2 0x3F0F JUMP JUMPDEST PUSH2 0x116C JUMP JUMPDEST CALLVALUE DUP1 ISZERO PUSH2 0x535 JUMPI PUSH1 0x0 DUP1 REVERT JUMPDEST POP PUSH2 0x342 PUSH1 0x11 SLOAD DUP2 JUMP JUMPDEST CALLVALUE DUP1 ISZERO PUSH2 0x54B JUMPI PUSH1 0x0 DUP1 REVERT JUMPDEST POP PUSH2 0x3D6 PUSH2 0x55A CALLDATASIZE PUSH1 0x4 PUSH2 0x39B6 JUMP JUMPDEST PUSH1 0x13 DUP1 SLOAD PUSH20 0xFFFFFFFFFFFFFFFFFFFFFFFFFFFFFFFFFFFFFFFF NOT AND PUSH1 0x1 PUSH1 0x1 PUSH1 0xA0 SHL SUB SWAP3 SWAP1 SWAP3 AND SWAP2 SWAP1 SWAP2 OR SWAP1 SSTORE JUMP JUMPDEST CALLVALUE DUP1 ISZERO PUSH2 0x595 JUMPI PUSH1 0x0 DUP1 REVERT JUMPDEST POP PUSH1 0x40 MLOAD PUSH1 0x0 DUP2 MSTORE PUSH1 0x20 ADD PUSH2 0x34C JUMP JUMPDEST PUSH2 0x3D6 PUSH2 0x5B3 CALLDATASIZE PUSH1 0x4 PUSH2 0x3F28 JUMP JUMPDEST PUSH2 0x11DB JUMP JUMPDEST CALLVALUE DUP1 ISZERO PUSH2 0x5C4 JUMPI PUSH1 0x0 DUP1 REVERT JUMPDEST POP PUSH2 0x3D6 PUSH2 0x5D3 CALLDATASIZE PUSH1 0x4 PUSH2 0x3D28 JUMP JUMPDEST PUSH2 0x1368 JUMP JUMPDEST CALLVALUE DUP1 ISZERO PUSH2 0x5E4 JUMPI PUSH1 0x0 DUP1 REVERT JUMPDEST POP PUSH2 0x5F8 PUSH2 0x5F3 CALLDATASIZE PUSH1 0x4 PUSH2 0x3BB5 JUMP JUMPDEST PUSH2 0x158F JUMP JUMPDEST PUSH1 0x40 MLOAD PUSH2 0x34C SWAP2 SWAP1 PUSH2 0x41BC JUMP JUMPDEST CALLVALUE DUP1 ISZERO PUSH2 0x611 JUMPI PUSH1 0x0 DUP1 REVERT JUMPDEST POP PUSH2 0x342 PUSH1 0x10 SLOAD DUP2 JUMP JUMPDEST CALLVALUE DUP1 ISZERO PUSH2 0x627 JUMPI PUSH1 0x0 DUP1 REVERT JUMPDEST POP PUSH2 0x63B PUSH2 0x636 CALLDATASIZE PUSH1 0x4 PUSH2 0x3F0F JUMP JUMPDEST PUSH2 0x1788 JUMP JUMPDEST PUSH1 0x40 MLOAD PUSH1 0x1 PUSH1 0x1 PUSH1 0xA0 SHL SUB SWAP1 SWAP2 AND DUP2 MSTORE PUSH1 0x20 ADD PUSH2 0x34C JUMP JUMPDEST CALLVALUE DUP1 ISZERO PUSH2 0x65F JUMPI PUSH1 0x0 DUP1 REVERT JUMPDEST POP PUSH2 0x3D6 PUSH2 0x66E CALLDATASIZE PUSH1 0x4 PUSH2 0x3D28 JUMP JUMPDEST PUSH2 0x1793 JUMP JUMPDEST CALLVALUE DUP1 ISZERO PUSH2 0x67F JUMPI PUSH1 0x0 DUP1 REVERT JUMPDEST POP PUSH2 0x342 PUSH2 0x68E CALLDATASIZE PUSH1 0x4 PUSH2 0x39B6 JUMP JUMPDEST PUSH2 0x17EE JUMP JUMPDEST CALLVALUE DUP1 ISZERO PUSH2 0x69F JUMPI PUSH1 0x0 DUP1 REVERT JUMPDEST POP PUSH2 0x342 PUSH2 0x6AE CALLDATASIZE PUSH1 0x4 PUSH2 0x3F0F JUMP JUMPDEST PUSH2 0x17F9 JUMP JUMPDEST CALLVALUE DUP1 ISZERO PUSH2 0x6BF JUMPI PUSH1 0x0 DUP1 REVERT JUMPDEST POP PUSH1 0x13 SLOAD PUSH1 0x1 PUSH1 0x1 PUSH1 0xA0 SHL SUB AND PUSH2 0x63B JUMP JUMPDEST CALLVALUE DUP1 ISZERO PUSH2 0x6DD JUMPI PUSH1 0x0 DUP1 REVERT JUMPDEST POP PUSH2 0x342 PUSH1 0x15 SLOAD DUP2 JUMP JUMPDEST PUSH2 0x3D6 PUSH2 0x1809 JUMP JUMPDEST CALLVALUE DUP1 ISZERO PUSH2 0x6FB JUMPI PUSH1 0x0 DUP1 REVERT JUMPDEST POP PUSH2 0x3D6 PUSH2 0x70A CALLDATASIZE PUSH1 0x4 PUSH2 0x3DAA JUMP JUMPDEST PUSH2 0x1886 JUMP JUMPDEST CALLVALUE DUP1 ISZERO PUSH2 0x71B JUMPI PUSH1 0x0 DUP1 REVERT JUMPDEST POP PUSH2 0x3D6 PUSH2 0x72A CALLDATASIZE PUSH1 0x4 PUSH2 0x39B6 JUMP JUMPDEST PUSH2 0x1BA7 JUMP JUMPDEST CALLVALUE DUP1 ISZERO PUSH2 0x73B JUMPI PUSH1 0x0 DUP1 REVERT JUMPDEST POP PUSH2 0x342 PUSH1 0xF SLOAD DUP2 JUMP JUMPDEST CALLVALUE DUP1 ISZERO PUSH2 0x751 JUMPI PUSH1 0x0 DUP1 REVERT JUMPDEST POP PUSH2 0x3ED PUSH2 0x1C13 JUMP JUMPDEST CALLVALUE DUP1 ISZERO PUSH2 0x766 JUMPI PUSH1 0x0 DUP1 REVERT JUMPDEST POP PUSH2 0x3D6 PUSH2 0x775 CALLDATASIZE PUSH1 0x4 PUSH2 0x3F0F JUMP JUMPDEST PUSH2 0x1C20 JUMP JUMPDEST CALLVALUE DUP1 ISZERO PUSH2 0x786 JUMPI PUSH1 0x0 DUP1 REVERT JUMPDEST POP PUSH2 0x3D6 PUSH2 0x795 CALLDATASIZE PUSH1 0x4 PUSH2 0x3F0F JUMP JUMPDEST PUSH2 0x1C6D JUMP JUMPDEST CALLVALUE DUP1 ISZERO PUSH2 0x7A6 JUMPI PUSH1 0x0 DUP1 REVERT JUMPDEST POP PUSH2 0x7BA PUSH2 0x7B5 CALLDATASIZE PUSH1 0x4 PUSH2 0x39B6 JUMP JUMPDEST PUSH2 0x1CBA JUMP JUMPDEST PUSH1 0x40 MLOAD PUSH2 0x34C SWAP2 SWAP1 PUSH2 0x4178 JUMP JUMPDEST CALLVALUE DUP1 ISZERO PUSH2 0x7D3 JUMPI PUSH1 0x0 DUP1 REVERT JUMPDEST POP PUSH2 0x3D6 PUSH2 0x7E2 CALLDATASIZE PUSH1 0x4 PUSH2 0x3B4F JUMP JUMPDEST PUSH2 0x1D47 JUMP JUMPDEST CALLVALUE DUP1 ISZERO PUSH2 0x7F3 JUMPI PUSH1 0x0 DUP1 REVERT JUMPDEST POP PUSH2 0x3D6 PUSH2 0x802 CALLDATASIZE PUSH1 0x4 PUSH2 0x3F0F JUMP JUMPDEST PUSH2 0x1E1E JUMP JUMPDEST CALLVALUE DUP1 ISZERO PUSH2 0x813 JUMPI PUSH1 0x0 DUP1 REVERT JUMPDEST POP PUSH2 0x3D6 PUSH2 0x822 CALLDATASIZE PUSH1 0x4 PUSH2 0x3F0F JUMP JUMPDEST PUSH2 0x1E8D JUMP JUMPDEST CALLVALUE DUP1 ISZERO PUSH2 0x833 JUMPI PUSH1 0x0 DUP1 REVERT JUMPDEST POP PUSH2 0x342 PUSH1 0x12 SLOAD DUP2 JUMP JUMPDEST CALLVALUE DUP1 ISZERO PUSH2 0x849 JUMPI PUSH1 0x0 DUP1 REVERT JUMPDEST POP PUSH2 0x342 PUSH1 0x16 SLOAD DUP2 JUMP JUMPDEST CALLVALUE DUP1 ISZERO PUSH2 0x85F JUMPI PUSH1 0x0 DUP1 REVERT JUMPDEST POP PUSH2 0x3D6 PUSH2 0x86E CALLDATASIZE PUSH1 0x4 PUSH2 0x3E1E JUMP JUMPDEST PUSH2 0x1EF1 JUMP JUMPDEST CALLVALUE DUP1 ISZERO PUSH2 0x87F JUMPI PUSH1 0x0 DUP1 REVERT JUMPDEST POP PUSH2 0x3D6 PUSH2 0x88E CALLDATASIZE PUSH1 0x4 PUSH2 0x3F0F JUMP JUMPDEST PUSH2 0x1F4D JUMP JUMPDEST CALLVALUE DUP1 ISZERO PUSH2 0x89F JUMPI PUSH1 0x0 DUP1 REVERT JUMPDEST POP PUSH2 0x8B3 PUSH2 0x8AE CALLDATASIZE PUSH1 0x4 PUSH2 0x3F0F JUMP JUMPDEST PUSH2 0x1F9A JUMP JUMPDEST PUSH1 0x40 MLOAD PUSH2 0x34C SWAP8 SWAP7 SWAP6 SWAP5 SWAP4 SWAP3 SWAP2 SWAP1 PUSH2 0x4210 JUMP JUMPDEST CALLVALUE DUP1 ISZERO PUSH2 0x8D2 JUMPI PUSH1 0x0 DUP1 REVERT JUMPDEST POP PUSH2 0x5F8 PUSH2 0x2019 JUMP JUMPDEST CALLVALUE DUP1 ISZERO PUSH2 0x8E7 JUMPI PUSH1 0x0 DUP1 REVERT JUMPDEST POP PUSH2 0x3A6 PUSH2 0x8F6 CALLDATASIZE PUSH1 0x4 PUSH2 0x39D1 JUMP JUMPDEST PUSH1 0x1 PUSH1 0x1 PUSH1 0xA0 SHL SUB SWAP2 DUP3 AND PUSH1 0x0 SWAP1 DUP2 MSTORE PUSH1 0x4 PUSH1 0x20 SWAP1 DUP2 MSTORE PUSH1 0x40 DUP1 DUP4 KECCAK256 SWAP4 SWAP1 SWAP5 AND DUP3 MSTORE SWAP2 SWAP1 SWAP2 MSTORE KECCAK256 SLOAD PUSH1 0xFF AND SWAP1 JUMP JUMPDEST CALLVALUE DUP1 ISZERO PUSH2 0x930 JUMPI PUSH1 0x0 DUP1 REVERT JUMPDEST POP PUSH2 0x3D6 PUSH2 0x93F CALLDATASIZE PUSH1 0x4 PUSH2 0x3F0F JUMP JUMPDEST PUSH2 0x202A JUMP JUMPDEST CALLVALUE DUP1 ISZERO PUSH2 0x950 JUMPI PUSH1 0x0 DUP1 REVERT JUMPDEST POP PUSH2 0x3D6 PUSH2 0x95F CALLDATASIZE PUSH1 0x4 PUSH2 0x3FB7 JUMP JUMPDEST PUSH2 0x2099 JUMP JUMPDEST CALLVALUE DUP1 ISZERO PUSH2 0x970 JUMPI PUSH1 0x0 DUP1 REVERT JUMPDEST POP PUSH2 0x3D6 PUSH2 0x97F CALLDATASIZE PUSH1 0x4 PUSH2 0x3AEA JUMP JUMPDEST PUSH2 0x20B3 JUMP JUMPDEST CALLVALUE DUP1 ISZERO PUSH2 0x990 JUMPI PUSH1 0x0 DUP1 REVERT JUMPDEST POP PUSH2 0x3D6 PUSH2 0x99F CALLDATASIZE PUSH1 0x4 PUSH2 0x3D5D JUMP JUMPDEST PUSH2 0x2303 JUMP JUMPDEST CALLVALUE DUP1 ISZERO PUSH2 0x9B0 JUMPI PUSH1 0x0 DUP1 REVERT JUMPDEST POP PUSH2 0x3D6 PUSH2 0x9BF CALLDATASIZE PUSH1 0x4 PUSH2 0x39B6 JUMP JUMPDEST PUSH2 0x2544 JUMP JUMPDEST PUSH1 0x0 PUSH1 0x1 PUSH1 0x1 PUSH1 0xA0 SHL SUB DUP4 AND PUSH2 0xA35 JUMPI PUSH1 0x40 MLOAD PUSH3 0x461BCD PUSH1 0xE5 SHL DUP2 MSTORE PUSH1 0x20 PUSH1 0x4 DUP3 ADD MSTORE PUSH1 0x2B PUSH1 0x24 DUP3 ADD MSTORE PUSH32 0x455243313135353A2062616C616E636520717565727920666F7220746865207A PUSH1 0x44 DUP3 ADD MSTORE PUSH11 0x65726F2061646472657373 PUSH1 0xA8 SHL PUSH1 0x64 DUP3 ADD MSTORE PUSH1 0x84 ADD JUMPDEST PUSH1 0x40 MLOAD DUP1 SWAP2 SUB SWAP1 REVERT JUMPDEST POP PUSH1 0x0 DUP2 DUP2 MSTORE PUSH1 0x3 PUSH1 0x20 SWAP1 DUP2 MSTORE PUSH1 0x40 DUP1 DUP4 KECCAK256 PUSH1 0x1 PUSH1 0x1 PUSH1 0xA0 SHL SUB DUP7 AND DUP5 MSTORE SWAP1 SWAP2 MSTORE SWAP1 KECCAK256 SLOAD JUMPDEST SWAP3 SWAP2 POP POP JUMP JUMPDEST PUSH1 0x8 SLOAD PUSH1 0x1 PUSH1 0x1 PUSH1 0xA0 SHL SUB AND CALLER EQ PUSH2 0xAA8 JUMPI PUSH1 0x40 MLOAD PUSH3 0x461BCD PUSH1 0xE5 SHL DUP2 MSTORE PUSH1 0x20 PUSH1 0x4 DUP3 ADD DUP2 SWAP1 MSTORE PUSH1 0x24 DUP3 ADD MSTORE PUSH1 0x0 DUP1 MLOAD PUSH1 0x20 PUSH2 0x44C1 DUP4 CODECOPY DUP2 MLOAD SWAP2 MSTORE PUSH1 0x44 DUP3 ADD MSTORE PUSH1 0x64 ADD PUSH2 0xA2C JUMP JUMPDEST PUSH2 0xAB1 DUP2 PUSH2 0x25AD JUMP JUMPDEST POP JUMP JUMPDEST PUSH1 0xB DUP1 SLOAD PUSH2 0xAC1 SWAP1 PUSH2 0x42FF JUMP JUMPDEST DUP1 PUSH1 0x1F ADD PUSH1 0x20 DUP1 SWAP2 DIV MUL PUSH1 0x20 ADD PUSH1 0x40 MLOAD SWAP1 DUP2 ADD PUSH1 0x40 MSTORE DUP1 SWAP3 SWAP2 SWAP1 DUP2 DUP2 MSTORE PUSH1 0x20 ADD DUP3 DUP1 SLOAD PUSH2 0xAED SWAP1 PUSH2 0x42FF JUMP JUMPDEST DUP1 ISZERO PUSH2 0xB3A JUMPI DUP1 PUSH1 0x1F LT PUSH2 0xB0F JUMPI PUSH2 0x100 DUP1 DUP4 SLOAD DIV MUL DUP4 MSTORE SWAP2 PUSH1 0x20 ADD SWAP2 PUSH2 0xB3A JUMP JUMPDEST DUP3 ADD SWAP2 SWAP1 PUSH1 0x0 MSTORE PUSH1 0x20 PUSH1 0x0 KECCAK256 SWAP1 JUMPDEST DUP2 SLOAD DUP2 MSTORE SWAP1 PUSH1 0x1 ADD SWAP1 PUSH1 0x20 ADD DUP1 DUP4 GT PUSH2 0xB1D JUMPI DUP3 SWAP1 SUB PUSH1 0x1F AND DUP3 ADD SWAP2 JUMPDEST POP POP POP POP POP DUP2 JUMP JUMPDEST PUSH1 0x14 DUP2 DUP2 SLOAD DUP2 LT PUSH2 0xB52 JUMPI PUSH1 0x0 DUP1 REVERT JUMPDEST PUSH1 0x0 SWAP2 DUP3 MSTORE PUSH1 0x20 SWAP1 SWAP2 KECCAK256 ADD SLOAD SWAP1 POP DUP2 JUMP JUMPDEST PUSH1 0x60 PUSH1 0x6 DUP1 SLOAD PUSH2 0xB72 SWAP1 PUSH2 0x42FF JUMP JUMPDEST DUP1 PUSH1 0x1F ADD PUSH1 0x20 DUP1 SWAP2 DIV MUL PUSH1 0x20 ADD PUSH1 0x40 MLOAD SWAP1 DUP2 ADD PUSH1 0x40 MSTORE DUP1 SWAP3 SWAP2 SWAP1 DUP2 DUP2 MSTORE PUSH1 0x20 ADD DUP3 DUP1 SLOAD PUSH2 0xB9E SWAP1 PUSH2 0x42FF JUMP JUMPDEST DUP1 ISZERO PUSH2 0xBEB JUMPI DUP1 PUSH1 0x1F LT PUSH2 0xBC0 JUMPI PUSH2 0x100 DUP1 DUP4 SLOAD DIV MUL DUP4 MSTORE SWAP2 PUSH1 0x20 ADD SWAP2 PUSH2 0xBEB JUMP JUMPDEST DUP3 ADD SWAP2 SWAP1 PUSH1 0x0 MSTORE PUSH1 0x20 PUSH1 0x0 KECCAK256 SWAP1 JUMPDEST DUP2 SLOAD DUP2 MSTORE SWAP1 PUSH1 0x1 ADD SWAP1 PUSH1 0x20 ADD DUP1 DUP4 GT PUSH2 0xBCE JUMPI DUP3 SWAP1 SUB PUSH1 0x1F AND DUP3 ADD SWAP2 JUMPDEST POP POP POP POP POP SWAP1 POP SWAP2 SWAP1 POP JUMP JUMPDEST PUSH1 0x8 SLOAD PUSH1 0x1 PUSH1 0x1 PUSH1 0xA0 SHL SUB AND CALLER EQ PUSH2 0xC3F JUMPI PUSH1 0x40 MLOAD PUSH3 0x461BCD PUSH1 0xE5 SHL DUP2 MSTORE PUSH1 0x20 PUSH1 0x4 DUP3 ADD DUP2 SWAP1 MSTORE PUSH1 0x24 DUP3 ADD MSTORE PUSH1 0x0 DUP1 MLOAD PUSH1 0x20 PUSH2 0x44C1 DUP4 CODECOPY DUP2 MLOAD SWAP2 MSTORE PUSH1 0x44 DUP3 ADD MSTORE PUSH1 0x64 ADD PUSH2 0xA2C JUMP JUMPDEST PUSH2 0xC5C DUP4 DUP4 DUP4 PUSH1 0x1 PUSH1 0x40 MLOAD DUP1 PUSH1 0x20 ADD PUSH1 0x40 MSTORE DUP1 PUSH1 0x0 DUP2 MSTORE POP PUSH2 0x20B3 JUMP JUMPDEST POP POP POP JUMP JUMPDEST PUSH1 0x13 SLOAD PUSH1 0x1 PUSH1 0x1 PUSH1 0xA0 SHL SUB AND PUSH2 0xCB9 JUMPI PUSH1 0x40 MLOAD PUSH3 0x461BCD PUSH1 0xE5 SHL DUP2 MSTORE PUSH1 0x20 PUSH1 0x4 DUP3 ADD MSTORE PUSH1 0x1A PUSH1 0x24 DUP3 ADD MSTORE PUSH32 0x6D697261636C65206475737420746F6B656E206E6F7420736574000000000000 PUSH1 0x44 DUP3 ADD MSTORE PUSH1 0x64 ADD PUSH2 0xA2C JUMP JUMPDEST PUSH1 0x0 DUP2 GT PUSH2 0xD18 JUMPI PUSH1 0x40 MLOAD PUSH3 0x461BCD PUSH1 0xE5 SHL DUP2 MSTORE PUSH1 0x20 PUSH1 0x4 DUP3 ADD MSTORE PUSH1 0x26 PUSH1 0x24 DUP3 ADD MSTORE PUSH32 0x526563686172676520616D6F756E74206D757374206265206772656174657220 PUSH1 0x44 DUP3 ADD MSTORE PUSH6 0x7468616E203 PUSH1 0xD4 SHL PUSH1 0x64 DUP3 ADD MSTORE PUSH1 0x84 ADD PUSH2 0xA2C JUMP JUMPDEST PUSH1 0x0 DUP1 PUSH1 0x0 DUP1 PUSH1 0x0 DUP1 PUSH2 0xD2A DUP9 PUSH2 0x1F9A JUMP JUMPDEST POP PUSH1 0x13 SLOAD PUSH1 0x40 MLOAD PUSH4 0x36409CB7 PUSH1 0xE1 SHL DUP2 MSTORE CALLER PUSH1 0x4 DUP3 ADD MSTORE PUSH1 0x24 DUP2 ADD DUP16 SWAP1 MSTORE SWAP7 SWAP13 POP SWAP5 SWAP11 POP SWAP3 SWAP9 POP SWAP1 SWAP7 POP SWAP5 POP SWAP3 POP PUSH1 0x1 PUSH1 0x1 PUSH1 0xA0 SHL SUB AND SWAP1 PUSH4 0x6C81396E SWAP1 PUSH1 0x44 ADD PUSH1 0x0 PUSH1 0x40 MLOAD DUP1 DUP4 SUB DUP2 PUSH1 0x0 DUP8 DUP1 EXTCODESIZE ISZERO DUP1 ISZERO PUSH2 0xD85 JUMPI PUSH1 0x0 DUP1 REVERT JUMPDEST POP GAS CALL ISZERO DUP1 ISZERO PUSH2 0xD99 JUMPI RETURNDATASIZE PUSH1 0x0 DUP1 RETURNDATACOPY RETURNDATASIZE PUSH1 0x0 REVERT JUMPDEST POP POP POP POP PUSH1 0x0 DUP8 DUP6 PUSH2 0xDAB SWAP2 SWAP1 PUSH2 0x429D JUMP JUMPDEST SWAP1 POP PUSH2 0xDBB DUP8 DUP8 DUP4 DUP8 DUP8 DUP8 PUSH2 0x2099 JUMP JUMPDEST POP POP POP POP POP POP POP POP POP JUMP JUMPDEST CALLER PUSH1 0x0 SWAP1 DUP2 MSTORE PUSH1 0x5 PUSH1 0x20 MSTORE PUSH1 0x40 SWAP1 KECCAK256 SLOAD PUSH1 0xFF AND PUSH2 0xE30 JUMPI PUSH1 0x40 MLOAD PUSH3 0x461BCD PUSH1 0xE5 SHL DUP2 MSTORE PUSH1 0x20 PUSH1 0x4 DUP3 ADD MSTORE PUSH1 0x22 PUSH1 0x24 DUP3 ADD MSTORE PUSH32 0x54686973206D6574686F64206D7573742063616C6C6564206279207472757374 PUSH1 0x44 DUP3 ADD MSTORE PUSH2 0x1959 PUSH1 0xF2 SHL PUSH1 0x64 DUP3 ADD MSTORE PUSH1 0x84 ADD PUSH2 0xA2C JUMP JUMPDEST DUP1 MLOAD PUSH2 0xE43 SWAP1 PUSH1 0x14 SWAP1 PUSH1 0x20 DUP5 ADD SWAP1 PUSH2 0x37DC JUMP JUMPDEST POP POP JUMP JUMPDEST DUP2 MLOAD DUP4 MLOAD EQ PUSH2 0xEA9 JUMPI PUSH1 0x40 MLOAD PUSH3 0x461BCD PUSH1 0xE5 SHL DUP2 MSTORE PUSH1 0x20 PUSH1 0x4 DUP3 ADD MSTORE PUSH1 0x28 PUSH1 0x24 DUP3 ADD MSTORE PUSH32 0x455243313135353A2069647320616E6420616D6F756E7473206C656E67746820 PUSH1 0x44 DUP3 ADD MSTORE PUSH8 0xDAD2E6DAC2E8C6D PUSH1 0xC3 SHL PUSH1 0x64 DUP3 ADD MSTORE PUSH1 0x84 ADD PUSH2 0xA2C JUMP JUMPDEST PUSH1 0x1 PUSH1 0x1 PUSH1 0xA0 SHL SUB DUP5 AND PUSH2 0xF0D JUMPI PUSH1 0x40 MLOAD PUSH3 0x461BCD PUSH1 0xE5 SHL DUP2 MSTORE PUSH1 0x20 PUSH1 0x4 DUP3 ADD MSTORE PUSH1 0x25 PUSH1 0x24 DUP3 ADD MSTORE PUSH32 0x455243313135353A207472616E7366657220746F20746865207A65726F206164 PUSH1 0x44 DUP3 ADD MSTORE PUSH5 0x6472657373 PUSH1 0xD8 SHL PUSH1 0x64 DUP3 ADD MSTORE PUSH1 0x84 ADD PUSH2 0xA2C JUMP JUMPDEST PUSH1 0x1 PUSH1 0x1 PUSH1 0xA0 SHL SUB DUP6 AND CALLER EQ DUP1 PUSH2 0xF29 JUMPI POP PUSH2 0xF29 DUP6 CALLER PUSH2 0x8F6 JUMP JUMPDEST PUSH2 0xF9B JUMPI PUSH1 0x40 MLOAD PUSH3 0x461BCD PUSH1 0xE5 SHL DUP2 MSTORE PUSH1 0x20 PUSH1 0x4 DUP3 ADD MSTORE PUSH1 0x32 PUSH1 0x24 DUP3 ADD MSTORE PUSH32 0x455243313135353A207472616E736665722063616C6C6572206973206E6F7420 PUSH1 0x44 DUP3 ADD MSTORE PUSH32 0x6F776E6572206E6F7220617070726F7665640000000000000000000000000000 PUSH1 0x64 DUP3 ADD MSTORE PUSH1 0x84 ADD PUSH2 0xA2C JUMP JUMPDEST CALLER PUSH1 0x0 JUMPDEST DUP5 MLOAD DUP2 LT ISZERO PUSH2 0x10FE JUMPI PUSH1 0x0 DUP6 DUP3 DUP2 MLOAD DUP2 LT PUSH2 0xFBC JUMPI PUSH2 0xFBC PUSH2 0x43D8 JUMP JUMPDEST PUSH1 0x20 MUL PUSH1 0x20 ADD ADD MLOAD SWAP1 POP PUSH1 0x0 DUP6 DUP4 DUP2 MLOAD DUP2 LT PUSH2 0xFDA JUMPI PUSH2 0xFDA PUSH2 0x43D8 JUMP JUMPDEST PUSH1 0x20 MUL PUSH1 0x20 ADD ADD MLOAD SWAP1 POP PUSH2 0x1047 DUP2 PUSH1 0x40 MLOAD DUP1 PUSH1 0x60 ADD PUSH1 0x40 MSTORE DUP1 PUSH1 0x2A DUP2 MSTORE PUSH1 0x20 ADD PUSH2 0x44E1 PUSH1 0x2A SWAP2 CODECOPY PUSH1 0x3 PUSH1 0x0 DUP7 DUP2 MSTORE PUSH1 0x20 ADD SWAP1 DUP2 MSTORE PUSH1 0x20 ADD PUSH1 0x0 KECCAK256 PUSH1 0x0 DUP14 PUSH1 0x1 PUSH1 0x1 PUSH1 0xA0 SHL SUB AND PUSH1 0x1 PUSH1 0x1 PUSH1 0xA0 SHL SUB AND DUP2 MSTORE PUSH1 0x20 ADD SWAP1 DUP2 MSTORE PUSH1 0x20 ADD PUSH1 0x0 KECCAK256 SLOAD PUSH2 0x25C0 SWAP1 SWAP3 SWAP2 SWAP1 PUSH4 0xFFFFFFFF AND JUMP JUMPDEST PUSH1 0x0 DUP4 DUP2 MSTORE PUSH1 0x3 PUSH1 0x20 SWAP1 DUP2 MSTORE PUSH1 0x40 DUP1 DUP4 KECCAK256 PUSH1 0x1 PUSH1 0x1 PUSH1 0xA0 SHL SUB DUP15 DUP2 AND DUP6 MSTORE SWAP3 MSTORE DUP1 DUP4 KECCAK256 SWAP4 SWAP1 SWAP4 SSTORE DUP11 AND DUP2 MSTORE KECCAK256 SLOAD PUSH2 0x107E SWAP1 DUP3 PUSH2 0x25F1 JUMP JUMPDEST PUSH1 0x0 DUP4 DUP2 MSTORE PUSH1 0x3 PUSH1 0x20 SWAP1 DUP2 MSTORE PUSH1 0x40 DUP1 DUP4 KECCAK256 PUSH1 0x1 PUSH1 0x1 PUSH1 0xA0 SHL SUB DUP1 DUP15 AND DUP6 MSTORE SWAP1 DUP4 MSTORE DUP2 DUP5 KECCAK256 SWAP5 SWAP1 SWAP5 SSTORE SWAP3 DUP13 AND DUP3 MSTORE PUSH1 0x2 SWAP1 MSTORE KECCAK256 PUSH2 0x10BA SWAP1 DUP4 PUSH2 0x25FD JUMP JUMPDEST POP PUSH1 0x1 PUSH1 0x1 PUSH1 0xA0 SHL SUB DUP9 AND PUSH1 0x0 SWAP1 DUP2 MSTORE PUSH1 0x2 PUSH1 0x20 MSTORE PUSH1 0x40 SWAP1 KECCAK256 PUSH2 0x10DD SWAP1 DUP4 PUSH2 0x2609 JUMP JUMPDEST POP PUSH2 0x10EA PUSH1 0x0 DUP4 DUP11 PUSH2 0x2615 JUMP JUMPDEST POP POP POP DUP1 PUSH2 0x10F7 SWAP1 PUSH2 0x4367 JUMP JUMPDEST SWAP1 POP PUSH2 0xF9F JUMP JUMPDEST POP DUP5 PUSH1 0x1 PUSH1 0x1 PUSH1 0xA0 SHL SUB AND DUP7 PUSH1 0x1 PUSH1 0x1 PUSH1 0xA0 SHL SUB AND DUP3 PUSH1 0x1 PUSH1 0x1 PUSH1 0xA0 SHL SUB AND PUSH32 0x4A39DC06D4C0DBC64B70AF90FD698A233A518AA5D07E595D983B8C0526C8F7FB DUP8 DUP8 PUSH1 0x40 MLOAD PUSH2 0x114E SWAP3 SWAP2 SWAP1 PUSH2 0x41CF JUMP JUMPDEST PUSH1 0x40 MLOAD DUP1 SWAP2 SUB SWAP1 LOG4 PUSH2 0x1164 DUP2 DUP8 DUP8 DUP8 DUP8 DUP8 PUSH2 0x262A JUMP JUMPDEST POP POP POP POP POP POP JUMP JUMPDEST CALLER PUSH1 0x0 SWAP1 DUP2 MSTORE PUSH1 0x5 PUSH1 0x20 MSTORE PUSH1 0x40 SWAP1 KECCAK256 SLOAD PUSH1 0xFF AND PUSH2 0x11D6 JUMPI PUSH1 0x40 MLOAD PUSH3 0x461BCD PUSH1 0xE5 SHL DUP2 MSTORE PUSH1 0x20 PUSH1 0x4 DUP3 ADD MSTORE PUSH1 0x22 PUSH1 0x24 DUP3 ADD MSTORE PUSH32 0x54686973206D6574686F64206D7573742063616C6C6564206279207472757374 PUSH1 0x44 DUP3 ADD MSTORE PUSH2 0x1959 PUSH1 0xF2 SHL PUSH1 0x64 DUP3 ADD MSTORE PUSH1 0x84 ADD PUSH2 0xA2C JUMP JUMPDEST PUSH1 0x17 SSTORE JUMP JUMPDEST PUSH1 0x11 SLOAD CALLVALUE LT ISZERO PUSH2 0x121F JUMPI PUSH1 0x40 MLOAD PUSH3 0x461BCD PUSH1 0xE5 SHL DUP2 MSTORE PUSH1 0x20 PUSH1 0x4 DUP3 ADD MSTORE PUSH1 0xF PUSH1 0x24 DUP3 ADD MSTORE PUSH15 0x6E6F20656E6F756768206D6F6E6579 PUSH1 0x88 SHL PUSH1 0x44 DUP3 ADD MSTORE PUSH1 0x64 ADD PUSH2 0xA2C JUMP JUMPDEST PUSH1 0xA SLOAD PUSH1 0x40 MLOAD PUSH1 0x1 PUSH1 0x1 PUSH1 0xA0 SHL SUB SWAP1 SWAP2 AND SWAP1 CALLVALUE DUP1 ISZERO PUSH2 0x8FC MUL SWAP2 PUSH1 0x0 DUP2 DUP2 DUP2 DUP6 DUP9 DUP9 CALL SWAP4 POP POP POP POP ISZERO DUP1 ISZERO PUSH2 0x1258 JUMPI RETURNDATASIZE PUSH1 0x0 DUP1 RETURNDATACOPY RETURNDATASIZE PUSH1 0x0 REVERT JUMPDEST POP PUSH1 0x0 PUSH2 0x1263 PUSH2 0x27DF JUMP JUMPDEST PUSH1 0x40 DUP1 MLOAD PUSH1 0x3 DUP1 DUP3 MSTORE PUSH1 0x80 DUP3 ADD SWAP1 SWAP3 MSTORE SWAP2 SWAP3 POP PUSH1 0x0 SWAP2 SWAP1 PUSH1 0x20 DUP3 ADD PUSH1 0x60 DUP1 CALLDATASIZE DUP4 CALLDATACOPY ADD SWAP1 POP POP SWAP1 POP DUP5 DUP2 PUSH1 0x0 DUP2 MLOAD DUP2 LT PUSH2 0x129E JUMPI PUSH2 0x129E PUSH2 0x43D8 JUMP JUMPDEST PUSH1 0x20 SWAP1 DUP2 MUL SWAP2 SWAP1 SWAP2 ADD ADD MSTORE DUP4 MLOAD ISZERO PUSH2 0x12CD JUMPI PUSH2 0x12C8 CALLER DUP4 DUP4 PUSH2 0x12BF DUP9 PUSH2 0x27F6 JUMP JUMPDEST DUP8 PUSH1 0x15 SLOAD PUSH2 0x2951 JUMP JUMPDEST PUSH2 0x132C JUMP JUMPDEST PUSH2 0x132C CALLER DUP4 DUP4 PUSH2 0x12BF PUSH1 0xD DUP1 SLOAD DUP1 PUSH1 0x20 MUL PUSH1 0x20 ADD PUSH1 0x40 MLOAD SWAP1 DUP2 ADD PUSH1 0x40 MSTORE DUP1 SWAP3 SWAP2 SWAP1 DUP2 DUP2 MSTORE PUSH1 0x20 ADD DUP3 DUP1 SLOAD DUP1 ISZERO PUSH2 0x1322 JUMPI PUSH1 0x20 MUL DUP3 ADD SWAP2 SWAP1 PUSH1 0x0 MSTORE PUSH1 0x20 PUSH1 0x0 KECCAK256 SWAP1 JUMPDEST DUP2 SLOAD DUP2 MSTORE PUSH1 0x20 ADD SWAP1 PUSH1 0x1 ADD SWAP1 DUP1 DUP4 GT PUSH2 0x130E JUMPI JUMPDEST POP POP POP POP POP PUSH2 0x27F6 JUMP JUMPDEST PUSH1 0x40 MLOAD DUP3 DUP2 MSTORE CALLER SWAP1 PUSH32 0xF9C4DDFFD4AEF856C95622E875F2337D049085A3D12C8095C51ECA343A9A1FE3 SWAP1 PUSH1 0x20 ADD PUSH1 0x40 MLOAD DUP1 SWAP2 SUB SWAP1 LOG2 POP POP POP POP POP JUMP JUMPDEST PUSH1 0x13 SLOAD PUSH1 0x1 PUSH1 0x1 PUSH1 0xA0 SHL SUB AND PUSH2 0x13C0 JUMPI PUSH1 0x40 MLOAD PUSH3 0x461BCD PUSH1 0xE5 SHL DUP2 MSTORE PUSH1 0x20 PUSH1 0x4 DUP3 ADD MSTORE PUSH1 0x1A PUSH1 0x24 DUP3 ADD MSTORE PUSH32 0x6D697261636C65206475737420746F6B656E206E6F7420736574000000000000 PUSH1 0x44 DUP3 ADD MSTORE PUSH1 0x64 ADD PUSH2 0xA2C JUMP JUMPDEST PUSH1 0x0 DUP1 JUMPDEST DUP3 MLOAD DUP2 LT ISZERO PUSH2 0x1528 JUMPI PUSH1 0x0 DUP1 PUSH1 0x0 DUP1 PUSH1 0x0 DUP1 PUSH1 0x0 PUSH2 0x13FA DUP11 DUP10 DUP2 MLOAD DUP2 LT PUSH2 0x13ED JUMPI PUSH2 0x13ED PUSH2 0x43D8 JUMP JUMPDEST PUSH1 0x20 MUL PUSH1 0x20 ADD ADD MLOAD PUSH2 0x1F9A JUMP JUMPDEST SWAP7 POP SWAP7 POP SWAP7 POP SWAP7 POP SWAP7 POP SWAP7 POP SWAP7 POP CALLER PUSH1 0x1 PUSH1 0x1 PUSH1 0xA0 SHL SUB AND DUP2 PUSH1 0x1 PUSH1 0x1 PUSH1 0xA0 SHL SUB AND EQ PUSH2 0x1469 JUMPI PUSH1 0x40 MLOAD PUSH3 0x461BCD PUSH1 0xE5 SHL DUP2 MSTORE PUSH1 0x20 PUSH1 0x4 DUP3 ADD MSTORE PUSH1 0x18 PUSH1 0x24 DUP3 ADD MSTORE PUSH32 0x496E73756666696369656E74207065726D697373696F6E730000000000000000 PUSH1 0x44 DUP3 ADD MSTORE PUSH1 0x64 ADD PUSH2 0xA2C JUMP JUMPDEST PUSH1 0xF SLOAD PUSH2 0x1476 SWAP1 DUP8 PUSH2 0x42C9 JUMP JUMPDEST DUP6 LT ISZERO PUSH2 0x14BA JUMPI PUSH1 0x40 MLOAD PUSH3 0x461BCD PUSH1 0xE5 SHL DUP2 MSTORE PUSH1 0x20 PUSH1 0x4 DUP3 ADD MSTORE PUSH1 0x12 PUSH1 0x24 DUP3 ADD MSTORE PUSH18 0x4E6F7420656E6F756768206E756D62657273 PUSH1 0x70 SHL PUSH1 0x44 DUP3 ADD MSTORE PUSH1 0x64 ADD PUSH2 0xA2C JUMP JUMPDEST PUSH1 0x0 PUSH1 0xF SLOAD DUP8 PUSH2 0x14CA SWAP2 SWAP1 PUSH2 0x42C9 JUMP JUMPDEST PUSH2 0x14D4 SWAP1 DUP8 PUSH2 0x42E8 JUMP JUMPDEST SWAP1 POP PUSH1 0x64 PUSH1 0x10 SLOAD PUSH1 0xF SLOAD DUP10 PUSH2 0x14E9 SWAP2 SWAP1 PUSH2 0x42C9 JUMP JUMPDEST PUSH2 0x14F3 SWAP2 SWAP1 PUSH2 0x42C9 JUMP JUMPDEST PUSH2 0x14FD SWAP2 SWAP1 PUSH2 0x42B5 JUMP JUMPDEST SWAP10 POP PUSH2 0x150D DUP9 DUP9 DUP4 DUP9 DUP9 DUP9 PUSH2 0x2099 JUMP JUMPDEST POP POP POP POP POP POP POP POP DUP1 DUP1 PUSH2 0x1520 SWAP1 PUSH2 0x4367 JUMP JUMPDEST SWAP2 POP POP PUSH2 0x13C4 JUMP JUMPDEST POP DUP1 ISZERO PUSH2 0xE43 JUMPI PUSH1 0x13 SLOAD PUSH1 0x40 MLOAD PUSH4 0x6C22E3F9 PUSH1 0xE0 SHL DUP2 MSTORE CALLER PUSH1 0x4 DUP3 ADD MSTORE PUSH1 0x24 DUP2 ADD DUP4 SWAP1 MSTORE PUSH1 0x1 PUSH1 0x1 PUSH1 0xA0 SHL SUB SWAP1 SWAP2 AND SWAP1 PUSH4 0x6C22E3F9 SWAP1 PUSH1 0x44 ADD PUSH1 0x0 PUSH1 0x40 MLOAD DUP1 DUP4 SUB DUP2 PUSH1 0x0 DUP8 DUP1 EXTCODESIZE ISZERO DUP1 ISZERO PUSH2 0x157B JUMPI PUSH1 0x0 DUP1 REVERT JUMPDEST POP GAS CALL ISZERO DUP1 ISZERO PUSH2 0x1164 JUMPI RETURNDATASIZE PUSH1 0x0 DUP1 RETURNDATACOPY RETURNDATASIZE PUSH1 0x0 REVERT JUMPDEST PUSH1 0x60 DUP2 MLOAD DUP4 MLOAD EQ PUSH2 0x15F4 JUMPI PUSH1 0x40 MLOAD PUSH3 0x461BCD PUSH1 0xE5 SHL DUP2 MSTORE PUSH1 0x20 PUSH1 0x4 DUP3 ADD MSTORE PUSH1 0x29 PUSH1 0x24 DUP3 ADD MSTORE PUSH32 0x455243313135353A206163636F756E747320616E6420696473206C656E677468 PUSH1 0x44 DUP3 ADD MSTORE PUSH9 0x40DAD2E6DAC2E8C6D PUSH1 0xBB SHL PUSH1 0x64 DUP3 ADD MSTORE PUSH1 0x84 ADD PUSH2 0xA2C JUMP JUMPDEST PUSH1 0x0 DUP4 MLOAD PUSH8 0xFFFFFFFFFFFFFFFF DUP2 GT ISZERO PUSH2 0x1610 JUMPI PUSH2 0x1610 PUSH2 0x43EE JUMP JUMPDEST PUSH1 0x40 MLOAD SWAP1 DUP1 DUP3 MSTORE DUP1 PUSH1 0x20 MUL PUSH1 0x20 ADD DUP3 ADD PUSH1 0x40 MSTORE DUP1 ISZERO PUSH2 0x1639 JUMPI DUP2 PUSH1 0x20 ADD PUSH1 0x20 DUP3 MUL DUP1 CALLDATASIZE DUP4 CALLDATACOPY ADD SWAP1 POP JUMPDEST POP SWAP1 POP PUSH1 0x0 JUMPDEST DUP5 MLOAD DUP2 LT ISZERO PUSH2 0x1780 JUMPI PUSH1 0x0 PUSH1 0x1 PUSH1 0x1 PUSH1 0xA0 SHL SUB AND DUP6 DUP3 DUP2 MLOAD DUP2 LT PUSH2 0x1665 JUMPI PUSH2 0x1665 PUSH2 0x43D8 JUMP JUMPDEST PUSH1 0x20 MUL PUSH1 0x20 ADD ADD MLOAD PUSH1 0x1 PUSH1 0x1 PUSH1 0xA0 SHL SUB AND EQ ISZERO PUSH2 0x16EA JUMPI PUSH1 0x40 MLOAD PUSH3 0x461BCD PUSH1 0xE5 SHL DUP2 MSTORE PUSH1 0x20 PUSH1 0x4 DUP3 ADD MSTORE PUSH1 0x31 PUSH1 0x24 DUP3 ADD MSTORE PUSH32 0x455243313135353A2062617463682062616C616E636520717565727920666F72 PUSH1 0x44 DUP3 ADD MSTORE PUSH32 0x20746865207A65726F2061646472657373000000000000000000000000000000 PUSH1 0x64 DUP3 ADD MSTORE PUSH1 0x84 ADD PUSH2 0xA2C JUMP JUMPDEST PUSH1 0x3 PUSH1 0x0 DUP6 DUP4 DUP2 MLOAD DUP2 LT PUSH2 0x1700 JUMPI PUSH2 0x1700 PUSH2 0x43D8 JUMP JUMPDEST PUSH1 0x20 MUL PUSH1 0x20 ADD ADD MLOAD DUP2 MSTORE PUSH1 0x20 ADD SWAP1 DUP2 MSTORE PUSH1 0x20 ADD PUSH1 0x0 KECCAK256 PUSH1 0x0 DUP7 DUP4 DUP2 MLOAD DUP2 LT PUSH2 0x172A JUMPI PUSH2 0x172A PUSH2 0x43D8 JUMP JUMPDEST PUSH1 0x20 MUL PUSH1 0x20 ADD ADD MLOAD PUSH1 0x1 PUSH1 0x1 PUSH1 0xA0 SHL SUB AND PUSH1 0x1 PUSH1 0x1 PUSH1 0xA0 SHL SUB AND DUP2 MSTORE PUSH1 0x20 ADD SWAP1 DUP2 MSTORE PUSH1 0x20 ADD PUSH1 0x0 KECCAK256 SLOAD DUP3 DUP3 DUP2 MLOAD DUP2 LT PUSH2 0x1765 JUMPI PUSH2 0x1765 PUSH2 0x43D8 JUMP JUMPDEST PUSH1 0x20 SWAP1 DUP2 MUL SWAP2 SWAP1 SWAP2 ADD ADD MSTORE PUSH2 0x1779 DUP2 PUSH2 0x4367 JUMP JUMPDEST SWAP1 POP PUSH2 0x163F JUMP JUMPDEST POP SWAP4 SWAP3 POP POP POP JUMP JUMPDEST PUSH1 0x0 PUSH2 0xA5A DUP3 PUSH2 0x2AD7 JUMP JUMPDEST PUSH1 0x8 SLOAD PUSH1 0x1 PUSH1 0x1 PUSH1 0xA0 SHL SUB AND CALLER EQ PUSH2 0x17DB JUMPI PUSH1 0x40 MLOAD PUSH3 0x461BCD PUSH1 0xE5 SHL DUP2 MSTORE PUSH1 0x20 PUSH1 0x4 DUP3 ADD DUP2 SWAP1 MSTORE PUSH1 0x24 DUP3 ADD MSTORE PUSH1 0x0 DUP1 MLOAD PUSH1 0x20 PUSH2 0x44C1 DUP4 CODECOPY DUP2 MLOAD SWAP2 MSTORE PUSH1 0x44 DUP3 ADD MSTORE PUSH1 0x64 ADD PUSH2 0xA2C JUMP JUMPDEST DUP1 MLOAD PUSH2 0xE43 SWAP1 PUSH1 0xD SWAP1 PUSH1 0x20 DUP5 ADD SWAP1 PUSH2 0x37DC JUMP JUMPDEST PUSH1 0x0 PUSH2 0xA5A DUP3 PUSH2 0x2AFF JUMP JUMPDEST PUSH1 0xD DUP2 DUP2 SLOAD DUP2 LT PUSH2 0xB52 JUMPI PUSH1 0x0 DUP1 REVERT JUMPDEST PUSH1 0x12 SLOAD CALLVALUE LT ISZERO PUSH2 0x184D JUMPI PUSH1 0x40 MLOAD PUSH3 0x461BCD PUSH1 0xE5 SHL DUP2 MSTORE PUSH1 0x20 PUSH1 0x4 DUP3 ADD MSTORE PUSH1 0xF PUSH1 0x24 DUP3 ADD MSTORE PUSH15 0x6E6F20656E6F756768206D6F6E6579 PUSH1 0x88 SHL PUSH1 0x44 DUP3 ADD MSTORE PUSH1 0x64 ADD PUSH2 0xA2C JUMP JUMPDEST PUSH1 0xA SLOAD PUSH1 0x40 MLOAD PUSH1 0x1 PUSH1 0x1 PUSH1 0xA0 SHL SUB SWAP1 SWAP2 AND SWAP1 CALLVALUE DUP1 ISZERO PUSH2 0x8FC MUL SWAP2 PUSH1 0x0 DUP2 DUP2 DUP2 DUP6 DUP9 DUP9 CALL SWAP4 POP POP POP POP ISZERO DUP1 ISZERO PUSH2 0xAB1 JUMPI RETURNDATASIZE PUSH1 0x0 DUP1 RETURNDATACOPY RETURNDATASIZE PUSH1 0x0 REVERT JUMPDEST PUSH1 0x1 PUSH1 0x1 PUSH1 0xA0 SHL SUB DUP2 AND PUSH1 0x0 SWAP1 DUP2 MSTORE PUSH1 0x5 PUSH1 0x20 MSTORE PUSH1 0x40 SWAP1 KECCAK256 SLOAD PUSH1 0xFF AND PUSH2 0x1914 JUMPI PUSH1 0x40 MLOAD PUSH3 0x461BCD PUSH1 0xE5 SHL DUP2 MSTORE PUSH1 0x20 PUSH1 0x4 DUP3 ADD MSTORE PUSH1 0x31 PUSH1 0x24 DUP3 ADD MSTORE PUSH32 0x5468652064657374696E6174696F6E2061646472657373206D75737420626520 PUSH1 0x44 DUP3 ADD MSTORE PUSH32 0x6120747275737465642061646472657373000000000000000000000000000000 PUSH1 0x64 DUP3 ADD MSTORE PUSH1 0x84 ADD PUSH2 0xA2C JUMP JUMPDEST DUP2 MLOAD DUP4 MLOAD EQ PUSH2 0x1965 JUMPI PUSH1 0x40 MLOAD PUSH3 0x461BCD PUSH1 0xE5 SHL DUP2 MSTORE PUSH1 0x20 PUSH1 0x4 DUP3 ADD MSTORE PUSH1 0x14 PUSH1 0x24 DUP3 ADD MSTORE PUSH32 0x6C656E677468206D75737420626520657175616C000000000000000000000000 PUSH1 0x44 DUP3 ADD MSTORE PUSH1 0x64 ADD PUSH2 0xA2C JUMP JUMPDEST PUSH1 0x0 DUP1 JUMPDEST DUP5 MLOAD DUP2 LT ISZERO PUSH2 0x1AD7 JUMPI PUSH1 0x0 DUP1 PUSH1 0x0 DUP1 PUSH1 0x0 DUP1 PUSH1 0x0 PUSH2 0x1992 DUP13 DUP10 DUP2 MLOAD DUP2 LT PUSH2 0x13ED JUMPI PUSH2 0x13ED PUSH2 0x43D8 JUMP JUMPDEST SWAP7 POP SWAP7 POP SWAP7 POP SWAP7 POP SWAP7 POP SWAP7 POP SWAP7 POP CALLER PUSH1 0x1 PUSH1 0x1 PUSH1 0xA0 SHL SUB AND DUP2 PUSH1 0x1 PUSH1 0x1 PUSH1 0xA0 SHL SUB AND EQ PUSH2 0x1A01 JUMPI PUSH1 0x40 MLOAD PUSH3 0x461BCD PUSH1 0xE5 SHL DUP2 MSTORE PUSH1 0x20 PUSH1 0x4 DUP3 ADD MSTORE PUSH1 0x18 PUSH1 0x24 DUP3 ADD MSTORE PUSH32 0x496E73756666696369656E74207065726D697373696F6E730000000000000000 PUSH1 0x44 DUP3 ADD MSTORE PUSH1 0x64 ADD PUSH2 0xA2C JUMP JUMPDEST DUP11 DUP9 DUP2 MLOAD DUP2 LT PUSH2 0x1A13 JUMPI PUSH2 0x1A13 PUSH2 0x43D8 JUMP JUMPDEST PUSH1 0x20 MUL PUSH1 0x20 ADD ADD MLOAD DUP6 GT PUSH2 0x1A5E JUMPI PUSH1 0x40 MLOAD PUSH3 0x461BCD PUSH1 0xE5 SHL DUP2 MSTORE PUSH1 0x20 PUSH1 0x4 DUP3 ADD MSTORE PUSH1 0x12 PUSH1 0x24 DUP3 ADD MSTORE PUSH18 0x4E6F7420656E6F756768206E756D62657273 PUSH1 0x70 SHL PUSH1 0x44 DUP3 ADD MSTORE PUSH1 0x64 ADD PUSH2 0xA2C JUMP JUMPDEST DUP11 DUP9 DUP2 MLOAD DUP2 LT PUSH2 0x1A70 JUMPI PUSH2 0x1A70 PUSH2 0x43D8 JUMP JUMPDEST PUSH1 0x20 MUL PUSH1 0x20 ADD ADD MLOAD DUP10 PUSH2 0x1A83 SWAP2 SWAP1 PUSH2 0x429D JUMP JUMPDEST SWAP9 POP PUSH1 0x0 DUP12 DUP10 DUP2 MLOAD DUP2 LT PUSH2 0x1A99 JUMPI PUSH2 0x1A99 PUSH2 0x43D8 JUMP JUMPDEST PUSH1 0x20 MUL PUSH1 0x20 ADD ADD MLOAD DUP7 PUSH2 0x1AAC SWAP2 SWAP1 PUSH2 0x42E8 JUMP JUMPDEST SWAP1 POP PUSH2 0x1ABC DUP9 DUP9 DUP4 DUP9 DUP9 DUP9 PUSH2 0x2099 JUMP JUMPDEST POP POP POP POP POP POP POP POP DUP1 DUP1 PUSH2 0x1ACF SWAP1 PUSH2 0x4367 JUMP JUMPDEST SWAP2 POP POP PUSH2 0x1969 JUMP JUMPDEST POP PUSH1 0x0 DUP2 GT PUSH2 0x1B3B JUMPI PUSH1 0x40 MLOAD PUSH3 0x461BCD PUSH1 0xE5 SHL DUP2 MSTORE PUSH1 0x20 PUSH1 0x4 DUP3 ADD MSTORE PUSH1 0x2A PUSH1 0x24 DUP3 ADD MSTORE PUSH32 0x6C6F636B2076616C7565205175616E74697479206D7573742062652067726561 PUSH1 0x44 DUP3 ADD MSTORE PUSH10 0x746572207468616E203 PUSH1 0xB4 SHL PUSH1 0x64 DUP3 ADD MSTORE PUSH1 0x84 ADD PUSH2 0xA2C JUMP JUMPDEST PUSH1 0x13 SLOAD PUSH1 0x40 MLOAD PUSH4 0x6C22E3F9 PUSH1 0xE0 SHL DUP2 MSTORE PUSH1 0x1 PUSH1 0x1 PUSH1 0xA0 SHL SUB DUP5 DUP2 AND PUSH1 0x4 DUP4 ADD MSTORE PUSH1 0x24 DUP3 ADD DUP5 SWAP1 MSTORE SWAP1 SWAP2 AND SWAP1 PUSH4 0x6C22E3F9 SWAP1 PUSH1 0x44 ADD PUSH1 0x0 PUSH1 0x40 MLOAD DUP1 DUP4 SUB DUP2 PUSH1 0x0 DUP8 DUP1 EXTCODESIZE ISZERO DUP1 ISZERO PUSH2 0x1B89 JUMPI PUSH1 0x0 DUP1 REVERT JUMPDEST POP GAS CALL ISZERO DUP1 ISZERO PUSH2 0x1B9D JUMPI RETURNDATASIZE PUSH1 0x0 DUP1 RETURNDATACOPY RETURNDATASIZE PUSH1 0x0 REVERT JUMPDEST POP POP POP POP POP POP POP POP JUMP JUMPDEST PUSH1 0x8 SLOAD PUSH1 0x1 PUSH1 0x1 PUSH1 0xA0 SHL SUB AND CALLER EQ PUSH2 0x1BEF JUMPI PUSH1 0x40 MLOAD PUSH3 0x461BCD PUSH1 0xE5 SHL DUP2 MSTORE PUSH1 0x20 PUSH1 0x4 DUP3 ADD DUP2 SWAP1 MSTORE PUSH1 0x24 DUP3 ADD MSTORE PUSH1 0x0 DUP1 MLOAD PUSH1 0x20 PUSH2 0x44C1 DUP4 CODECOPY DUP2 MLOAD SWAP2 MSTORE PUSH1 0x44 DUP3 ADD MSTORE PUSH1 0x64 ADD PUSH2 0xA2C JUMP JUMPDEST PUSH1 0x1 PUSH1 0x1 PUSH1 0xA0 SHL SUB AND PUSH1 0x0 SWAP1 DUP2 MSTORE PUSH1 0x5 PUSH1 0x20 MSTORE PUSH1 0x40 SWAP1 KECCAK256 DUP1 SLOAD PUSH1 0xFF NOT AND PUSH1 0x1 OR SWAP1 SSTORE JUMP JUMPDEST PUSH1 0xC DUP1 SLOAD PUSH2 0xAC1 SWAP1 PUSH2 0x42FF JUMP JUMPDEST PUSH1 0x8 SLOAD PUSH1 0x1 PUSH1 0x1 PUSH1 0xA0 SHL SUB AND CALLER EQ PUSH2 0x1C68 JUMPI PUSH1 0x40 MLOAD PUSH3 0x461BCD PUSH1 0xE5 SHL DUP2 MSTORE PUSH1 0x20 PUSH1 0x4 DUP3 ADD DUP2 SWAP1 MSTORE PUSH1 0x24 DUP3 ADD MSTORE PUSH1 0x0 DUP1 MLOAD PUSH1 0x20 PUSH2 0x44C1 DUP4 CODECOPY DUP2 MLOAD SWAP2 MSTORE PUSH1 0x44 DUP3 ADD MSTORE PUSH1 0x64 ADD PUSH2 0xA2C JUMP JUMPDEST PUSH1 0xE SSTORE JUMP JUMPDEST PUSH1 0x8 SLOAD PUSH1 0x1 PUSH1 0x1 PUSH1 0xA0 SHL SUB AND CALLER EQ PUSH2 0x1CB5 JUMPI PUSH1 0x40 MLOAD PUSH3 0x461BCD PUSH1 0xE5 SHL DUP2 MSTORE PUSH1 0x20 PUSH1 0x4 DUP3 ADD DUP2 SWAP1 MSTORE PUSH1 0x24 DUP3 ADD MSTORE PUSH1 0x0 DUP1 MLOAD PUSH1 0x20 PUSH2 0x44C1 DUP4 CODECOPY DUP2 MLOAD SWAP2 MSTORE PUSH1 0x44 DUP3 ADD MSTORE PUSH1 0x64 ADD PUSH2 0xA2C JUMP JUMPDEST PUSH1 0x12 SSTORE JUMP JUMPDEST PUSH1 0x60 PUSH1 0x1 PUSH1 0x1 PUSH1 0xA0 SHL SUB DUP3 AND PUSH2 0x1D26 JUMPI PUSH1 0x40 MLOAD PUSH3 0x461BCD PUSH1 0xE5 SHL DUP2 MSTORE PUSH1 0x20 PUSH1 0x4 DUP3 ADD MSTORE PUSH1 0x2B PUSH1 0x24 DUP3 ADD MSTORE PUSH32 0x455243313135353A2062616C616E636520717565727920666F7220746865207A PUSH1 0x44 DUP3 ADD MSTORE PUSH11 0x65726F2061646472657373 PUSH1 0xA8 SHL PUSH1 0x64 DUP3 ADD MSTORE PUSH1 0x84 ADD PUSH2 0xA2C JUMP JUMPDEST PUSH1 0x1 PUSH1 0x1 PUSH1 0xA0 SHL SUB DUP3 AND PUSH1 0x0 SWAP1 DUP2 MSTORE PUSH1 0x2 PUSH1 0x20 MSTORE PUSH1 0x40 SWAP1 KECCAK256 PUSH2 0xA5A SWAP1 PUSH2 0x2B84 JUMP JUMPDEST CALLER PUSH1 0x1 PUSH1 0x1 PUSH1 0xA0 SHL SUB DUP4 AND EQ ISZERO PUSH2 0x1DB2 JUMPI PUSH1 0x40 MLOAD PUSH3 0x461BCD PUSH1 0xE5 SHL DUP2 MSTORE PUSH1 0x20 PUSH1 0x4 DUP3 ADD MSTORE PUSH1 0x29 PUSH1 0x24 DUP3 ADD MSTORE PUSH32 0x455243313135353A2073657474696E6720617070726F76616C20737461747573 PUSH1 0x44 DUP3 ADD MSTORE PUSH9 0x103337B91039B2B633 PUSH1 0xB9 SHL PUSH1 0x64 DUP3 ADD MSTORE PUSH1 0x84 ADD PUSH2 0xA2C JUMP JUMPDEST CALLER PUSH1 0x0 DUP2 DUP2 MSTORE PUSH1 0x4 PUSH1 0x20 SWAP1 DUP2 MSTORE PUSH1 0x40 DUP1 DUP4 KECCAK256 PUSH1 0x1 PUSH1 0x1 PUSH1 0xA0 SHL SUB DUP8 AND DUP1 DUP6 MSTORE SWAP1 DUP4 MSTORE SWAP3 DUP2 SWAP1 KECCAK256 DUP1 SLOAD PUSH1 0xFF NOT AND DUP7 ISZERO ISZERO SWAP1 DUP2 OR SWAP1 SWAP2 SSTORE SWAP1 MLOAD SWAP1 DUP2 MSTORE SWAP2 SWAP3 SWAP2 PUSH32 0x17307EAB39AB6107E8899845AD3D59BD9653F200F220920489CA2B5937696C31 SWAP2 ADD PUSH1 0x40 MLOAD DUP1 SWAP2 SUB SWAP1 LOG3 POP POP JUMP JUMPDEST CALLER PUSH1 0x0 SWAP1 DUP2 MSTORE PUSH1 0x5 PUSH1 0x20 MSTORE PUSH1 0x40 SWAP1 KECCAK256 SLOAD PUSH1 0xFF AND PUSH2 0x1E88 JUMPI PUSH1 0x40 MLOAD PUSH3 0x461BCD PUSH1 0xE5 SHL DUP2 MSTORE PUSH1 0x20 PUSH1 0x4 DUP3 ADD MSTORE PUSH1 0x22 PUSH1 0x24 DUP3 ADD MSTORE PUSH32 0x54686973206D6574686F64206D7573742063616C6C6564206279207472757374 PUSH1 0x44 DUP3 ADD MSTORE PUSH2 0x1959 PUSH1 0xF2 SHL PUSH1 0x64 DUP3 ADD MSTORE PUSH1 0x84 ADD PUSH2 0xA2C JUMP JUMPDEST PUSH1 0x15 SSTORE JUMP JUMPDEST CALLER PUSH1 0x0 SWAP1 DUP2 MSTORE PUSH1 0x5 PUSH1 0x20 MSTORE PUSH1 0x40 SWAP1 KECCAK256 SLOAD PUSH1 0xFF AND PUSH2 0x1EEC JUMPI PUSH1 0x40 MLOAD PUSH3 0x461BCD PUSH1 0xE5 SHL DUP2 MSTORE PUSH1 0x20 PUSH1 0x4 DUP3 ADD MSTORE PUSH1 0x14 PUSH1 0x24 DUP3 ADD MSTORE PUSH32 0x6E6F742069735472757374656441646472657373000000000000000000000000 PUSH1 0x44 DUP3 ADD MSTORE PUSH1 0x64 ADD PUSH2 0xA2C JUMP JUMPDEST PUSH1 0x9 SSTORE JUMP JUMPDEST PUSH1 0x8 SLOAD PUSH1 0x1 PUSH1 0x1 PUSH1 0xA0 SHL SUB AND CALLER EQ PUSH2 0x1F39 JUMPI PUSH1 0x40 MLOAD PUSH3 0x461BCD PUSH1 0xE5 SHL DUP2 MSTORE PUSH1 0x20 PUSH1 0x4 DUP3 ADD DUP2 SWAP1 MSTORE PUSH1 0x24 DUP3 ADD MSTORE PUSH1 0x0 DUP1 MLOAD PUSH1 0x20 PUSH2 0x44C1 DUP4 CODECOPY DUP2 MLOAD SWAP2 MSTORE PUSH1 0x44 DUP3 ADD MSTORE PUSH1 0x64 ADD PUSH2 0xA2C JUMP JUMPDEST PUSH2 0x1F46 DUP6 DUP6 DUP6 DUP6 DUP6 PUSH2 0x2BDB JUMP JUMPDEST POP POP POP POP POP JUMP JUMPDEST PUSH1 0x8 SLOAD PUSH1 0x1 PUSH1 0x1 PUSH1 0xA0 SHL SUB AND CALLER EQ PUSH2 0x1F95 JUMPI PUSH1 0x40 MLOAD PUSH3 0x461BCD PUSH1 0xE5 SHL DUP2 MSTORE PUSH1 0x20 PUSH1 0x4 DUP3 ADD DUP2 SWAP1 MSTORE PUSH1 0x24 DUP3 ADD MSTORE PUSH1 0x0 DUP1 MLOAD PUSH1 0x20 PUSH2 0x44C1 DUP4 CODECOPY DUP2 MLOAD SWAP2 MSTORE PUSH1 0x44 DUP3 ADD MSTORE PUSH1 0x64 ADD PUSH2 0xA2C JUMP JUMPDEST PUSH1 0x11 SSTORE JUMP JUMPDEST PUSH1 0x0 DUP1 PUSH1 0x0 PUSH1 0x60 DUP1 PUSH1 0x60 PUSH1 0x0 DUP1 PUSH2 0x1FE1 DUP10 PUSH1 0x40 MLOAD DUP1 PUSH1 0x40 ADD PUSH1 0x40 MSTORE DUP1 PUSH1 0xC DUP2 MSTORE PUSH1 0x20 ADD PUSH12 0x18D85C99081B9BC8199A5B99 PUSH1 0xA2 SHL DUP2 MSTORE POP PUSH1 0x0 PUSH2 0x2D1B SWAP1 SWAP3 SWAP2 SWAP1 PUSH4 0xFFFFFFFF AND JUMP JUMPDEST DUP1 MLOAD PUSH1 0x20 DUP3 ADD MLOAD PUSH1 0x40 DUP4 ADD MLOAD PUSH1 0x60 DUP5 ADD MLOAD PUSH1 0x80 DUP6 ADD MLOAD PUSH1 0xA0 DUP7 ADD MLOAD PUSH1 0xC0 SWAP1 SWAP7 ADD MLOAD SWAP5 SWAP16 SWAP4 SWAP15 POP SWAP2 SWAP13 POP SWAP11 POP SWAP9 POP SWAP2 SWAP7 POP SWAP5 POP SWAP3 POP POP POP JUMP JUMPDEST PUSH1 0x60 PUSH2 0x2025 PUSH1 0x0 PUSH2 0x2D72 JUMP JUMPDEST SWAP1 POP SWAP1 JUMP JUMPDEST CALLER PUSH1 0x0 SWAP1 DUP2 MSTORE PUSH1 0x5 PUSH1 0x20 MSTORE PUSH1 0x40 SWAP1 KECCAK256 SLOAD PUSH1 0xFF AND PUSH2 0x2094 JUMPI PUSH1 0x40 MLOAD PUSH3 0x461BCD PUSH1 0xE5 SHL DUP2 MSTORE PUSH1 0x20 PUSH1 0x4 DUP3 ADD MSTORE PUSH1 0x22 PUSH1 0x24 DUP3 ADD MSTORE PUSH32 0x54686973206D6574686F64206D7573742063616C6C6564206279207472757374 PUSH1 0x44 DUP3 ADD MSTORE PUSH2 0x1959 PUSH1 0xF2 SHL PUSH1 0x64 DUP3 ADD MSTORE PUSH1 0x84 ADD PUSH2 0xA2C JUMP JUMPDEST PUSH1 0x16 SSTORE JUMP JUMPDEST PUSH2 0x20AA PUSH1 0x0 DUP8 DUP8 DUP8 DUP8 DUP8 DUP8 CALLER PUSH2 0x2D7D JUMP JUMPDEST POP POP POP POP POP POP POP JUMP JUMPDEST PUSH1 0x1 PUSH1 0x1 PUSH1 0xA0 SHL SUB DUP5 AND PUSH2 0x2117 JUMPI PUSH1 0x40 MLOAD PUSH3 0x461BCD PUSH1 0xE5 SHL DUP2 MSTORE PUSH1 0x20 PUSH1 0x4 DUP3 ADD MSTORE PUSH1 0x25 PUSH1 0x24 DUP3 ADD MSTORE PUSH32 0x455243313135353A207472616E7366657220746F20746865207A65726F206164 PUSH1 0x44 DUP3 ADD MSTORE PUSH5 0x6472657373 PUSH1 0xD8 SHL PUSH1 0x64 DUP3 ADD MSTORE PUSH1 0x84 ADD PUSH2 0xA2C JUMP JUMPDEST PUSH1 0x1 PUSH1 0x1 PUSH1 0xA0 SHL SUB DUP6 AND CALLER EQ DUP1 PUSH2 0x2133 JUMPI POP PUSH2 0x2133 DUP6 CALLER PUSH2 0x8F6 JUMP JUMPDEST PUSH2 0x2191 JUMPI PUSH1 0x40 MLOAD PUSH3 0x461BCD PUSH1 0xE5 SHL DUP2 MSTORE PUSH1 0x20 PUSH1 0x4 DUP3 ADD MSTORE PUSH1 0x29 PUSH1 0x24 DUP3 ADD MSTORE PUSH32 0x455243313135353A2063616C6C6572206973206E6F74206F776E6572206E6F72 PUSH1 0x44 DUP3 ADD MSTORE PUSH9 0x8185C1C1C9BDD9959 PUSH1 0xBA SHL PUSH1 0x64 DUP3 ADD MSTORE PUSH1 0x84 ADD PUSH2 0xA2C JUMP JUMPDEST CALLER PUSH2 0x21AA DUP2 DUP8 DUP8 PUSH2 0x21A1 DUP9 PUSH2 0x2D9E JUMP JUMPDEST PUSH2 0x1F46 DUP9 PUSH2 0x2D9E JUMP JUMPDEST PUSH2 0x21F1 DUP4 PUSH1 0x40 MLOAD DUP1 PUSH1 0x60 ADD PUSH1 0x40 MSTORE DUP1 PUSH1 0x2A DUP2 MSTORE PUSH1 0x20 ADD PUSH2 0x44E1 PUSH1 0x2A SWAP2 CODECOPY PUSH1 0x0 DUP8 DUP2 MSTORE PUSH1 0x3 PUSH1 0x20 SWAP1 DUP2 MSTORE PUSH1 0x40 DUP1 DUP4 KECCAK256 PUSH1 0x1 PUSH1 0x1 PUSH1 0xA0 SHL SUB DUP14 AND DUP5 MSTORE SWAP1 SWAP2 MSTORE SWAP1 KECCAK256 SLOAD SWAP2 SWAP1 PUSH2 0x25C0 JUMP JUMPDEST PUSH1 0x0 DUP6 DUP2 MSTORE PUSH1 0x3 PUSH1 0x20 SWAP1 DUP2 MSTORE PUSH1 0x40 DUP1 DUP4 KECCAK256 PUSH1 0x1 PUSH1 0x1 PUSH1 0xA0 SHL SUB DUP12 DUP2 AND DUP6 MSTORE SWAP3 MSTORE DUP1 DUP4 KECCAK256 SWAP4 SWAP1 SWAP4 SSTORE DUP8 AND DUP2 MSTORE KECCAK256 SLOAD PUSH2 0x2228 SWAP1 DUP5 PUSH2 0x25F1 JUMP JUMPDEST PUSH1 0x0 DUP6 DUP2 MSTORE PUSH1 0x3 PUSH1 0x20 SWAP1 DUP2 MSTORE PUSH1 0x40 DUP1 DUP4 KECCAK256 PUSH1 0x1 PUSH1 0x1 PUSH1 0xA0 SHL SUB DUP1 DUP12 AND DUP6 MSTORE SWAP1 DUP4 MSTORE DUP2 DUP5 KECCAK256 SWAP5 SWAP1 SWAP5 SSTORE SWAP3 DUP10 AND DUP3 MSTORE PUSH1 0x2 SWAP1 MSTORE KECCAK256 PUSH2 0x2264 SWAP1 DUP6 PUSH2 0x25FD JUMP JUMPDEST POP PUSH1 0x1 PUSH1 0x1 PUSH1 0xA0 SHL SUB DUP6 AND PUSH1 0x0 SWAP1 DUP2 MSTORE PUSH1 0x2 PUSH1 0x20 MSTORE PUSH1 0x40 SWAP1 KECCAK256 PUSH2 0x2287 SWAP1 DUP6 PUSH2 0x2609 JUMP JUMPDEST POP PUSH2 0x2294 PUSH1 0x0 DUP6 DUP8 PUSH2 0x2615 JUMP JUMPDEST POP DUP5 PUSH1 0x1 PUSH1 0x1 PUSH1 0xA0 SHL SUB AND DUP7 PUSH1 0x1 PUSH1 0x1 PUSH1 0xA0 SHL SUB AND DUP3 PUSH1 0x1 PUSH1 0x1 PUSH1 0xA0 SHL SUB AND PUSH32 0xC3D58168C5AE7397731D063D5BBF3D657854427343F4C083240F7AACAA2D0F62 DUP8 DUP8 PUSH1 0x40 MLOAD PUSH2 0x22ED SWAP3 SWAP2 SWAP1 SWAP2 DUP3 MSTORE PUSH1 0x20 DUP3 ADD MSTORE PUSH1 0x40 ADD SWAP1 JUMP JUMPDEST PUSH1 0x40 MLOAD DUP1 SWAP2 SUB SWAP1 LOG4 PUSH2 0x1164 DUP2 DUP8 DUP8 DUP8 DUP8 DUP8 PUSH2 0x2DE9 JUMP JUMPDEST PUSH1 0x13 SLOAD PUSH1 0x1 PUSH1 0x1 PUSH1 0xA0 SHL SUB AND PUSH2 0x235B JUMPI PUSH1 0x40 MLOAD PUSH3 0x461BCD PUSH1 0xE5 SHL DUP2 MSTORE PUSH1 0x20 PUSH1 0x4 DUP3 ADD MSTORE PUSH1 0x1A PUSH1 0x24 DUP3 ADD MSTORE PUSH32 0x6D697261636C65206475737420746F6B656E206E6F7420736574000000000000 PUSH1 0x44 DUP3 ADD MSTORE PUSH1 0x64 ADD PUSH2 0xA2C JUMP JUMPDEST DUP1 MLOAD DUP3 MLOAD EQ PUSH2 0x23AC JUMPI PUSH1 0x40 MLOAD PUSH3 0x461BCD PUSH1 0xE5 SHL DUP2 MSTORE PUSH1 0x20 PUSH1 0x4 DUP3 ADD MSTORE PUSH1 0x1B PUSH1 0x24 DUP3 ADD MSTORE PUSH32 0x4172726179206C656E6774687320617265206E6F7420657175616C0000000000 PUSH1 0x44 DUP3 ADD MSTORE PUSH1 0x64 ADD PUSH2 0xA2C JUMP JUMPDEST PUSH1 0x0 DUP1 JUMPDEST DUP3 MLOAD DUP2 LT ISZERO PUSH2 0x23F2 JUMPI DUP3 DUP2 DUP2 MLOAD DUP2 LT PUSH2 0x23CB JUMPI PUSH2 0x23CB PUSH2 0x43D8 JUMP JUMPDEST PUSH1 0x20 MUL PUSH1 0x20 ADD ADD MLOAD DUP3 PUSH2 0x23DE SWAP2 SWAP1 PUSH2 0x429D JUMP JUMPDEST SWAP2 POP DUP1 PUSH2 0x23EA DUP2 PUSH2 0x4367 JUMP JUMPDEST SWAP2 POP POP PUSH2 0x23B0 JUMP JUMPDEST POP PUSH1 0x0 DUP2 GT PUSH2 0x2452 JUMPI PUSH1 0x40 MLOAD PUSH3 0x461BCD PUSH1 0xE5 SHL DUP2 MSTORE PUSH1 0x20 PUSH1 0x4 DUP3 ADD MSTORE PUSH1 0x26 PUSH1 0x24 DUP3 ADD MSTORE PUSH32 0x526563686172676520616D6F756E74206D757374206265206772656174657220 PUSH1 0x44 DUP3 ADD MSTORE PUSH6 0x7468616E203 PUSH1 0xD4 SHL PUSH1 0x64 DUP3 ADD MSTORE PUSH1 0x84 ADD PUSH2 0xA2C JUMP JUMPDEST PUSH1 0x13 SLOAD PUSH1 0x40 MLOAD PUSH4 0x36409CB7 PUSH1 0xE1 SHL DUP2 MSTORE CALLER PUSH1 0x4 DUP3 ADD MSTORE PUSH1 0x24 DUP2 ADD DUP4 SWAP1 MSTORE PUSH1 0x1 PUSH1 0x1 PUSH1 0xA0 SHL SUB SWAP1 SWAP2 AND SWAP1 PUSH4 0x6C81396E SWAP1 PUSH1 0x44 ADD PUSH1 0x0 PUSH1 0x40 MLOAD DUP1 DUP4 SUB DUP2 PUSH1 0x0 DUP8 DUP1 EXTCODESIZE ISZERO DUP1 ISZERO PUSH2 0x249E JUMPI PUSH1 0x0 DUP1 REVERT JUMPDEST POP GAS CALL ISZERO DUP1 ISZERO PUSH2 0x24B2 JUMPI RETURNDATASIZE PUSH1 0x0 DUP1 RETURNDATACOPY RETURNDATASIZE PUSH1 0x0 REVERT JUMPDEST POP POP POP POP PUSH1 0x0 JUMPDEST DUP4 MLOAD DUP2 LT ISZERO PUSH2 0x253E JUMPI PUSH1 0x0 DUP1 PUSH1 0x0 DUP1 PUSH1 0x0 DUP1 PUSH2 0x24E0 DUP11 DUP9 DUP2 MLOAD DUP2 LT PUSH2 0x13ED JUMPI PUSH2 0x13ED PUSH2 0x43D8 JUMP JUMPDEST POP SWAP6 POP SWAP6 POP SWAP6 POP SWAP6 POP SWAP6 POP SWAP6 POP PUSH1 0x0 DUP10 DUP9 DUP2 MLOAD DUP2 LT PUSH2 0x2501 JUMPI PUSH2 0x2501 PUSH2 0x43D8 JUMP JUMPDEST PUSH1 0x20 MUL PUSH1 0x20 ADD ADD MLOAD DUP6 PUSH2 0x2514 SWAP2 SWAP1 PUSH2 0x429D JUMP JUMPDEST SWAP1 POP PUSH2 0x2524 DUP8 DUP8 DUP4 DUP8 DUP8 DUP8 PUSH2 0x2099 JUMP JUMPDEST POP POP POP POP POP POP POP DUP1 DUP1 PUSH2 0x2536 SWAP1 PUSH2 0x4367 JUMP JUMPDEST SWAP2 POP POP PUSH2 0x24B9 JUMP JUMPDEST POP POP POP POP JUMP JUMPDEST PUSH1 0x8 SLOAD PUSH1 0x1 PUSH1 0x1 PUSH1 0xA0 SHL SUB AND CALLER EQ PUSH2 0x258C JUMPI PUSH1 0x40 MLOAD PUSH3 0x461BCD PUSH1 0xE5 SHL DUP2 MSTORE PUSH1 0x20 PUSH1 0x4 DUP3 ADD DUP2 SWAP1 MSTORE PUSH1 0x24 DUP3 ADD MSTORE PUSH1 0x0 DUP1 MLOAD PUSH1 0x20 PUSH2 0x44C1 DUP4 CODECOPY DUP2 MLOAD SWAP2 MSTORE PUSH1 0x44 DUP3 ADD MSTORE PUSH1 0x64 ADD PUSH2 0xA2C JUMP JUMPDEST PUSH1 0x1 PUSH1 0x1 PUSH1 0xA0 SHL SUB AND PUSH1 0x0 SWAP1 DUP2 MSTORE PUSH1 0x5 PUSH1 0x20 MSTORE PUSH1 0x40 SWAP1 KECCAK256 DUP1 SLOAD PUSH1 0xFF NOT AND SWAP1 SSTORE JUMP JUMPDEST DUP1 MLOAD PUSH2 0xE43 SWAP1 PUSH1 0x6 SWAP1 PUSH1 0x20 DUP5 ADD SWAP1 PUSH2 0x3827 JUMP JUMPDEST PUSH1 0x0 DUP2 DUP5 DUP5 GT ISZERO PUSH2 0x25E4 JUMPI PUSH1 0x40 MLOAD PUSH3 0x461BCD PUSH1 0xE5 SHL DUP2 MSTORE PUSH1 0x4 ADD PUSH2 0xA2C SWAP2 SWAP1 PUSH2 0x41FD JUMP JUMPDEST POP POP DUP2 DUP4 SUB JUMPDEST SWAP4 SWAP3 POP POP POP JUMP JUMPDEST PUSH1 0x0 PUSH2 0x25EA DUP3 DUP5 PUSH2 0x429D JUMP JUMPDEST PUSH1 0x0 PUSH2 0x25EA DUP4 DUP4 PUSH2 0x2EF4 JUMP JUMPDEST PUSH1 0x0 PUSH2 0x25EA DUP4 DUP4 PUSH2 0x2FE7 JUMP JUMPDEST PUSH1 0x0 PUSH2 0x2622 DUP5 DUP5 DUP5 PUSH2 0x3036 JUMP JUMPDEST SWAP5 SWAP4 POP POP POP POP JUMP JUMPDEST PUSH1 0x1 PUSH1 0x1 PUSH1 0xA0 SHL SUB DUP5 AND EXTCODESIZE ISZERO PUSH2 0x1164 JUMPI PUSH1 0x40 MLOAD PUSH4 0xBC197C81 PUSH1 0xE0 SHL DUP2 MSTORE PUSH1 0x1 PUSH1 0x1 PUSH1 0xA0 SHL SUB DUP6 AND SWAP1 PUSH4 0xBC197C81 SWAP1 PUSH2 0x266E SWAP1 DUP10 SWAP1 DUP10 SWAP1 DUP9 SWAP1 DUP9 SWAP1 DUP9 SWAP1 PUSH1 0x4 ADD PUSH2 0x40E3 JUMP JUMPDEST PUSH1 0x20 PUSH1 0x40 MLOAD DUP1 DUP4 SUB DUP2 PUSH1 0x0 DUP8 DUP1 EXTCODESIZE ISZERO DUP1 ISZERO PUSH2 0x2688 JUMPI PUSH1 0x0 DUP1 REVERT JUMPDEST POP GAS CALL SWAP3 POP POP POP DUP1 ISZERO PUSH2 0x26B8 JUMPI POP PUSH1 0x40 DUP1 MLOAD PUSH1 0x1F RETURNDATASIZE SWAP1 DUP2 ADD PUSH1 0x1F NOT AND DUP3 ADD SWAP1 SWAP3 MSTORE PUSH2 0x26B5 SWAP2 DUP2 ADD SWAP1 PUSH2 0x3EBD JUMP JUMPDEST PUSH1 0x1 JUMPDEST PUSH2 0x276E JUMPI PUSH2 0x26C4 PUSH2 0x4404 JUMP JUMPDEST DUP1 PUSH4 0x8C379A0 EQ ISZERO PUSH2 0x26FE JUMPI POP PUSH2 0x26D9 PUSH2 0x4420 JUMP JUMPDEST DUP1 PUSH2 0x26E4 JUMPI POP PUSH2 0x2700 JUMP JUMPDEST DUP1 PUSH1 0x40 MLOAD PUSH3 0x461BCD PUSH1 0xE5 SHL DUP2 MSTORE PUSH1 0x4 ADD PUSH2 0xA2C SWAP2 SWAP1 PUSH2 0x41FD JUMP JUMPDEST POP JUMPDEST PUSH1 0x40 MLOAD PUSH3 0x461BCD PUSH1 0xE5 SHL DUP2 MSTORE PUSH1 0x20 PUSH1 0x4 DUP3 ADD MSTORE PUSH1 0x34 PUSH1 0x24 DUP3 ADD MSTORE PUSH32 0x455243313135353A207472616E7366657220746F206E6F6E2045524331313535 PUSH1 0x44 DUP3 ADD MSTORE PUSH32 0x526563656976657220696D706C656D656E746572000000000000000000000000 PUSH1 0x64 DUP3 ADD MSTORE PUSH1 0x84 ADD PUSH2 0xA2C JUMP JUMPDEST PUSH1 0x1 PUSH1 0x1 PUSH1 0xE0 SHL SUB NOT DUP2 AND PUSH4 0xBC197C81 PUSH1 0xE0 SHL EQ PUSH2 0x20AA JUMPI PUSH1 0x40 MLOAD PUSH3 0x461BCD PUSH1 0xE5 SHL DUP2 MSTORE PUSH1 0x20 PUSH1 0x4 DUP3 ADD MSTORE PUSH1 0x28 PUSH1 0x24 DUP3 ADD MSTORE PUSH32 0x455243313135353A204552433131353552656365697665722072656A65637465 PUSH1 0x44 DUP3 ADD MSTORE PUSH8 0x6420746F6B656E73 PUSH1 0xC0 SHL PUSH1 0x64 DUP3 ADD MSTORE PUSH1 0x84 ADD PUSH2 0xA2C JUMP JUMPDEST PUSH1 0x0 PUSH2 0x27EB PUSH1 0x0 PUSH2 0x30B4 JUMP JUMPDEST PUSH2 0x2025 SWAP1 PUSH1 0x1 PUSH2 0x429D JUMP JUMPDEST PUSH1 0x60 PUSH1 0x0 PUSH1 0xE SLOAD PUSH8 0xFFFFFFFFFFFFFFFF DUP2 GT ISZERO PUSH2 0x2815 JUMPI PUSH2 0x2815 PUSH2 0x43EE JUMP JUMPDEST PUSH1 0x40 MLOAD SWAP1 DUP1 DUP3 MSTORE DUP1 PUSH1 0x20 MUL PUSH1 0x20 ADD DUP3 ADD PUSH1 0x40 MSTORE DUP1 ISZERO PUSH2 0x283E JUMPI DUP2 PUSH1 0x20 ADD PUSH1 0x20 DUP3 MUL DUP1 CALLDATASIZE DUP4 CALLDATACOPY ADD SWAP1 POP JUMPDEST POP SWAP1 POP PUSH1 0x0 DUP1 DIFFICULTY TIMESTAMP PUSH1 0x40 MLOAD PUSH1 0x20 ADD PUSH2 0x2860 SWAP3 SWAP2 SWAP1 SWAP2 DUP3 MSTORE PUSH1 0x20 DUP3 ADD MSTORE PUSH1 0x40 ADD SWAP1 JUMP JUMPDEST PUSH1 0x40 MLOAD PUSH1 0x20 DUP2 DUP4 SUB SUB DUP2 MSTORE SWAP1 PUSH1 0x40 MSTORE DUP1 MLOAD SWAP1 PUSH1 0x20 ADD KECCAK256 PUSH1 0x0 SHR SWAP1 POP PUSH1 0x0 JUMPDEST DUP6 MLOAD DUP2 LT ISZERO PUSH2 0x2947 JUMPI PUSH1 0x1 PUSH1 0xE SLOAD PUSH2 0x2896 SWAP2 SWAP1 PUSH2 0x42E8 JUMP JUMPDEST DUP4 LT PUSH2 0x28A1 JUMPI PUSH2 0x2947 JUMP JUMPDEST PUSH1 0x2 DUP7 DUP3 DUP2 MLOAD DUP2 LT PUSH2 0x28B5 JUMPI PUSH2 0x28B5 PUSH2 0x43D8 JUMP JUMPDEST PUSH1 0x20 MUL PUSH1 0x20 ADD ADD MLOAD PUSH2 0x28C7 SWAP2 SWAP1 PUSH2 0x42B5 JUMP JUMPDEST DUP7 DUP3 DUP2 MLOAD DUP2 LT PUSH2 0x28D9 JUMPI PUSH2 0x28D9 PUSH2 0x43D8 JUMP JUMPDEST PUSH1 0x20 MUL PUSH1 0x20 ADD ADD MLOAD DUP4 PUSH2 0x28EC SWAP2 SWAP1 PUSH2 0x4382 JUMP JUMPDEST GT ISZERO PUSH2 0x2937 JUMPI DUP6 DUP2 DUP2 MLOAD DUP2 LT PUSH2 0x2904 JUMPI PUSH2 0x2904 PUSH2 0x43D8 JUMP JUMPDEST PUSH1 0x20 MUL PUSH1 0x20 ADD ADD MLOAD DUP5 DUP5 DUP2 MLOAD DUP2 LT PUSH2 0x291E JUMPI PUSH2 0x291E PUSH2 0x43D8 JUMP JUMPDEST PUSH1 0x20 SWAP1 DUP2 MUL SWAP2 SWAP1 SWAP2 ADD ADD MSTORE DUP3 PUSH2 0x2933 DUP2 PUSH2 0x4367 JUMP JUMPDEST SWAP4 POP POP JUMPDEST PUSH2 0x2940 DUP2 PUSH2 0x4367 JUMP JUMPDEST SWAP1 POP PUSH2 0x287E JUMP JUMPDEST POP SWAP2 SWAP5 SWAP4 POP POP POP POP JUMP JUMPDEST PUSH1 0x1 PUSH1 0x1 PUSH1 0xA0 SHL SUB DUP7 AND PUSH2 0x29B1 JUMPI PUSH1 0x40 MLOAD PUSH3 0x461BCD PUSH1 0xE5 SHL DUP2 MSTORE PUSH1 0x20 PUSH1 0x4 DUP3 ADD MSTORE PUSH1 0x21 PUSH1 0x24 DUP3 ADD MSTORE PUSH32 0x455243313135353A206D696E7420746F20746865207A65726F20616464726573 PUSH1 0x44 DUP3 ADD MSTORE PUSH1 0x73 PUSH1 0xF8 SHL PUSH1 0x64 DUP3 ADD MSTORE PUSH1 0x84 ADD PUSH2 0xA2C JUMP JUMPDEST CALLER PUSH2 0x29E2 DUP2 PUSH1 0x0 DUP10 PUSH2 0x29C2 DUP11 PUSH2 0x2D9E JUMP JUMPDEST PUSH2 0x29CC PUSH1 0x1 PUSH2 0x2D9E JUMP JUMPDEST POP POP PUSH1 0x40 DUP1 MLOAD PUSH1 0x20 DUP2 ADD SWAP1 SWAP2 MSTORE PUSH1 0x0 SWAP1 MSTORE POP POP POP JUMP JUMPDEST PUSH1 0x0 DUP7 DUP2 MSTORE PUSH1 0x3 PUSH1 0x20 SWAP1 DUP2 MSTORE PUSH1 0x40 DUP1 DUP4 KECCAK256 PUSH1 0x1 PUSH1 0x1 PUSH1 0xA0 SHL SUB DUP12 AND DUP5 MSTORE SWAP1 SWAP2 MSTORE SWAP1 KECCAK256 SLOAD PUSH2 0x2A10 SWAP1 PUSH1 0x1 PUSH2 0x25F1 JUMP JUMPDEST PUSH1 0x0 DUP8 DUP2 MSTORE PUSH1 0x3 PUSH1 0x20 SWAP1 DUP2 MSTORE PUSH1 0x40 DUP1 DUP4 KECCAK256 PUSH1 0x1 PUSH1 0x1 PUSH1 0xA0 SHL SUB DUP13 AND DUP5 MSTORE DUP3 MSTORE DUP1 DUP4 KECCAK256 SWAP4 SWAP1 SWAP4 SSTORE PUSH1 0x2 SWAP1 MSTORE KECCAK256 PUSH2 0x2A45 SWAP1 DUP8 PUSH2 0x2609 JUMP JUMPDEST POP PUSH1 0x0 PUSH2 0x2A51 DUP4 PUSH2 0x30BE JUMP JUMPDEST PUSH1 0x9 SLOAD SWAP1 SWAP2 POP PUSH2 0x2A6B SWAP1 PUSH1 0x0 SWAP1 DUP10 SWAP1 DUP5 SWAP1 DUP11 DUP11 DUP11 DUP16 PUSH2 0x2D7D JUMP JUMPDEST POP PUSH1 0x40 DUP1 MLOAD DUP9 DUP2 MSTORE PUSH1 0x1 PUSH1 0x20 DUP3 ADD MSTORE PUSH1 0x1 PUSH1 0x1 PUSH1 0xA0 SHL SUB DUP1 DUP12 AND SWAP3 PUSH1 0x0 SWAP3 SWAP2 DUP7 AND SWAP2 PUSH32 0xC3D58168C5AE7397731D063D5BBF3D657854427343F4C083240F7AACAA2D0F62 SWAP2 ADD PUSH1 0x40 MLOAD DUP1 SWAP2 SUB SWAP1 LOG4 PUSH2 0x1B9D DUP3 PUSH1 0x0 DUP11 DUP11 PUSH1 0x1 PUSH1 0x40 MLOAD DUP1 PUSH1 0x20 ADD PUSH1 0x40 MSTORE DUP1 PUSH1 0x0 DUP2 MSTORE POP PUSH2 0x2DE9 JUMP JUMPDEST PUSH1 0x0 PUSH2 0xA5A DUP3 PUSH1 0x40 MLOAD DUP1 PUSH1 0x60 ADD PUSH1 0x40 MSTORE DUP1 PUSH1 0x21 DUP2 MSTORE PUSH1 0x20 ADD PUSH2 0x450B PUSH1 0x21 SWAP2 CODECOPY PUSH1 0x0 SWAP2 SWAP1 PUSH2 0x3177 JUMP JUMPDEST PUSH1 0x0 PUSH1 0x1 PUSH1 0x1 PUSH1 0xA0 SHL SUB DUP3 AND PUSH2 0x2B63 JUMPI PUSH1 0x40 MLOAD PUSH3 0x461BCD PUSH1 0xE5 SHL DUP2 MSTORE PUSH1 0x20 PUSH1 0x4 DUP3 ADD MSTORE PUSH1 0x23 PUSH1 0x24 DUP3 ADD MSTORE PUSH32 0x2062616C616E636520717565727920666F7220746865207A65726F2061646472 PUSH1 0x44 DUP3 ADD MSTORE PUSH3 0x657373 PUSH1 0xE8 SHL PUSH1 0x64 DUP3 ADD MSTORE PUSH1 0x84 ADD PUSH2 0xA2C JUMP JUMPDEST PUSH1 0x1 PUSH1 0x1 PUSH1 0xA0 SHL SUB DUP3 AND PUSH1 0x0 SWAP1 DUP2 MSTORE PUSH1 0x2 PUSH1 0x20 MSTORE PUSH1 0x40 SWAP1 KECCAK256 PUSH2 0xA5A SWAP1 PUSH2 0x30B4 JUMP JUMPDEST DUP1 SLOAD PUSH1 0x40 DUP1 MLOAD PUSH1 0x20 DUP1 DUP5 MUL DUP3 ADD DUP2 ADD SWAP1 SWAP3 MSTORE DUP3 DUP2 MSTORE PUSH1 0x60 SWAP3 SWAP1 SWAP2 DUP5 SWAP2 SWAP1 DUP4 ADD DUP3 DUP3 DUP1 ISZERO PUSH2 0xBEB JUMPI PUSH1 0x20 MUL DUP3 ADD SWAP2 SWAP1 PUSH1 0x0 MSTORE PUSH1 0x20 PUSH1 0x0 KECCAK256 SWAP1 JUMPDEST DUP2 SLOAD DUP2 MSTORE PUSH1 0x20 ADD SWAP1 PUSH1 0x1 ADD SWAP1 DUP1 DUP4 GT PUSH2 0x2BBC JUMPI POP POP POP POP POP SWAP1 POP SWAP2 SWAP1 POP JUMP JUMPDEST CALLER PUSH2 0x2C32 JUMPI PUSH1 0x40 MLOAD PUSH3 0x461BCD PUSH1 0xE5 SHL DUP2 MSTORE PUSH1 0x20 PUSH1 0x4 DUP3 ADD MSTORE PUSH1 0x21 PUSH1 0x24 DUP3 ADD MSTORE PUSH32 0x455243313135353A206D696E7420746F20746865207A65726F20616464726573 PUSH1 0x44 DUP3 ADD MSTORE PUSH1 0x73 PUSH1 0xF8 SHL PUSH1 0x64 DUP3 ADD MSTORE PUSH1 0x84 ADD PUSH2 0xA2C JUMP JUMPDEST PUSH1 0x0 PUSH2 0x2C3C PUSH2 0x27DF JUMP JUMPDEST SWAP1 POP CALLER PUSH2 0x2C4F DUP2 PUSH1 0x0 DUP2 PUSH2 0x29C2 DUP7 PUSH2 0x2D9E JUMP JUMPDEST PUSH1 0x0 DUP3 DUP2 MSTORE PUSH1 0x3 PUSH1 0x20 SWAP1 DUP2 MSTORE PUSH1 0x40 DUP1 DUP4 KECCAK256 CALLER DUP5 MSTORE SWAP1 SWAP2 MSTORE SWAP1 KECCAK256 SLOAD PUSH2 0x2C74 SWAP1 PUSH1 0x1 PUSH2 0x25F1 JUMP JUMPDEST PUSH1 0x0 DUP4 DUP2 MSTORE PUSH1 0x3 PUSH1 0x20 SWAP1 DUP2 MSTORE PUSH1 0x40 DUP1 DUP4 KECCAK256 CALLER DUP5 MSTORE DUP3 MSTORE DUP1 DUP4 KECCAK256 SWAP4 SWAP1 SWAP4 SSTORE PUSH1 0x2 SWAP1 MSTORE KECCAK256 PUSH2 0x2CA0 SWAP1 DUP4 PUSH2 0x2609 JUMP JUMPDEST POP PUSH2 0x2CB2 PUSH1 0x0 DUP4 DUP8 DUP8 DUP12 DUP12 DUP10 CALLER PUSH2 0x2D7D JUMP JUMPDEST POP PUSH1 0x40 DUP1 MLOAD DUP4 DUP2 MSTORE PUSH1 0x1 PUSH1 0x20 DUP3 ADD MSTORE CALLER SWAP2 PUSH1 0x0 SWAP2 PUSH1 0x1 PUSH1 0x1 PUSH1 0xA0 SHL SUB DUP6 AND SWAP2 PUSH32 0xC3D58168C5AE7397731D063D5BBF3D657854427343F4C083240F7AACAA2D0F62 SWAP2 ADD PUSH1 0x40 MLOAD DUP1 SWAP2 SUB SWAP1 LOG4 PUSH2 0x20AA DUP2 PUSH1 0x0 CALLER DUP6 PUSH1 0x1 PUSH1 0x40 MLOAD DUP1 PUSH1 0x20 ADD PUSH1 0x40 MSTORE DUP1 PUSH1 0x0 DUP2 MSTORE POP PUSH2 0x2DE9 JUMP JUMPDEST PUSH2 0x2D67 PUSH1 0x40 MLOAD DUP1 PUSH1 0xE0 ADD PUSH1 0x40 MSTORE DUP1 PUSH1 0x0 DUP1 NOT AND DUP2 MSTORE PUSH1 0x20 ADD PUSH1 0x0 DUP2 MSTORE PUSH1 0x20 ADD PUSH1 0x0 DUP2 MSTORE PUSH1 0x20 ADD PUSH1 0x60 DUP2 MSTORE PUSH1 0x20 ADD PUSH1 0x60 DUP2 MSTORE PUSH1 0x20 ADD PUSH1 0x60 DUP2 MSTORE PUSH1 0x20 ADD PUSH1 0x0 PUSH1 0x1 PUSH1 0x1 PUSH1 0xA0 SHL SUB AND DUP2 MSTORE POP SWAP1 JUMP JUMPDEST PUSH2 0x2622 DUP5 DUP5 DUP5 PUSH2 0x3184 JUMP JUMPDEST PUSH1 0x60 PUSH2 0xA5A DUP3 PUSH2 0x33B4 JUMP JUMPDEST PUSH1 0x0 PUSH2 0x2D8F DUP10 DUP10 DUP10 DUP10 DUP10 DUP10 DUP10 DUP10 PUSH2 0x346A JUMP JUMPDEST SWAP1 POP JUMPDEST SWAP9 SWAP8 POP POP POP POP POP POP POP POP JUMP JUMPDEST PUSH1 0x40 DUP1 MLOAD PUSH1 0x1 DUP1 DUP3 MSTORE DUP2 DUP4 ADD SWAP1 SWAP3 MSTORE PUSH1 0x60 SWAP2 PUSH1 0x0 SWAP2 SWAP1 PUSH1 0x20 DUP1 DUP4 ADD SWAP1 DUP1 CALLDATASIZE DUP4 CALLDATACOPY ADD SWAP1 POP POP SWAP1 POP DUP3 DUP2 PUSH1 0x0 DUP2 MLOAD DUP2 LT PUSH2 0x2DD8 JUMPI PUSH2 0x2DD8 PUSH2 0x43D8 JUMP JUMPDEST PUSH1 0x20 SWAP1 DUP2 MUL SWAP2 SWAP1 SWAP2 ADD ADD MSTORE SWAP3 SWAP2 POP POP JUMP JUMPDEST PUSH1 0x1 PUSH1 0x1 PUSH1 0xA0 SHL SUB DUP5 AND EXTCODESIZE ISZERO PUSH2 0x1164 JUMPI PUSH1 0x40 MLOAD PUSH4 0xF23A6E61 PUSH1 0xE0 SHL DUP2 MSTORE PUSH1 0x1 PUSH1 0x1 PUSH1 0xA0 SHL SUB DUP6 AND SWAP1 PUSH4 0xF23A6E61 SWAP1 PUSH2 0x2E2D SWAP1 DUP10 SWAP1 DUP10 SWAP1 DUP9 SWAP1 DUP9 SWAP1 DUP9 SWAP1 PUSH1 0x4 ADD PUSH2 0x4135 JUMP JUMPDEST PUSH1 0x20 PUSH1 0x40 MLOAD DUP1 DUP4 SUB DUP2 PUSH1 0x0 DUP8 DUP1 EXTCODESIZE ISZERO DUP1 ISZERO PUSH2 0x2E47 JUMPI PUSH1 0x0 DUP1 REVERT JUMPDEST POP GAS CALL SWAP3 POP POP POP DUP1 ISZERO PUSH2 0x2E77 JUMPI POP PUSH1 0x40 DUP1 MLOAD PUSH1 0x1F RETURNDATASIZE SWAP1 DUP2 ADD PUSH1 0x1F NOT AND DUP3 ADD SWAP1 SWAP3 MSTORE PUSH2 0x2E74 SWAP2 DUP2 ADD SWAP1 PUSH2 0x3EBD JUMP JUMPDEST PUSH1 0x1 JUMPDEST PUSH2 0x2E83 JUMPI PUSH2 0x26C4 PUSH2 0x4404 JUMP JUMPDEST PUSH1 0x1 PUSH1 0x1 PUSH1 0xE0 SHL SUB NOT DUP2 AND PUSH4 0xF23A6E61 PUSH1 0xE0 SHL EQ PUSH2 0x20AA JUMPI PUSH1 0x40 MLOAD PUSH3 0x461BCD PUSH1 0xE5 SHL DUP2 MSTORE PUSH1 0x20 PUSH1 0x4 DUP3 ADD MSTORE PUSH1 0x28 PUSH1 0x24 DUP3 ADD MSTORE PUSH32 0x455243313135353A204552433131353552656365697665722072656A65637465 PUSH1 0x44 DUP3 ADD MSTORE PUSH8 0x6420746F6B656E73 PUSH1 0xC0 SHL PUSH1 0x64 DUP3 ADD MSTORE PUSH1 0x84 ADD PUSH2 0xA2C JUMP JUMPDEST PUSH1 0x0 DUP2 DUP2 MSTORE PUSH1 0x1 DUP4 ADD PUSH1 0x20 MSTORE PUSH1 0x40 DUP2 KECCAK256 SLOAD DUP1 ISZERO PUSH2 0x2FDD JUMPI PUSH1 0x0 PUSH2 0x2F18 PUSH1 0x1 DUP4 PUSH2 0x42E8 JUMP JUMPDEST DUP6 SLOAD SWAP1 SWAP2 POP PUSH1 0x0 SWAP1 PUSH2 0x2F2C SWAP1 PUSH1 0x1 SWAP1 PUSH2 0x42E8 JUMP JUMPDEST SWAP1 POP PUSH1 0x0 DUP7 PUSH1 0x0 ADD DUP3 DUP2 SLOAD DUP2 LT PUSH2 0x2F45 JUMPI PUSH2 0x2F45 PUSH2 0x43D8 JUMP JUMPDEST SWAP1 PUSH1 0x0 MSTORE PUSH1 0x20 PUSH1 0x0 KECCAK256 ADD SLOAD SWAP1 POP DUP1 DUP8 PUSH1 0x0 ADD DUP5 DUP2 SLOAD DUP2 LT PUSH2 0x2F68 JUMPI PUSH2 0x2F68 PUSH2 0x43D8 JUMP JUMPDEST PUSH1 0x0 SWAP2 DUP3 MSTORE PUSH1 0x20 SWAP1 SWAP2 KECCAK256 ADD SSTORE PUSH2 0x2F7F DUP4 PUSH1 0x1 PUSH2 0x429D JUMP JUMPDEST PUSH1 0x0 DUP3 DUP2 MSTORE PUSH1 0x1 DUP10 ADD PUSH1 0x20 MSTORE PUSH1 0x40 SWAP1 KECCAK256 SSTORE DUP7 SLOAD DUP8 SWAP1 DUP1 PUSH2 0x2FA1 JUMPI PUSH2 0x2FA1 PUSH2 0x43C2 JUMP JUMPDEST PUSH1 0x1 SWAP1 SUB DUP2 DUP2 SWAP1 PUSH1 0x0 MSTORE PUSH1 0x20 PUSH1 0x0 KECCAK256 ADD PUSH1 0x0 SWAP1 SSTORE SWAP1 SSTORE DUP7 PUSH1 0x1 ADD PUSH1 0x0 DUP8 DUP2 MSTORE PUSH1 0x20 ADD SWAP1 DUP2 MSTORE PUSH1 0x20 ADD PUSH1 0x0 KECCAK256 PUSH1 0x0 SWAP1 SSTORE PUSH1 0x1 SWAP5 POP POP POP POP POP PUSH2 0xA5A JUMP JUMPDEST PUSH1 0x0 SWAP2 POP POP PUSH2 0xA5A JUMP JUMPDEST PUSH1 0x0 DUP2 DUP2 MSTORE PUSH1 0x1 DUP4 ADD PUSH1 0x20 MSTORE PUSH1 0x40 DUP2 KECCAK256 SLOAD PUSH2 0x302E JUMPI POP DUP2 SLOAD PUSH1 0x1 DUP2 DUP2 ADD DUP5 SSTORE PUSH1 0x0 DUP5 DUP2 MSTORE PUSH1 0x20 DUP1 DUP3 KECCAK256 SWAP1 SWAP4 ADD DUP5 SWAP1 SSTORE DUP5 SLOAD DUP5 DUP3 MSTORE DUP3 DUP7 ADD SWAP1 SWAP4 MSTORE PUSH1 0x40 SWAP1 KECCAK256 SWAP2 SWAP1 SWAP2 SSTORE PUSH2 0xA5A JUMP JUMPDEST POP PUSH1 0x0 PUSH2 0xA5A JUMP JUMPDEST PUSH1 0x0 DUP3 DUP2 MSTORE PUSH1 0x1 DUP5 ADD PUSH1 0x20 MSTORE PUSH1 0x40 DUP2 KECCAK256 SLOAD DUP1 PUSH2 0x3056 JUMPI PUSH1 0x0 SWAP2 POP POP PUSH2 0x25EA JUMP JUMPDEST DUP3 DUP6 PUSH2 0x3063 PUSH1 0x1 DUP5 PUSH2 0x42E8 JUMP JUMPDEST DUP2 SLOAD DUP2 LT PUSH2 0x3073 JUMPI PUSH2 0x3073 PUSH2 0x43D8 JUMP JUMPDEST SWAP1 PUSH1 0x0 MSTORE PUSH1 0x20 PUSH1 0x0 KECCAK256 SWAP1 PUSH1 0x7 MUL ADD PUSH1 0x6 ADD PUSH1 0x0 PUSH2 0x100 EXP DUP2 SLOAD DUP2 PUSH1 0x1 PUSH1 0x1 PUSH1 0xA0 SHL SUB MUL NOT AND SWAP1 DUP4 PUSH1 0x1 PUSH1 0x1 PUSH1 0xA0 SHL SUB AND MUL OR SWAP1 SSTORE POP PUSH1 0x1 SWAP2 POP POP SWAP4 SWAP3 POP POP POP JUMP JUMPDEST PUSH1 0x0 PUSH2 0xA5A DUP3 SLOAD SWAP1 JUMP JUMPDEST PUSH1 0x7 SLOAD PUSH1 0x40 DUP1 MLOAD CALLER PUSH1 0x20 DUP1 DUP4 ADD SWAP2 SWAP1 SWAP2 MSTORE DIFFICULTY DUP3 DUP5 ADD MSTORE TIMESTAMP PUSH1 0x60 DUP4 ADD MSTORE PUSH1 0x80 DUP1 DUP4 ADD SWAP5 SWAP1 SWAP5 MSTORE DUP3 MLOAD DUP1 DUP4 SUB SWAP1 SWAP5 ADD DUP5 MSTORE PUSH1 0xA0 SWAP1 SWAP2 ADD SWAP1 SWAP2 MSTORE DUP2 MLOAD SWAP2 ADD KECCAK256 PUSH1 0x0 SWAP1 DUP2 PUSH2 0x3109 DUP5 PUSH1 0x64 PUSH2 0x42C9 JUMP JUMPDEST SWAP1 POP PUSH1 0x0 PUSH2 0x311D PUSH6 0x5AF3107A4000 CALLVALUE PUSH2 0x42B5 JUMP JUMPDEST PUSH2 0x3127 DUP4 DUP6 PUSH2 0x4382 JUMP JUMPDEST PUSH2 0x3131 SWAP2 SWAP1 PUSH2 0x429D JUMP JUMPDEST SWAP1 POP DUP2 DUP2 GT ISZERO PUSH2 0x313E JUMPI POP DUP1 JUMPDEST PUSH1 0x0 PUSH2 0x314B DUP7 PUSH1 0xA PUSH2 0x42C9 JUMP JUMPDEST PUSH1 0x7 DUP1 SLOAD SWAP2 SWAP3 POP PUSH1 0x0 PUSH2 0x315D DUP4 PUSH2 0x4367 JUMP JUMPDEST SWAP1 SWAP2 SSTORE POP PUSH2 0x316D SWAP1 POP DUP2 DUP4 PUSH2 0x42B5 JUMP JUMPDEST SWAP7 SWAP6 POP POP POP POP POP POP JUMP JUMPDEST PUSH1 0x0 PUSH2 0x2622 DUP5 DUP5 DUP5 PUSH2 0x3769 JUMP JUMPDEST PUSH2 0x31D0 PUSH1 0x40 MLOAD DUP1 PUSH1 0xE0 ADD PUSH1 0x40 MSTORE DUP1 PUSH1 0x0 DUP1 NOT AND DUP2 MSTORE PUSH1 0x20 ADD PUSH1 0x0 DUP2 MSTORE PUSH1 0x20 ADD PUSH1 0x0 DUP2 MSTORE PUSH1 0x20 ADD PUSH1 0x60 DUP2 MSTORE PUSH1 0x20 ADD PUSH1 0x60 DUP2 MSTORE PUSH1 0x20 ADD PUSH1 0x60 DUP2 MSTORE PUSH1 0x20 ADD PUSH1 0x0 PUSH1 0x1 PUSH1 0x1 PUSH1 0xA0 SHL SUB AND DUP2 MSTORE POP SWAP1 JUMP JUMPDEST PUSH1 0x0 DUP4 DUP2 MSTORE PUSH1 0x1 DUP6 ADD PUSH1 0x20 MSTORE PUSH1 0x40 SWAP1 KECCAK256 SLOAD DUP3 DUP2 PUSH2 0x3200 JUMPI PUSH1 0x40 MLOAD PUSH3 0x461BCD PUSH1 0xE5 SHL DUP2 MSTORE PUSH1 0x4 ADD PUSH2 0xA2C SWAP2 SWAP1 PUSH2 0x41FD JUMP JUMPDEST POP DUP5 PUSH2 0x320D PUSH1 0x1 DUP4 PUSH2 0x42E8 JUMP JUMPDEST DUP2 SLOAD DUP2 LT PUSH2 0x321D JUMPI PUSH2 0x321D PUSH2 0x43D8 JUMP JUMPDEST SWAP1 PUSH1 0x0 MSTORE PUSH1 0x20 PUSH1 0x0 KECCAK256 SWAP1 PUSH1 0x7 MUL ADD PUSH1 0x40 MLOAD DUP1 PUSH1 0xE0 ADD PUSH1 0x40 MSTORE SWAP1 DUP2 PUSH1 0x0 DUP3 ADD SLOAD DUP2 MSTORE PUSH1 0x20 ADD PUSH1 0x1 DUP3 ADD SLOAD DUP2 MSTORE PUSH1 0x20 ADD PUSH1 0x2 DUP3 ADD SLOAD DUP2 MSTORE PUSH1 0x20 ADD PUSH1 0x3 DUP3 ADD DUP1 SLOAD DUP1 PUSH1 0x20 MUL PUSH1 0x20 ADD PUSH1 0x40 MLOAD SWAP1 DUP2 ADD PUSH1 0x40 MSTORE DUP1 SWAP3 SWAP2 SWAP1 DUP2 DUP2 MSTORE PUSH1 0x20 ADD DUP3 DUP1 SLOAD DUP1 ISZERO PUSH2 0x32A3 JUMPI PUSH1 0x20 MUL DUP3 ADD SWAP2 SWAP1 PUSH1 0x0 MSTORE PUSH1 0x20 PUSH1 0x0 KECCAK256 SWAP1 JUMPDEST DUP2 SLOAD DUP2 MSTORE PUSH1 0x20 ADD SWAP1 PUSH1 0x1 ADD SWAP1 DUP1 DUP4 GT PUSH2 0x328F JUMPI JUMPDEST POP POP POP POP POP DUP2 MSTORE PUSH1 0x20 ADD PUSH1 0x4 DUP3 ADD DUP1 SLOAD DUP1 PUSH1 0x20 MUL PUSH1 0x20 ADD PUSH1 0x40 MLOAD SWAP1 DUP2 ADD PUSH1 0x40 MSTORE DUP1 SWAP3 SWAP2 SWAP1 DUP2 DUP2 MSTORE PUSH1 0x20 ADD DUP3 DUP1 SLOAD DUP1 ISZERO PUSH2 0x32FB JUMPI PUSH1 0x20 MUL DUP3 ADD SWAP2 SWAP1 PUSH1 0x0 MSTORE PUSH1 0x20 PUSH1 0x0 KECCAK256 SWAP1 JUMPDEST DUP2 SLOAD DUP2 MSTORE PUSH1 0x20 ADD SWAP1 PUSH1 0x1 ADD SWAP1 DUP1 DUP4 GT PUSH2 0x32E7 JUMPI JUMPDEST POP POP POP POP POP DUP2 MSTORE PUSH1 0x20 ADD PUSH1 0x5 DUP3 ADD DUP1 SLOAD PUSH2 0x3314 SWAP1 PUSH2 0x42FF JUMP JUMPDEST DUP1 PUSH1 0x1F ADD PUSH1 0x20 DUP1 SWAP2 DIV MUL PUSH1 0x20 ADD PUSH1 0x40 MLOAD SWAP1 DUP2 ADD PUSH1 0x40 MSTORE DUP1 SWAP3 SWAP2 SWAP1 DUP2 DUP2 MSTORE PUSH1 0x20 ADD DUP3 DUP1 SLOAD PUSH2 0x3340 SWAP1 PUSH2 0x42FF JUMP JUMPDEST DUP1 ISZERO PUSH2 0x338D JUMPI DUP1 PUSH1 0x1F LT PUSH2 0x3362 JUMPI PUSH2 0x100 DUP1 DUP4 SLOAD DIV MUL DUP4 MSTORE SWAP2 PUSH1 0x20 ADD SWAP2 PUSH2 0x338D JUMP JUMPDEST DUP3 ADD SWAP2 SWAP1 PUSH1 0x0 MSTORE PUSH1 0x20 PUSH1 0x0 KECCAK256 SWAP1 JUMPDEST DUP2 SLOAD DUP2 MSTORE SWAP1 PUSH1 0x1 ADD SWAP1 PUSH1 0x20 ADD DUP1 DUP4 GT PUSH2 0x3370 JUMPI DUP3 SWAP1 SUB PUSH1 0x1F AND DUP3 ADD SWAP2 JUMPDEST POP POP POP SWAP2 DUP4 MSTORE POP POP PUSH1 0x6 SWAP2 SWAP1 SWAP2 ADD SLOAD PUSH1 0x1 PUSH1 0x1 PUSH1 0xA0 SHL SUB AND PUSH1 0x20 SWAP1 SWAP2 ADD MSTORE SWAP6 SWAP5 POP POP POP POP POP JUMP JUMPDEST DUP1 SLOAD PUSH1 0x60 SWAP1 PUSH1 0x0 SWAP1 PUSH8 0xFFFFFFFFFFFFFFFF DUP2 GT ISZERO PUSH2 0x33D4 JUMPI PUSH2 0x33D4 PUSH2 0x43EE JUMP JUMPDEST PUSH1 0x40 MLOAD SWAP1 DUP1 DUP3 MSTORE DUP1 PUSH1 0x20 MUL PUSH1 0x20 ADD DUP3 ADD PUSH1 0x40 MSTORE DUP1 ISZERO PUSH2 0x33FD JUMPI DUP2 PUSH1 0x20 ADD PUSH1 0x20 DUP3 MUL DUP1 CALLDATASIZE DUP4 CALLDATACOPY ADD SWAP1 POP JUMPDEST POP SWAP1 POP PUSH1 0x0 JUMPDEST DUP4 SLOAD DUP2 LT ISZERO PUSH2 0x3463 JUMPI DUP4 PUSH1 0x0 ADD DUP2 DUP2 SLOAD DUP2 LT PUSH2 0x3421 JUMPI PUSH2 0x3421 PUSH2 0x43D8 JUMP JUMPDEST SWAP1 PUSH1 0x0 MSTORE PUSH1 0x20 PUSH1 0x0 KECCAK256 SWAP1 PUSH1 0x7 MUL ADD PUSH1 0x0 ADD SLOAD PUSH1 0x0 SHR DUP3 DUP3 DUP2 MLOAD DUP2 LT PUSH2 0x3448 JUMPI PUSH2 0x3448 PUSH2 0x43D8 JUMP JUMPDEST PUSH1 0x20 SWAP1 DUP2 MUL SWAP2 SWAP1 SWAP2 ADD ADD MSTORE PUSH2 0x345C DUP2 PUSH2 0x4367 JUMP JUMPDEST SWAP1 POP PUSH2 0x3403 JUMP JUMPDEST POP SWAP3 SWAP2 POP POP JUMP JUMPDEST PUSH1 0x0 DUP8 DUP2 MSTORE PUSH1 0x1 DUP10 ADD PUSH1 0x20 MSTORE PUSH1 0x40 DUP2 KECCAK256 SLOAD DUP1 PUSH2 0x35B1 JUMPI DUP10 PUSH1 0x0 ADD PUSH1 0x40 MLOAD DUP1 PUSH1 0xE0 ADD PUSH1 0x40 MSTORE DUP1 DUP12 DUP2 MSTORE PUSH1 0x20 ADD DUP11 DUP2 MSTORE PUSH1 0x20 ADD DUP10 DUP2 MSTORE PUSH1 0x20 ADD DUP9 DUP2 MSTORE PUSH1 0x20 ADD DUP8 DUP2 MSTORE PUSH1 0x20 ADD DUP7 DUP2 MSTORE PUSH1 0x20 ADD DUP6 PUSH1 0x1 PUSH1 0x1 PUSH1 0xA0 SHL SUB AND DUP2 MSTORE POP SWAP1 DUP1 PUSH1 0x1 DUP2 SLOAD ADD DUP1 DUP3 SSTORE DUP1 SWAP2 POP POP PUSH1 0x1 SWAP1 SUB SWAP1 PUSH1 0x0 MSTORE PUSH1 0x20 PUSH1 0x0 KECCAK256 SWAP1 PUSH1 0x7 MUL ADD PUSH1 0x0 SWAP1 SWAP2 SWAP1 SWAP2 SWAP1 SWAP2 POP PUSH1 0x0 DUP3 ADD MLOAD DUP2 PUSH1 0x0 ADD SSTORE PUSH1 0x20 DUP3 ADD MLOAD DUP2 PUSH1 0x1 ADD SSTORE PUSH1 0x40 DUP3 ADD MLOAD DUP2 PUSH1 0x2 ADD SSTORE PUSH1 0x60 DUP3 ADD MLOAD DUP2 PUSH1 0x3 ADD SWAP1 DUP1 MLOAD SWAP1 PUSH1 0x20 ADD SWAP1 PUSH2 0x3523 SWAP3 SWAP2 SWAP1 PUSH2 0x37DC JUMP JUMPDEST POP PUSH1 0x80 DUP3 ADD MLOAD DUP1 MLOAD PUSH2 0x353F SWAP2 PUSH1 0x4 DUP5 ADD SWAP2 PUSH1 0x20 SWAP1 SWAP2 ADD SWAP1 PUSH2 0x37DC JUMP JUMPDEST POP PUSH1 0xA0 DUP3 ADD MLOAD DUP1 MLOAD PUSH2 0x355B SWAP2 PUSH1 0x5 DUP5 ADD SWAP2 PUSH1 0x20 SWAP1 SWAP2 ADD SWAP1 PUSH2 0x3827 JUMP JUMPDEST POP PUSH1 0xC0 SWAP2 SWAP1 SWAP2 ADD MLOAD PUSH1 0x6 SWAP1 SWAP2 ADD DUP1 SLOAD PUSH20 0xFFFFFFFFFFFFFFFFFFFFFFFFFFFFFFFFFFFFFFFF NOT AND PUSH1 0x1 PUSH1 0x1 PUSH1 0xA0 SHL SUB SWAP1 SWAP3 AND SWAP2 SWAP1 SWAP2 OR SWAP1 SSTORE POP POP DUP8 SLOAD PUSH1 0x0 DUP9 DUP2 MSTORE PUSH1 0x1 DUP11 DUP2 ADD PUSH1 0x20 MSTORE PUSH1 0x40 SWAP1 SWAP2 KECCAK256 SWAP2 SWAP1 SWAP2 SSTORE PUSH2 0x2D92 JUMP JUMPDEST DUP9 DUP11 PUSH2 0x35BE PUSH1 0x1 DUP5 PUSH2 0x42E8 JUMP JUMPDEST DUP2 SLOAD DUP2 LT PUSH2 0x35CE JUMPI PUSH2 0x35CE PUSH2 0x43D8 JUMP JUMPDEST PUSH1 0x0 SWAP2 DUP3 MSTORE PUSH1 0x20 SWAP1 SWAP2 KECCAK256 PUSH1 0x7 SWAP1 SWAP2 MUL ADD SSTORE DUP8 DUP11 PUSH2 0x35EC PUSH1 0x1 DUP5 PUSH2 0x42E8 JUMP JUMPDEST DUP2 SLOAD DUP2 LT PUSH2 0x35FC JUMPI PUSH2 0x35FC PUSH2 0x43D8 JUMP JUMPDEST SWAP1 PUSH1 0x0 MSTORE PUSH1 0x20 PUSH1 0x0 KECCAK256 SWAP1 PUSH1 0x7 MUL ADD PUSH1 0x1 ADD DUP2 SWAP1 SSTORE POP DUP7 DUP11 PUSH1 0x0 ADD PUSH1 0x1 DUP4 PUSH2 0x3623 SWAP2 SWAP1 PUSH2 0x42E8 JUMP JUMPDEST DUP2 SLOAD DUP2 LT PUSH2 0x3633 JUMPI PUSH2 0x3633 PUSH2 0x43D8 JUMP JUMPDEST PUSH1 0x0 SWAP2 DUP3 MSTORE PUSH1 0x20 SWAP1 SWAP2 KECCAK256 PUSH1 0x2 PUSH1 0x7 SWAP1 SWAP3 MUL ADD ADD SSTORE DUP6 DUP11 PUSH2 0x3654 PUSH1 0x1 DUP5 PUSH2 0x42E8 JUMP JUMPDEST DUP2 SLOAD DUP2 LT PUSH2 0x3664 JUMPI PUSH2 0x3664 PUSH2 0x43D8 JUMP JUMPDEST SWAP1 PUSH1 0x0 MSTORE PUSH1 0x20 PUSH1 0x0 KECCAK256 SWAP1 PUSH1 0x7 MUL ADD PUSH1 0x3 ADD SWAP1 DUP1 MLOAD SWAP1 PUSH1 0x20 ADD SWAP1 PUSH2 0x3688 SWAP3 SWAP2 SWAP1 PUSH2 0x37DC JUMP JUMPDEST POP DUP5 DUP11 PUSH2 0x3696 PUSH1 0x1 DUP5 PUSH2 0x42E8 JUMP JUMPDEST DUP2 SLOAD DUP2 LT PUSH2 0x36A6 JUMPI PUSH2 0x36A6 PUSH2 0x43D8 JUMP JUMPDEST SWAP1 PUSH1 0x0 MSTORE PUSH1 0x20 PUSH1 0x0 KECCAK256 SWAP1 PUSH1 0x7 MUL ADD PUSH1 0x4 ADD SWAP1 DUP1 MLOAD SWAP1 PUSH1 0x20 ADD SWAP1 PUSH2 0x36CA SWAP3 SWAP2 SWAP1 PUSH2 0x37DC JUMP JUMPDEST POP DUP4 DUP11 PUSH2 0x36D8 PUSH1 0x1 DUP5 PUSH2 0x42E8 JUMP JUMPDEST DUP2 SLOAD DUP2 LT PUSH2 0x36E8 JUMPI PUSH2 0x36E8 PUSH2 0x43D8 JUMP JUMPDEST SWAP1 PUSH1 0x0 MSTORE PUSH1 0x20 PUSH1 0x0 KECCAK256 SWAP1 PUSH1 0x7 MUL ADD PUSH1 0x5 ADD SWAP1 DUP1 MLOAD SWAP1 PUSH1 0x20 ADD SWAP1 PUSH2 0x370C SWAP3 SWAP2 SWAP1 PUSH2 0x3827 JUMP JUMPDEST POP DUP3 DUP11 PUSH2 0x371A PUSH1 0x1 DUP5 PUSH2 0x42E8 JUMP JUMPDEST DUP2 SLOAD DUP2 LT PUSH2 0x372A JUMPI PUSH2 0x372A PUSH2 0x43D8 JUMP JUMPDEST SWAP1 PUSH1 0x0 MSTORE PUSH1 0x20 PUSH1 0x0 KECCAK256 SWAP1 PUSH1 0x7 MUL ADD PUSH1 0x6 ADD PUSH1 0x0 PUSH2 0x100 EXP DUP2 SLOAD DUP2 PUSH1 0x1 PUSH1 0x1 PUSH1 0xA0 SHL SUB MUL NOT AND SWAP1 DUP4 PUSH1 0x1 PUSH1 0x1 PUSH1 0xA0 SHL SUB AND MUL OR SWAP1 SSTORE POP PUSH1 0x0 SWAP2 POP POP PUSH2 0x2D92 JUMP JUMPDEST PUSH1 0x0 DUP3 DUP2 MSTORE PUSH1 0x1 DUP5 ADD PUSH1 0x20 MSTORE PUSH1 0x40 DUP2 KECCAK256 SLOAD DUP3 DUP2 PUSH2 0x3799 JUMPI PUSH1 0x40 MLOAD PUSH3 0x461BCD PUSH1 0xE5 SHL DUP2 MSTORE PUSH1 0x4 ADD PUSH2 0xA2C SWAP2 SWAP1 PUSH2 0x41FD JUMP JUMPDEST POP DUP5 PUSH2 0x37A6 PUSH1 0x1 DUP4 PUSH2 0x42E8 JUMP JUMPDEST DUP2 SLOAD DUP2 LT PUSH2 0x37B6 JUMPI PUSH2 0x37B6 PUSH2 0x43D8 JUMP JUMPDEST PUSH1 0x0 SWAP2 DUP3 MSTORE PUSH1 0x20 SWAP1 SWAP2 KECCAK256 PUSH1 0x7 SWAP1 SWAP2 MUL ADD PUSH1 0x6 ADD SLOAD PUSH1 0x1 PUSH1 0x1 PUSH1 0xA0 SHL SUB AND SWAP6 SWAP5 POP POP POP POP POP JUMP JUMPDEST DUP3 DUP1 SLOAD DUP3 DUP3 SSTORE SWAP1 PUSH1 0x0 MSTORE PUSH1 0x20 PUSH1 0x0 KECCAK256 SWAP1 DUP2 ADD SWAP3 DUP3 ISZERO PUSH2 0x3817 JUMPI SWAP2 PUSH1 0x20 MUL DUP3 ADD JUMPDEST DUP3 DUP2 GT ISZERO PUSH2 0x3817 JUMPI DUP3 MLOAD DUP3 SSTORE SWAP2 PUSH1 0x20 ADD SWAP2 SWAP1 PUSH1 0x1 ADD SWAP1 PUSH2 0x37FC JUMP JUMPDEST POP PUSH2 0x3823 SWAP3 SWAP2 POP PUSH2 0x389A JUMP JUMPDEST POP SWAP1 JUMP JUMPDEST DUP3 DUP1 SLOAD PUSH2 0x3833 SWAP1 PUSH2 0x42FF JUMP JUMPDEST SWAP1 PUSH1 0x0 MSTORE PUSH1 0x20 PUSH1 0x0 KECCAK256 SWAP1 PUSH1 0x1F ADD PUSH1 0x20 SWAP1 DIV DUP2 ADD SWAP3 DUP3 PUSH2 0x3855 JUMPI PUSH1 0x0 DUP6 SSTORE PUSH2 0x3817 JUMP JUMPDEST DUP3 PUSH1 0x1F LT PUSH2 0x386E JUMPI DUP1 MLOAD PUSH1 0xFF NOT AND DUP4 DUP1 ADD OR DUP6 SSTORE PUSH2 0x3817 JUMP JUMPDEST DUP3 DUP1 ADD PUSH1 0x1 ADD DUP6 SSTORE DUP3 ISZERO PUSH2 0x3817 JUMPI SWAP2 DUP3 ADD DUP3 DUP2 GT ISZERO PUSH2 0x3817 JUMPI DUP3 MLOAD DUP3 SSTORE SWAP2 PUSH1 0x20 ADD SWAP2 SWAP1 PUSH1 0x1 ADD SWAP1 PUSH2 0x37FC JUMP JUMPDEST JUMPDEST DUP1 DUP3 GT ISZERO PUSH2 0x3823 JUMPI PUSH1 0x0 DUP2 SSTORE PUSH1 0x1 ADD PUSH2 0x389B JUMP JUMPDEST DUP1 CALLDATALOAD PUSH1 0x1 PUSH1 0x1 PUSH1 0xA0 SHL SUB DUP2 AND DUP2 EQ PUSH2 0x38C6 JUMPI PUSH1 0x0 DUP1 REVERT JUMPDEST SWAP2 SWAP1 POP JUMP JUMPDEST PUSH1 0x0 DUP3 PUSH1 0x1F DUP4 ADD SLT PUSH2 0x38DC JUMPI PUSH1 0x0 DUP1 REVERT JUMPDEST DUP2 CALLDATALOAD PUSH1 0x20 PUSH2 0x38E9 DUP3 PUSH2 0x4279 JUMP JUMPDEST PUSH1 0x40 MLOAD PUSH2 0x38F6 DUP3 DUP3 PUSH2 0x433A JUMP JUMPDEST DUP4 DUP2 MSTORE DUP3 DUP2 ADD SWAP2 POP DUP6 DUP4 ADD PUSH1 0x5 DUP6 SWAP1 SHL DUP8 ADD DUP5 ADD DUP9 LT ISZERO PUSH2 0x3916 JUMPI PUSH1 0x0 DUP1 REVERT JUMPDEST PUSH1 0x0 JUMPDEST DUP6 DUP2 LT ISZERO PUSH2 0x3935 JUMPI DUP2 CALLDATALOAD DUP5 MSTORE SWAP3 DUP5 ADD SWAP3 SWAP1 DUP5 ADD SWAP1 PUSH1 0x1 ADD PUSH2 0x3919 JUMP JUMPDEST POP SWAP1 SWAP8 SWAP7 POP POP POP POP POP POP POP JUMP JUMPDEST PUSH1 0x0 DUP3 PUSH1 0x1F DUP4 ADD SLT PUSH2 0x3953 JUMPI PUSH1 0x0 DUP1 REVERT JUMPDEST DUP2 CALLDATALOAD PUSH8 0xFFFFFFFFFFFFFFFF DUP2 GT ISZERO PUSH2 0x396D JUMPI PUSH2 0x396D PUSH2 0x43EE JUMP JUMPDEST PUSH1 0x40 MLOAD PUSH2 0x3984 PUSH1 0x1F DUP4 ADD PUSH1 0x1F NOT AND PUSH1 0x20 ADD DUP3 PUSH2 0x433A JUMP JUMPDEST DUP2 DUP2 MSTORE DUP5 PUSH1 0x20 DUP4 DUP7 ADD ADD GT ISZERO PUSH2 0x3999 JUMPI PUSH1 0x0 DUP1 REVERT JUMPDEST DUP2 PUSH1 0x20 DUP6 ADD PUSH1 0x20 DUP4 ADD CALLDATACOPY PUSH1 0x0 SWAP2 DUP2 ADD PUSH1 0x20 ADD SWAP2 SWAP1 SWAP2 MSTORE SWAP4 SWAP3 POP POP POP JUMP JUMPDEST PUSH1 0x0 PUSH1 0x20 DUP3 DUP5 SUB SLT ISZERO PUSH2 0x39C8 JUMPI PUSH1 0x0 DUP1 REVERT JUMPDEST PUSH2 0x25EA DUP3 PUSH2 0x38AF JUMP JUMPDEST PUSH1 0x0 DUP1 PUSH1 0x40 DUP4 DUP6 SUB SLT ISZERO PUSH2 0x39E4 JUMPI PUSH1 0x0 DUP1 REVERT JUMPDEST PUSH2 0x39ED DUP4 PUSH2 0x38AF JUMP JUMPDEST SWAP2 POP PUSH2 0x39FB PUSH1 0x20 DUP5 ADD PUSH2 0x38AF JUMP JUMPDEST SWAP1 POP SWAP3 POP SWAP3 SWAP1 POP JUMP JUMPDEST PUSH1 0x0 DUP1 PUSH1 0x0 DUP1 PUSH1 0x0 PUSH1 0xA0 DUP7 DUP9 SUB SLT ISZERO PUSH2 0x3A1C JUMPI PUSH1 0x0 DUP1 REVERT JUMPDEST PUSH2 0x3A25 DUP7 PUSH2 0x38AF JUMP JUMPDEST SWAP5 POP PUSH2 0x3A33 PUSH1 0x20 DUP8 ADD PUSH2 0x38AF JUMP JUMPDEST SWAP4 POP PUSH1 0x40 DUP7 ADD CALLDATALOAD PUSH8 0xFFFFFFFFFFFFFFFF DUP1 DUP3 GT ISZERO PUSH2 0x3A50 JUMPI PUSH1 0x0 DUP1 REVERT JUMPDEST PUSH2 0x3A5C DUP10 DUP4 DUP11 ADD PUSH2 0x38CB JUMP JUMPDEST SWAP5 POP PUSH1 0x60 DUP9 ADD CALLDATALOAD SWAP2 POP DUP1 DUP3 GT ISZERO PUSH2 0x3A72 JUMPI PUSH1 0x0 DUP1 REVERT JUMPDEST PUSH2 0x3A7E DUP10 DUP4 DUP11 ADD PUSH2 0x38CB JUMP JUMPDEST SWAP4 POP PUSH1 0x80 DUP9 ADD CALLDATALOAD SWAP2 POP DUP1 DUP3 GT ISZERO PUSH2 0x3A94 JUMPI PUSH1 0x0 DUP1 REVERT JUMPDEST POP PUSH2 0x3AA1 DUP9 DUP3 DUP10 ADD PUSH2 0x3942 JUMP JUMPDEST SWAP2 POP POP SWAP3 SWAP6 POP SWAP3 SWAP6 SWAP1 SWAP4 POP JUMP JUMPDEST PUSH1 0x0 DUP1 PUSH1 0x0 PUSH1 0x60 DUP5 DUP7 SUB SLT ISZERO PUSH2 0x3AC3 JUMPI PUSH1 0x0 DUP1 REVERT JUMPDEST PUSH2 0x3ACC DUP5 PUSH2 0x38AF JUMP JUMPDEST SWAP3 POP PUSH2 0x3ADA PUSH1 0x20 DUP6 ADD PUSH2 0x38AF JUMP JUMPDEST SWAP2 POP PUSH1 0x40 DUP5 ADD CALLDATALOAD SWAP1 POP SWAP3 POP SWAP3 POP SWAP3 JUMP JUMPDEST PUSH1 0x0 DUP1 PUSH1 0x0 DUP1 PUSH1 0x0 PUSH1 0xA0 DUP7 DUP9 SUB SLT ISZERO PUSH2 0x3B02 JUMPI PUSH1 0x0 DUP1 REVERT JUMPDEST PUSH2 0x3B0B DUP7 PUSH2 0x38AF JUMP JUMPDEST SWAP5 POP PUSH2 0x3B19 PUSH1 0x20 DUP8 ADD PUSH2 0x38AF JUMP JUMPDEST SWAP4 POP PUSH1 0x40 DUP7 ADD CALLDATALOAD SWAP3 POP PUSH1 0x60 DUP7 ADD CALLDATALOAD SWAP2 POP PUSH1 0x80 DUP7 ADD CALLDATALOAD PUSH8 0xFFFFFFFFFFFFFFFF DUP2 GT ISZERO PUSH2 0x3B43 JUMPI PUSH1 0x0 DUP1 REVERT JUMPDEST PUSH2 0x3AA1 DUP9 DUP3 DUP10 ADD PUSH2 0x3942 JUMP JUMPDEST PUSH1 0x0 DUP1 PUSH1 0x40 DUP4 DUP6 SUB SLT ISZERO PUSH2 0x3B62 JUMPI PUSH1 0x0 DUP1 REVERT JUMPDEST PUSH2 0x3B6B DUP4 PUSH2 0x38AF JUMP JUMPDEST SWAP2 POP PUSH1 0x20 DUP4 ADD CALLDATALOAD DUP1 ISZERO ISZERO DUP2 EQ PUSH2 0x3B80 JUMPI PUSH1 0x0 DUP1 REVERT JUMPDEST DUP1 SWAP2 POP POP SWAP3 POP SWAP3 SWAP1 POP JUMP JUMPDEST PUSH1 0x0 DUP1 PUSH1 0x40 DUP4 DUP6 SUB SLT ISZERO PUSH2 0x3B9E JUMPI PUSH1 0x0 DUP1 REVERT JUMPDEST PUSH2 0x3BA7 DUP4 PUSH2 0x38AF JUMP JUMPDEST SWAP5 PUSH1 0x20 SWAP4 SWAP1 SWAP4 ADD CALLDATALOAD SWAP4 POP POP POP JUMP JUMPDEST PUSH1 0x0 DUP1 PUSH1 0x40 DUP4 DUP6 SUB SLT ISZERO PUSH2 0x3BC8 JUMPI PUSH1 0x0 DUP1 REVERT JUMPDEST DUP3 CALLDATALOAD PUSH8 0xFFFFFFFFFFFFFFFF DUP1 DUP3 GT ISZERO PUSH2 0x3BE0 JUMPI PUSH1 0x0 DUP1 REVERT JUMPDEST DUP2 DUP6 ADD SWAP2 POP DUP6 PUSH1 0x1F DUP4 ADD SLT PUSH2 0x3BF4 JUMPI PUSH1 0x0 DUP1 REVERT JUMPDEST DUP2 CALLDATALOAD PUSH1 0x20 PUSH2 0x3C01 DUP3 PUSH2 0x4279 JUMP JUMPDEST PUSH1 0x40 MLOAD PUSH2 0x3C0E DUP3 DUP3 PUSH2 0x433A JUMP JUMPDEST DUP4 DUP2 MSTORE DUP3 DUP2 ADD SWAP2 POP DUP6 DUP4 ADD PUSH1 0x5 DUP6 SWAP1 SHL DUP8 ADD DUP5 ADD DUP12 LT ISZERO PUSH2 0x3C2E JUMPI PUSH1 0x0 DUP1 REVERT JUMPDEST PUSH1 0x0 SWAP7 POP JUMPDEST DUP5 DUP8 LT ISZERO PUSH2 0x3C58 JUMPI PUSH2 0x3C44 DUP2 PUSH2 0x38AF JUMP JUMPDEST DUP4 MSTORE PUSH1 0x1 SWAP7 SWAP1 SWAP7 ADD SWAP6 SWAP2 DUP4 ADD SWAP2 DUP4 ADD PUSH2 0x3C33 JUMP JUMPDEST POP SWAP7 POP POP DUP7 ADD CALLDATALOAD SWAP3 POP POP DUP1 DUP3 GT ISZERO PUSH2 0x3C6F JUMPI PUSH1 0x0 DUP1 REVERT JUMPDEST POP PUSH2 0x3C7C DUP6 DUP3 DUP7 ADD PUSH2 0x38CB JUMP JUMPDEST SWAP2 POP POP SWAP3 POP SWAP3 SWAP1 POP JUMP JUMPDEST PUSH1 0x0 PUSH1 0x20 DUP1 DUP4 DUP6 SUB SLT ISZERO PUSH2 0x3C99 JUMPI PUSH1 0x0 DUP1 REVERT JUMPDEST DUP3 CALLDATALOAD PUSH8 0xFFFFFFFFFFFFFFFF DUP2 GT ISZERO PUSH2 0x3CB0 JUMPI PUSH1 0x0 DUP1 REVERT JUMPDEST DUP4 ADD PUSH1 0x1F DUP2 ADD DUP6 SGT PUSH2 0x3CC1 JUMPI PUSH1 0x0 DUP1 REVERT JUMPDEST DUP1 CALLDATALOAD PUSH2 0x3CCC DUP2 PUSH2 0x4279 JUMP JUMPDEST PUSH1 0x40 MLOAD PUSH2 0x3CD9 DUP3 DUP3 PUSH2 0x433A JUMP JUMPDEST DUP3 DUP2 MSTORE DUP5 DUP2 ADD SWAP2 POP DUP4 DUP6 ADD PUSH1 0x5 DUP5 SWAP1 SHL DUP6 ADD DUP7 ADD DUP10 LT ISZERO PUSH2 0x3CF9 JUMPI PUSH1 0x0 DUP1 REVERT JUMPDEST PUSH1 0x0 SWAP5 POP JUMPDEST DUP4 DUP6 LT ISZERO PUSH2 0x3D1C JUMPI DUP1 CALLDATALOAD DUP4 MSTORE PUSH1 0x1 SWAP5 SWAP1 SWAP5 ADD SWAP4 SWAP2 DUP6 ADD SWAP2 DUP6 ADD PUSH2 0x3CFE JUMP JUMPDEST POP SWAP8 SWAP7 POP POP POP POP POP POP POP JUMP JUMPDEST PUSH1 0x0 PUSH1 0x20 DUP3 DUP5 SUB SLT ISZERO PUSH2 0x3D3A JUMPI PUSH1 0x0 DUP1 REVERT JUMPDEST DUP2 CALLDATALOAD PUSH8 0xFFFFFFFFFFFFFFFF DUP2 GT ISZERO PUSH2 0x3D51 JUMPI PUSH1 0x0 DUP1 REVERT JUMPDEST PUSH2 0x2622 DUP5 DUP3 DUP6 ADD PUSH2 0x38CB JUMP JUMPDEST PUSH1 0x0 DUP1 PUSH1 0x40 DUP4 DUP6 SUB SLT ISZERO PUSH2 0x3D70 JUMPI PUSH1 0x0 DUP1 REVERT JUMPDEST DUP3 CALLDATALOAD PUSH8 0xFFFFFFFFFFFFFFFF DUP1 DUP3 GT ISZERO PUSH2 0x3D88 JUMPI PUSH1 0x0 DUP1 REVERT JUMPDEST PUSH2 0x3D94 DUP7 DUP4 DUP8 ADD PUSH2 0x38CB JUMP JUMPDEST SWAP4 POP PUSH1 0x20 DUP6 ADD CALLDATALOAD SWAP2 POP DUP1 DUP3 GT ISZERO PUSH2 0x3C6F JUMPI PUSH1 0x0 DUP1 REVERT JUMPDEST PUSH1 0x0 DUP1 PUSH1 0x0 PUSH1 0x60 DUP5 DUP7 SUB SLT ISZERO PUSH2 0x3DBF JUMPI PUSH1 0x0 DUP1 REVERT JUMPDEST DUP4 CALLDATALOAD PUSH8 0xFFFFFFFFFFFFFFFF DUP1 DUP3 GT ISZERO PUSH2 0x3DD7 JUMPI PUSH1 0x0 DUP1 REVERT JUMPDEST PUSH2 0x3DE3 DUP8 DUP4 DUP9 ADD PUSH2 0x38CB JUMP JUMPDEST SWAP5 POP PUSH1 0x20 DUP7 ADD CALLDATALOAD SWAP2 POP DUP1 DUP3 GT ISZERO PUSH2 0x3DF9 JUMPI PUSH1 0x0 DUP1 REVERT JUMPDEST POP PUSH2 0x3E06 DUP7 DUP3 DUP8 ADD PUSH2 0x38CB JUMP JUMPDEST SWAP3 POP POP PUSH2 0x3E15 PUSH1 0x40 DUP6 ADD PUSH2 0x38AF JUMP JUMPDEST SWAP1 POP SWAP3 POP SWAP3 POP SWAP3 JUMP JUMPDEST PUSH1 0x0 DUP1 PUSH1 0x0 DUP1 PUSH1 0x0 PUSH1 0xA0 DUP7 DUP9 SUB SLT ISZERO PUSH2 0x3E36 JUMPI PUSH1 0x0 DUP1 REVERT JUMPDEST DUP6 CALLDATALOAD PUSH8 0xFFFFFFFFFFFFFFFF DUP1 DUP3 GT ISZERO PUSH2 0x3E4E JUMPI PUSH1 0x0 DUP1 REVERT JUMPDEST PUSH2 0x3E5A DUP10 DUP4 DUP11 ADD PUSH2 0x38CB JUMP JUMPDEST SWAP7 POP PUSH1 0x20 DUP9 ADD CALLDATALOAD SWAP2 POP DUP1 DUP3 GT ISZERO PUSH2 0x3E70 JUMPI PUSH1 0x0 DUP1 REVERT JUMPDEST PUSH2 0x3E7C DUP10 DUP4 DUP11 ADD PUSH2 0x38CB JUMP JUMPDEST SWAP6 POP PUSH1 0x40 DUP9 ADD CALLDATALOAD SWAP5 POP PUSH1 0x60 DUP9 ADD CALLDATALOAD SWAP4 POP PUSH1 0x80 DUP9 ADD CALLDATALOAD SWAP2 POP DUP1 DUP3 GT ISZERO PUSH2 0x3A94 JUMPI PUSH1 0x0 DUP1 REVERT JUMPDEST PUSH1 0x0 PUSH1 0x20 DUP3 DUP5 SUB SLT ISZERO PUSH2 0x3EB2 JUMPI PUSH1 0x0 DUP1 REVERT JUMPDEST DUP2 CALLDATALOAD PUSH2 0x25EA DUP2 PUSH2 0x44AA JUMP JUMPDEST PUSH1 0x0 PUSH1 0x20 DUP3 DUP5 SUB SLT ISZERO PUSH2 0x3ECF JUMPI PUSH1 0x0 DUP1 REVERT JUMPDEST DUP2 MLOAD PUSH2 0x25EA DUP2 PUSH2 0x44AA JUMP JUMPDEST PUSH1 0x0 PUSH1 0x20 DUP3 DUP5 SUB SLT ISZERO PUSH2 0x3EEC JUMPI PUSH1 0x0 DUP1 REVERT JUMPDEST DUP2 CALLDATALOAD PUSH8 0xFFFFFFFFFFFFFFFF DUP2 GT ISZERO PUSH2 0x3F03 JUMPI PUSH1 0x0 DUP1 REVERT JUMPDEST PUSH2 0x2622 DUP5 DUP3 DUP6 ADD PUSH2 0x3942 JUMP JUMPDEST PUSH1 0x0 PUSH1 0x20 DUP3 DUP5 SUB SLT ISZERO PUSH2 0x3F21 JUMPI PUSH1 0x0 DUP1 REVERT JUMPDEST POP CALLDATALOAD SWAP2 SWAP1 POP JUMP JUMPDEST PUSH1 0x0 DUP1 PUSH1 0x0 PUSH1 0x60 DUP5 DUP7 SUB SLT ISZERO PUSH2 0x3F3D JUMPI PUSH1 0x0 DUP1 REVERT JUMPDEST DUP4 CALLDATALOAD SWAP3 POP PUSH1 0x20 DUP5 ADD CALLDATALOAD PUSH8 0xFFFFFFFFFFFFFFFF DUP1 DUP3 GT ISZERO PUSH2 0x3F5C JUMPI PUSH1 0x0 DUP1 REVERT JUMPDEST PUSH2 0x3F68 DUP8 DUP4 DUP9 ADD PUSH2 0x38CB JUMP JUMPDEST SWAP4 POP PUSH1 0x40 DUP7 ADD CALLDATALOAD SWAP2 POP DUP1 DUP3 GT ISZERO PUSH2 0x3F7E JUMPI PUSH1 0x0 DUP1 REVERT JUMPDEST POP PUSH2 0x3F8B DUP7 DUP3 DUP8 ADD PUSH2 0x3942 JUMP JUMPDEST SWAP2 POP POP SWAP3 POP SWAP3 POP SWAP3 JUMP JUMPDEST PUSH1 0x0 DUP1 PUSH1 0x40 DUP4 DUP6 SUB SLT ISZERO PUSH2 0x3FA8 JUMPI PUSH1 0x0 DUP1 REVERT JUMPDEST POP POP DUP1 CALLDATALOAD SWAP3 PUSH1 0x20 SWAP1 SWAP2 ADD CALLDATALOAD SWAP2 POP JUMP JUMPDEST PUSH1 0x0 DUP1 PUSH1 0x0 DUP1 PUSH1 0x0 DUP1 PUSH1 0xC0 DUP8 DUP10 SUB SLT ISZERO PUSH2 0x3FD0 JUMPI PUSH1 0x0 DUP1 REVERT JUMPDEST DUP7 CALLDATALOAD SWAP6 POP PUSH1 0x20 DUP8 ADD CALLDATALOAD SWAP5 POP PUSH1 0x40 DUP8 ADD CALLDATALOAD SWAP4 POP PUSH1 0x60 DUP8 ADD CALLDATALOAD PUSH8 0xFFFFFFFFFFFFFFFF DUP1 DUP3 GT ISZERO PUSH2 0x3FFD JUMPI PUSH1 0x0 DUP1 REVERT JUMPDEST PUSH2 0x4009 DUP11 DUP4 DUP12 ADD PUSH2 0x38CB JUMP JUMPDEST SWAP5 POP PUSH1 0x80 DUP10 ADD CALLDATALOAD SWAP2 POP DUP1 DUP3 GT ISZERO PUSH2 0x401F JUMPI PUSH1 0x0 DUP1 REVERT JUMPDEST PUSH2 0x402B DUP11 DUP4 DUP12 ADD PUSH2 0x38CB JUMP JUMPDEST SWAP4 POP PUSH1 0xA0 DUP10 ADD CALLDATALOAD SWAP2 POP DUP1 DUP3 GT ISZERO PUSH2 0x4041 JUMPI PUSH1 0x0 DUP1 REVERT JUMPDEST POP PUSH2 0x404E DUP10 DUP3 DUP11 ADD PUSH2 0x3942 JUMP JUMPDEST SWAP2 POP POP SWAP3 SWAP6 POP SWAP3 SWAP6 POP SWAP3 SWAP6 JUMP JUMPDEST PUSH1 0x0 DUP2 MLOAD DUP1 DUP5 MSTORE PUSH1 0x20 DUP1 DUP6 ADD SWAP5 POP DUP1 DUP5 ADD PUSH1 0x0 JUMPDEST DUP4 DUP2 LT ISZERO PUSH2 0x408B JUMPI DUP2 MLOAD DUP8 MSTORE SWAP6 DUP3 ADD SWAP6 SWAP1 DUP3 ADD SWAP1 PUSH1 0x1 ADD PUSH2 0x406F JUMP JUMPDEST POP SWAP5 SWAP6 SWAP5 POP POP POP POP POP JUMP JUMPDEST PUSH1 0x0 DUP2 MLOAD DUP1 DUP5 MSTORE PUSH1 0x0 JUMPDEST DUP2 DUP2 LT ISZERO PUSH2 0x40BC JUMPI PUSH1 0x20 DUP2 DUP6 ADD DUP2 ADD MLOAD DUP7 DUP4 ADD DUP3 ADD MSTORE ADD PUSH2 0x40A0 JUMP JUMPDEST DUP2 DUP2 GT ISZERO PUSH2 0x40CE JUMPI PUSH1 0x0 PUSH1 0x20 DUP4 DUP8 ADD ADD MSTORE JUMPDEST POP PUSH1 0x1F ADD PUSH1 0x1F NOT AND SWAP3 SWAP1 SWAP3 ADD PUSH1 0x20 ADD SWAP3 SWAP2 POP POP JUMP JUMPDEST PUSH1 0x0 PUSH1 0x1 PUSH1 0x1 PUSH1 0xA0 SHL SUB DUP1 DUP9 AND DUP4 MSTORE DUP1 DUP8 AND PUSH1 0x20 DUP5 ADD MSTORE POP PUSH1 0xA0 PUSH1 0x40 DUP4 ADD MSTORE PUSH2 0x410F PUSH1 0xA0 DUP4 ADD DUP7 PUSH2 0x405B JUMP JUMPDEST DUP3 DUP2 SUB PUSH1 0x60 DUP5 ADD MSTORE PUSH2 0x4121 DUP2 DUP7 PUSH2 0x405B JUMP JUMPDEST SWAP1 POP DUP3 DUP2 SUB PUSH1 0x80 DUP5 ADD MSTORE PUSH2 0x2D92 DUP2 DUP6 PUSH2 0x4096 JUMP JUMPDEST PUSH1 0x0 PUSH1 0x1 PUSH1 0x1 PUSH1 0xA0 SHL SUB DUP1 DUP9 AND DUP4 MSTORE DUP1 DUP8 AND PUSH1 0x20 DUP5 ADD MSTORE POP DUP5 PUSH1 0x40 DUP4 ADD MSTORE DUP4 PUSH1 0x60 DUP4 ADD MSTORE PUSH1 0xA0 PUSH1 0x80 DUP4 ADD MSTORE PUSH2 0x416D PUSH1 0xA0 DUP4 ADD DUP5 PUSH2 0x4096 JUMP JUMPDEST SWAP8 SWAP7 POP POP POP POP POP POP POP JUMP JUMPDEST PUSH1 0x20 DUP1 DUP3 MSTORE DUP3 MLOAD DUP3 DUP3 ADD DUP2 SWAP1 MSTORE PUSH1 0x0 SWAP2 SWAP1 DUP5 DUP3 ADD SWAP1 PUSH1 0x40 DUP6 ADD SWAP1 DUP5 JUMPDEST DUP2 DUP2 LT ISZERO PUSH2 0x41B0 JUMPI DUP4 MLOAD DUP4 MSTORE SWAP3 DUP5 ADD SWAP3 SWAP2 DUP5 ADD SWAP2 PUSH1 0x1 ADD PUSH2 0x4194 JUMP JUMPDEST POP SWAP1 SWAP7 SWAP6 POP POP POP POP POP POP JUMP JUMPDEST PUSH1 0x20 DUP2 MSTORE PUSH1 0x0 PUSH2 0x25EA PUSH1 0x20 DUP4 ADD DUP5 PUSH2 0x405B JUMP JUMPDEST PUSH1 0x40 DUP2 MSTORE PUSH1 0x0 PUSH2 0x41E2 PUSH1 0x40 DUP4 ADD DUP6 PUSH2 0x405B JUMP JUMPDEST DUP3 DUP2 SUB PUSH1 0x20 DUP5 ADD MSTORE PUSH2 0x41F4 DUP2 DUP6 PUSH2 0x405B JUMP JUMPDEST SWAP6 SWAP5 POP POP POP POP POP JUMP JUMPDEST PUSH1 0x20 DUP2 MSTORE PUSH1 0x0 PUSH2 0x25EA PUSH1 0x20 DUP4 ADD DUP5 PUSH2 0x4096 JUMP JUMPDEST DUP8 DUP2 MSTORE DUP7 PUSH1 0x20 DUP3 ADD MSTORE DUP6 PUSH1 0x40 DUP3 ADD MSTORE PUSH1 0xE0 PUSH1 0x60 DUP3 ADD MSTORE PUSH1 0x0 PUSH2 0x4235 PUSH1 0xE0 DUP4 ADD DUP8 PUSH2 0x405B JUMP JUMPDEST DUP3 DUP2 SUB PUSH1 0x80 DUP5 ADD MSTORE PUSH2 0x4247 DUP2 DUP8 PUSH2 0x405B JUMP JUMPDEST SWAP1 POP DUP3 DUP2 SUB PUSH1 0xA0 DUP5 ADD MSTORE PUSH2 0x425B DUP2 DUP7 PUSH2 0x4096 JUMP JUMPDEST SWAP2 POP POP PUSH1 0x1 PUSH1 0x1 PUSH1 0xA0 SHL SUB DUP4 AND PUSH1 0xC0 DUP4 ADD MSTORE SWAP9 SWAP8 POP POP POP POP POP POP POP POP JUMP JUMPDEST PUSH1 0x0 PUSH8 0xFFFFFFFFFFFFFFFF DUP3 GT ISZERO PUSH2 0x4293 JUMPI PUSH2 0x4293 PUSH2 0x43EE JUMP JUMPDEST POP PUSH1 0x5 SHL PUSH1 0x20 ADD SWAP1 JUMP JUMPDEST PUSH1 0x0 DUP3 NOT DUP3 GT ISZERO PUSH2 0x42B0 JUMPI PUSH2 0x42B0 PUSH2 0x4396 JUMP JUMPDEST POP ADD SWAP1 JUMP JUMPDEST PUSH1 0x0 DUP3 PUSH2 0x42C4 JUMPI PUSH2 0x42C4 PUSH2 0x43AC JUMP JUMPDEST POP DIV SWAP1 JUMP JUMPDEST PUSH1 0x0 DUP2 PUSH1 0x0 NOT DIV DUP4 GT DUP3 ISZERO ISZERO AND ISZERO PUSH2 0x42E3 JUMPI PUSH2 0x42E3 PUSH2 0x4396 JUMP JUMPDEST POP MUL SWAP1 JUMP JUMPDEST PUSH1 0x0 DUP3 DUP3 LT ISZERO PUSH2 0x42FA JUMPI PUSH2 0x42FA PUSH2 0x4396 JUMP JUMPDEST POP SUB SWAP1 JUMP JUMPDEST PUSH1 0x1 DUP2 DUP2 SHR SWAP1 DUP3 AND DUP1 PUSH2 0x4313 JUMPI PUSH1 0x7F DUP3 AND SWAP2 POP JUMPDEST PUSH1 0x20 DUP3 LT DUP2 EQ ISZERO PUSH2 0x4334 JUMPI PUSH4 0x4E487B71 PUSH1 0xE0 SHL PUSH1 0x0 MSTORE PUSH1 0x22 PUSH1 0x4 MSTORE PUSH1 0x24 PUSH1 0x0 REVERT JUMPDEST POP SWAP2 SWAP1 POP JUMP JUMPDEST PUSH1 0x1F DUP3 ADD PUSH1 0x1F NOT AND DUP2 ADD PUSH8 0xFFFFFFFFFFFFFFFF DUP2 GT DUP3 DUP3 LT OR ISZERO PUSH2 0x4360 JUMPI PUSH2 0x4360 PUSH2 0x43EE JUMP JUMPDEST PUSH1 0x40 MSTORE POP POP JUMP JUMPDEST PUSH1 0x0 PUSH1 0x0 NOT DUP3 EQ ISZERO PUSH2 0x437B JUMPI PUSH2 0x437B PUSH2 0x4396 JUMP JUMPDEST POP PUSH1 0x1 ADD SWAP1 JUMP JUMPDEST PUSH1 0x0 DUP3 PUSH2 0x4391 JUMPI PUSH2 0x4391 PUSH2 0x43AC JUMP JUMPDEST POP MOD SWAP1 JUMP JUMPDEST PUSH4 0x4E487B71 PUSH1 0xE0 SHL PUSH1 0x0 MSTORE PUSH1 0x11 PUSH1 0x4 MSTORE PUSH1 0x24 PUSH1 0x0 REVERT JUMPDEST PUSH4 0x4E487B71 PUSH1 0xE0 SHL PUSH1 0x0 MSTORE PUSH1 0x12 PUSH1 0x4 MSTORE PUSH1 0x24 PUSH1 0x0 REVERT JUMPDEST PUSH4 0x4E487B71 PUSH1 0xE0 SHL PUSH1 0x0 MSTORE PUSH1 0x31 PUSH1 0x4 MSTORE PUSH1 0x24 PUSH1 0x0 REVERT JUMPDEST PUSH4 0x4E487B71 PUSH1 0xE0 SHL PUSH1 0x0 MSTORE PUSH1 0x32 PUSH1 0x4 MSTORE PUSH1 0x24 PUSH1 0x0 REVERT JUMPDEST PUSH4 0x4E487B71 PUSH1 0xE0 SHL PUSH1 0x0 MSTORE PUSH1 0x41 PUSH1 0x4 MSTORE PUSH1 0x24 PUSH1 0x0 REVERT JUMPDEST PUSH1 0x0 PUSH1 0x3 RETURNDATASIZE GT ISZERO PUSH2 0x441D JUMPI PUSH1 0x4 PUSH1 0x0 DUP1 RETURNDATACOPY POP PUSH1 0x0 MLOAD PUSH1 0xE0 SHR JUMPDEST SWAP1 JUMP JUMPDEST PUSH1 0x0 PUSH1 0x44 RETURNDATASIZE LT ISZERO PUSH2 0x442E JUMPI SWAP1 JUMP JUMPDEST PUSH1 0x40 MLOAD PUSH1 0x3 NOT RETURNDATASIZE DUP2 ADD PUSH1 0x4 DUP4 RETURNDATACOPY DUP2 MLOAD RETURNDATASIZE PUSH8 0xFFFFFFFFFFFFFFFF DUP2 PUSH1 0x24 DUP5 ADD GT DUP2 DUP5 GT OR ISZERO PUSH2 0x445E JUMPI POP POP POP POP POP SWAP1 JUMP JUMPDEST DUP3 DUP6 ADD SWAP2 POP DUP2 MLOAD DUP2 DUP2 GT ISZERO PUSH2 0x4476 JUMPI POP POP POP POP POP POP SWAP1 JUMP JUMPDEST DUP5 RETURNDATASIZE DUP8 ADD ADD PUSH1 0x20 DUP3 DUP6 ADD ADD GT ISZERO PUSH2 0x4490 JUMPI POP POP POP POP POP POP SWAP1 JUMP JUMPDEST PUSH2 0x449F PUSH1 0x20 DUP3 DUP7 ADD ADD DUP8 PUSH2 0x433A JUMP JUMPDEST POP SWAP1 SWAP6 SWAP5 POP POP POP POP POP JUMP JUMPDEST PUSH1 0x1 PUSH1 0x1 PUSH1 0xE0 SHL SUB NOT DUP2 AND DUP2 EQ PUSH2 0xAB1 JUMPI PUSH1 0x0 DUP1 REVERT INVALID SLOAD PUSH9 0x6973206D6574686F64 KECCAK256 PUSH14 0x7573742063616C6C656420627920 PUSH16 0x776E6572455243313135353A20696E73 PUSH22 0x6666696369656E742062616C616E636520666F722074 PUSH19 0x616E736665726F776E65722071756572792066 PUSH16 0x72206E6F6E6578697374656E7420746F PUSH12 0x656EA2646970667358221220 PUSH18 0x13B20EFBF1BA5726724DA1146D9BBB7E91B6 DUP8 SUB 0xB8 PUSH2 0x7D7 0x22 PUSH25 0x608A60A5A064736F6C63430008070033608060405260098054 PUSH1 0x1 PUSH1 0x1 PUSH1 0xA0 SHL SUB NOT SWAP1 DUP2 AND SWAP1 SWAP2 SSTORE PUSH1 0xA DUP1 SLOAD SWAP1 SWAP2 AND SWAP1 SSTORE CALLVALUE DUP1 ISZERO PUSH3 0x2D JUMPI PUSH1 0x0 DUP1 REVERT JUMPDEST POP PUSH1 0x40 MLOAD PUSH3 0x2948 CODESIZE SUB DUP1 PUSH3 0x2948 DUP4 CODECOPY DUP2 ADD PUSH1 0x40 DUP2 SWAP1 MSTORE PUSH3 0x50 SWAP2 PUSH3 0x7AE JUMP JUMPDEST PUSH1 0x40 DUP1 MLOAD DUP1 DUP3 ADD DUP3 MSTORE PUSH1 0xB DUP2 MSTORE PUSH11 0x135A5C9858DB19511D5CDD PUSH1 0xAA SHL PUSH1 0x20 DUP1 DUP4 ADD SWAP2 DUP3 MSTORE DUP4 MLOAD DUP1 DUP6 ADD SWAP1 SWAP5 MSTORE PUSH1 0x3 DUP5 MSTORE PUSH3 0x135115 PUSH1 0xEA SHL SWAP1 DUP5 ADD MSTORE DUP2 MLOAD SWAP2 SWAP3 SWAP2 DUP5 SWAP2 PUSH3 0xA1 SWAP2 PUSH1 0x2 SWAP2 SWAP1 PUSH3 0x66E JUMP JUMPDEST POP DUP2 MLOAD PUSH3 0xB7 SWAP1 PUSH1 0x3 SWAP1 PUSH1 0x20 DUP6 ADD SWAP1 PUSH3 0x66E JUMP JUMPDEST POP DUP1 MLOAD PUSH3 0xCD SWAP1 PUSH1 0x4 SWAP1 PUSH1 0x20 DUP5 ADD SWAP1 PUSH3 0x6FD JUMP JUMPDEST POP PUSH1 0x0 JUMPDEST DUP2 MLOAD DUP2 LT ISZERO PUSH3 0x13D JUMPI PUSH1 0x1 PUSH1 0x5 PUSH1 0x0 DUP5 DUP5 DUP2 MLOAD DUP2 LT PUSH3 0xF6 JUMPI PUSH3 0xF6 PUSH3 0xB68 JUMP JUMPDEST PUSH1 0x20 SWAP1 DUP2 MUL SWAP2 SWAP1 SWAP2 ADD DUP2 ADD MLOAD PUSH1 0x1 PUSH1 0x1 PUSH1 0xA0 SHL SUB AND DUP3 MSTORE DUP2 ADD SWAP2 SWAP1 SWAP2 MSTORE PUSH1 0x40 ADD PUSH1 0x0 KECCAK256 DUP1 SLOAD PUSH1 0xFF NOT AND SWAP2 ISZERO ISZERO SWAP2 SWAP1 SWAP2 OR SWAP1 SSTORE DUP1 PUSH3 0x134 DUP2 PUSH3 0xB34 JUMP JUMPDEST SWAP2 POP POP PUSH3 0xD1 JUMP JUMPDEST POP PUSH1 0x40 MLOAD PUSH4 0x29965A1D PUSH1 0xE0 SHL DUP2 MSTORE ADDRESS PUSH1 0x4 DUP3 ADD DUP2 SWAP1 MSTORE PUSH32 0xAC7FBAB5F54A3CA8194167523C6753BFEB96A445279294B6125B68CCE2177054 PUSH1 0x24 DUP4 ADD MSTORE PUSH1 0x44 DUP3 ADD MSTORE PUSH20 0x1820A4B7618BDE71DCE8CDC73AAB6C95905FAD24 SWAP1 PUSH4 0x29965A1D SWAP1 PUSH1 0x64 ADD PUSH1 0x0 PUSH1 0x40 MLOAD DUP1 DUP4 SUB DUP2 PUSH1 0x0 DUP8 DUP1 EXTCODESIZE ISZERO DUP1 ISZERO PUSH3 0x1B8 JUMPI PUSH1 0x0 DUP1 REVERT JUMPDEST POP GAS CALL ISZERO DUP1 ISZERO PUSH3 0x1CD JUMPI RETURNDATASIZE PUSH1 0x0 DUP1 RETURNDATACOPY RETURNDATASIZE PUSH1 0x0 REVERT JUMPDEST POP POP PUSH1 0x40 MLOAD PUSH4 0x29965A1D PUSH1 0xE0 SHL DUP2 MSTORE ADDRESS PUSH1 0x4 DUP3 ADD DUP2 SWAP1 MSTORE PUSH32 0xAEA199E31A596269B42CDAFD93407F14436DB6E4CAD65417994C2EB37381E05A PUSH1 0x24 DUP4 ADD MSTORE PUSH1 0x44 DUP3 ADD MSTORE PUSH20 0x1820A4B7618BDE71DCE8CDC73AAB6C95905FAD24 SWAP3 POP PUSH4 0x29965A1D SWAP2 POP PUSH1 0x64 ADD PUSH1 0x0 PUSH1 0x40 MLOAD DUP1 DUP4 SUB DUP2 PUSH1 0x0 DUP8 DUP1 EXTCODESIZE ISZERO DUP1 ISZERO PUSH3 0x24B JUMPI PUSH1 0x0 DUP1 REVERT JUMPDEST POP GAS CALL ISZERO DUP1 ISZERO PUSH3 0x260 JUMPI RETURNDATASIZE PUSH1 0x0 DUP1 RETURNDATACOPY RETURNDATASIZE PUSH1 0x0 REVERT JUMPDEST POP POP PUSH1 0xA DUP1 SLOAD PUSH1 0x1 PUSH1 0x1 PUSH1 0xA0 SHL SUB DUP1 DUP11 AND PUSH1 0x1 PUSH1 0x1 PUSH1 0xA0 SHL SUB NOT SWAP3 DUP4 AND OR SWAP1 SWAP3 SSTORE PUSH1 0x9 DUP1 SLOAD SWAP3 DUP13 AND SWAP3 SWAP1 SWAP2 AND SWAP2 SWAP1 SWAP2 OR SWAP1 SSTORE POP PUSH1 0x0 SWAP4 POP PUSH3 0x2A6 SWAP3 POP POP PUSH3 0x302 SWAP1 POP JUMP JUMPDEST PUSH3 0x2B6 SWAP1 PUSH1 0xFF AND PUSH1 0xA PUSH3 0xA17 JUMP JUMPDEST PUSH3 0x2C2 SWAP1 DUP8 PUSH3 0xAD5 JUMP JUMPDEST SWAP1 POP PUSH3 0x2F6 DUP5 DUP3 PUSH1 0x40 MLOAD DUP1 PUSH1 0x20 ADD PUSH1 0x40 MSTORE DUP1 PUSH1 0x0 DUP2 MSTORE POP PUSH1 0x40 MLOAD DUP1 PUSH1 0x20 ADD PUSH1 0x40 MSTORE DUP1 PUSH1 0x0 DUP2 MSTORE POP PUSH3 0x307 PUSH1 0x20 SHL PUSH1 0x20 SHR JUMP JUMPDEST POP POP POP POP POP POP PUSH3 0xB94 JUMP JUMPDEST PUSH1 0x12 SWAP1 JUMP JUMPDEST PUSH3 0x317 DUP5 DUP5 DUP5 DUP5 PUSH1 0x1 PUSH3 0x31D JUMP JUMPDEST POP POP POP POP JUMP JUMPDEST PUSH1 0x1 PUSH1 0x1 PUSH1 0xA0 SHL SUB DUP6 AND PUSH3 0x379 JUMPI PUSH1 0x40 MLOAD PUSH3 0x461BCD PUSH1 0xE5 SHL DUP2 MSTORE PUSH1 0x20 PUSH1 0x4 DUP3 ADD DUP2 SWAP1 MSTORE PUSH1 0x24 DUP3 ADD MSTORE PUSH32 0x4552433737373A206D696E7420746F20746865207A65726F2061646472657373 PUSH1 0x44 DUP3 ADD MSTORE PUSH1 0x64 ADD JUMPDEST PUSH1 0x40 MLOAD DUP1 SWAP2 SUB SWAP1 REVERT JUMPDEST PUSH1 0x0 CALLER SWAP1 POP DUP5 PUSH1 0x1 PUSH1 0x0 DUP3 DUP3 SLOAD PUSH3 0x392 SWAP2 SWAP1 PUSH3 0x9B3 JUMP JUMPDEST SWAP1 SWAP2 SSTORE POP POP PUSH1 0x1 PUSH1 0x1 PUSH1 0xA0 SHL SUB DUP7 AND PUSH1 0x0 SWAP1 DUP2 MSTORE PUSH1 0x20 DUP2 SWAP1 MSTORE PUSH1 0x40 DUP2 KECCAK256 DUP1 SLOAD DUP8 SWAP3 SWAP1 PUSH3 0x3C1 SWAP1 DUP5 SWAP1 PUSH3 0x9B3 JUMP JUMPDEST SWAP1 SWAP2 SSTORE POP PUSH3 0x3D9 SWAP1 POP DUP2 PUSH1 0x0 DUP9 DUP9 DUP9 DUP9 DUP9 PUSH3 0x473 JUMP JUMPDEST DUP6 PUSH1 0x1 PUSH1 0x1 PUSH1 0xA0 SHL SUB AND DUP2 PUSH1 0x1 PUSH1 0x1 PUSH1 0xA0 SHL SUB AND PUSH32 0x2FE5BE0146F74C5BCE36C0B80911AF6C7D86FF27E89D5CFA61FC681327954E5D DUP8 DUP8 DUP8 PUSH1 0x40 MLOAD PUSH3 0x422 SWAP4 SWAP3 SWAP2 SWAP1 PUSH3 0x97A JUMP JUMPDEST PUSH1 0x40 MLOAD DUP1 SWAP2 SUB SWAP1 LOG3 PUSH1 0x40 MLOAD DUP6 DUP2 MSTORE PUSH1 0x1 PUSH1 0x1 PUSH1 0xA0 SHL SUB DUP8 AND SWAP1 PUSH1 0x0 SWAP1 PUSH32 0xDDF252AD1BE2C89B69C2B068FC378DAA952BA7F163C4A11628F55A4DF523B3EF SWAP1 PUSH1 0x20 ADD PUSH1 0x40 MLOAD DUP1 SWAP2 SUB SWAP1 LOG3 POP POP POP POP POP POP JUMP JUMPDEST PUSH1 0x40 MLOAD PUSH4 0x555DDC65 PUSH1 0xE1 SHL DUP2 MSTORE PUSH1 0x1 PUSH1 0x1 PUSH1 0xA0 SHL SUB DUP7 AND PUSH1 0x4 DUP3 ADD MSTORE PUSH32 0xB281FC8C12954D22544DB45DE3159A39272895B169A852B314F9CC762E44C53B PUSH1 0x24 DUP3 ADD MSTORE PUSH1 0x0 SWAP1 PUSH20 0x1820A4B7618BDE71DCE8CDC73AAB6C95905FAD24 SWAP1 PUSH4 0xAABBB8CA SWAP1 PUSH1 0x44 ADD PUSH1 0x20 PUSH1 0x40 MLOAD DUP1 DUP4 SUB DUP2 DUP7 DUP1 EXTCODESIZE ISZERO DUP1 ISZERO PUSH3 0x4F0 JUMPI PUSH1 0x0 DUP1 REVERT JUMPDEST POP GAS STATICCALL ISZERO DUP1 ISZERO PUSH3 0x505 JUMPI RETURNDATASIZE PUSH1 0x0 DUP1 RETURNDATACOPY RETURNDATASIZE PUSH1 0x0 REVERT JUMPDEST POP POP POP POP PUSH1 0x40 MLOAD RETURNDATASIZE PUSH1 0x1F NOT PUSH1 0x1F DUP3 ADD AND DUP3 ADD DUP1 PUSH1 0x40 MSTORE POP DUP2 ADD SWAP1 PUSH3 0x52B SWAP2 SWAP1 PUSH3 0x789 JUMP JUMPDEST SWAP1 POP PUSH1 0x1 PUSH1 0x1 PUSH1 0xA0 SHL SUB DUP2 AND ISZERO PUSH3 0x5AD JUMPI PUSH1 0x40 MLOAD PUSH3 0x23DE29 PUSH1 0xE0 SHL DUP2 MSTORE PUSH1 0x1 PUSH1 0x1 PUSH1 0xA0 SHL SUB DUP3 AND SWAP1 PUSH3 0x23DE29 SWAP1 PUSH3 0x573 SWAP1 DUP12 SWAP1 DUP12 SWAP1 DUP12 SWAP1 DUP12 SWAP1 DUP12 SWAP1 DUP12 SWAP1 PUSH1 0x4 ADD PUSH3 0x91C JUMP JUMPDEST PUSH1 0x0 PUSH1 0x40 MLOAD DUP1 DUP4 SUB DUP2 PUSH1 0x0 DUP8 DUP1 EXTCODESIZE ISZERO DUP1 ISZERO PUSH3 0x58E JUMPI PUSH1 0x0 DUP1 REVERT JUMPDEST POP GAS CALL ISZERO DUP1 ISZERO PUSH3 0x5A3 JUMPI RETURNDATASIZE PUSH1 0x0 DUP1 RETURNDATACOPY RETURNDATASIZE PUSH1 0x0 REVERT JUMPDEST POP POP POP POP PUSH3 0x65E JUMP JUMPDEST DUP2 ISZERO PUSH3 0x65E JUMPI PUSH3 0x5D3 DUP7 PUSH1 0x1 PUSH1 0x1 PUSH1 0xA0 SHL SUB AND PUSH3 0x668 PUSH1 0x20 SHL PUSH3 0xDDA OR PUSH1 0x20 SHR JUMP JUMPDEST ISZERO PUSH3 0x65E JUMPI PUSH1 0x40 MLOAD PUSH3 0x461BCD PUSH1 0xE5 SHL DUP2 MSTORE PUSH1 0x20 PUSH1 0x4 DUP3 ADD MSTORE PUSH1 0x4D PUSH1 0x24 DUP3 ADD MSTORE PUSH32 0x4552433737373A20746F6B656E20726563697069656E7420636F6E7472616374 PUSH1 0x44 DUP3 ADD MSTORE PUSH32 0x20686173206E6F20696D706C656D656E74657220666F7220455243373737546F PUSH1 0x64 DUP3 ADD MSTORE PUSH13 0x1AD95B9CD49958DA5C1A595B9D PUSH1 0x9A SHL PUSH1 0x84 DUP3 ADD MSTORE PUSH1 0xA4 ADD PUSH3 0x370 JUMP JUMPDEST POP POP POP POP POP POP POP POP JUMP JUMPDEST EXTCODESIZE ISZERO ISZERO SWAP1 JUMP JUMPDEST DUP3 DUP1 SLOAD PUSH3 0x67C SWAP1 PUSH3 0xAF7 JUMP JUMPDEST SWAP1 PUSH1 0x0 MSTORE PUSH1 0x20 PUSH1 0x0 KECCAK256 SWAP1 PUSH1 0x1F ADD PUSH1 0x20 SWAP1 DIV DUP2 ADD SWAP3 DUP3 PUSH3 0x6A0 JUMPI PUSH1 0x0 DUP6 SSTORE PUSH3 0x6EB JUMP JUMPDEST DUP3 PUSH1 0x1F LT PUSH3 0x6BB JUMPI DUP1 MLOAD PUSH1 0xFF NOT AND DUP4 DUP1 ADD OR DUP6 SSTORE PUSH3 0x6EB JUMP JUMPDEST DUP3 DUP1 ADD PUSH1 0x1 ADD DUP6 SSTORE DUP3 ISZERO PUSH3 0x6EB JUMPI SWAP2 DUP3 ADD JUMPDEST DUP3 DUP2 GT ISZERO PUSH3 0x6EB JUMPI DUP3 MLOAD DUP3 SSTORE SWAP2 PUSH1 0x20 ADD SWAP2 SWAP1 PUSH1 0x1 ADD SWAP1 PUSH3 0x6CE JUMP JUMPDEST POP PUSH3 0x6F9 SWAP3 SWAP2 POP PUSH3 0x755 JUMP JUMPDEST POP SWAP1 JUMP JUMPDEST DUP3 DUP1 SLOAD DUP3 DUP3 SSTORE SWAP1 PUSH1 0x0 MSTORE PUSH1 0x20 PUSH1 0x0 KECCAK256 SWAP1 DUP2 ADD SWAP3 DUP3 ISZERO PUSH3 0x6EB JUMPI SWAP2 PUSH1 0x20 MUL DUP3 ADD JUMPDEST DUP3 DUP2 GT ISZERO PUSH3 0x6EB JUMPI DUP3 MLOAD DUP3 SLOAD PUSH1 0x1 PUSH1 0x1 PUSH1 0xA0 SHL SUB NOT AND PUSH1 0x1 PUSH1 0x1 PUSH1 0xA0 SHL SUB SWAP1 SWAP2 AND OR DUP3 SSTORE PUSH1 0x20 SWAP1 SWAP3 ADD SWAP2 PUSH1 0x1 SWAP1 SWAP2 ADD SWAP1 PUSH3 0x71E JUMP JUMPDEST JUMPDEST DUP1 DUP3 GT ISZERO PUSH3 0x6F9 JUMPI PUSH1 0x0 DUP2 SSTORE PUSH1 0x1 ADD PUSH3 0x756 JUMP JUMPDEST DUP1 MLOAD PUSH1 0x1 PUSH1 0x1 PUSH1 0xA0 SHL SUB DUP2 AND DUP2 EQ PUSH3 0x784 JUMPI PUSH1 0x0 DUP1 REVERT JUMPDEST SWAP2 SWAP1 POP JUMP JUMPDEST PUSH1 0x0 PUSH1 0x20 DUP3 DUP5 SUB SLT ISZERO PUSH3 0x79C JUMPI PUSH1 0x0 DUP1 REVERT JUMPDEST PUSH3 0x7A7 DUP3 PUSH3 0x76C JUMP JUMPDEST SWAP4 SWAP3 POP POP POP JUMP JUMPDEST PUSH1 0x0 DUP1 PUSH1 0x0 DUP1 PUSH1 0x0 PUSH1 0xA0 DUP7 DUP9 SUB SLT ISZERO PUSH3 0x7C7 JUMPI PUSH1 0x0 DUP1 REVERT JUMPDEST DUP6 MLOAD SWAP5 POP PUSH1 0x20 PUSH3 0x7DA DUP2 DUP9 ADD PUSH3 0x76C JUMP JUMPDEST SWAP5 POP PUSH3 0x7EA PUSH1 0x40 DUP9 ADD PUSH3 0x76C JUMP JUMPDEST SWAP4 POP PUSH3 0x7FA PUSH1 0x60 DUP9 ADD PUSH3 0x76C JUMP JUMPDEST PUSH1 0x80 DUP9 ADD MLOAD SWAP1 SWAP4 POP PUSH1 0x1 PUSH1 0x1 PUSH1 0x40 SHL SUB DUP1 DUP3 GT ISZERO PUSH3 0x818 JUMPI PUSH1 0x0 DUP1 REVERT JUMPDEST DUP2 DUP10 ADD SWAP2 POP DUP10 PUSH1 0x1F DUP4 ADD SLT PUSH3 0x82D JUMPI PUSH1 0x0 DUP1 REVERT JUMPDEST DUP2 MLOAD DUP2 DUP2 GT ISZERO PUSH3 0x842 JUMPI PUSH3 0x842 PUSH3 0xB7E JUMP JUMPDEST DUP1 PUSH1 0x5 SHL PUSH1 0x40 MLOAD PUSH1 0x1F NOT PUSH1 0x3F DUP4 ADD AND DUP2 ADD DUP2 DUP2 LT DUP6 DUP3 GT OR ISZERO PUSH3 0x86A JUMPI PUSH3 0x86A PUSH3 0xB7E JUMP JUMPDEST PUSH1 0x40 MSTORE DUP3 DUP2 MSTORE DUP6 DUP2 ADD SWAP4 POP DUP5 DUP7 ADD DUP3 DUP7 ADD DUP8 ADD DUP15 LT ISZERO PUSH3 0x88A JUMPI PUSH1 0x0 DUP1 REVERT JUMPDEST PUSH1 0x0 SWAP6 POP JUMPDEST DUP4 DUP7 LT ISZERO PUSH3 0x8B8 JUMPI PUSH3 0x8A3 DUP2 PUSH3 0x76C JUMP JUMPDEST DUP6 MSTORE PUSH1 0x1 SWAP6 SWAP1 SWAP6 ADD SWAP5 SWAP4 DUP7 ADD SWAP4 DUP7 ADD PUSH3 0x88F JUMP JUMPDEST POP DUP1 SWAP7 POP POP POP POP POP POP POP SWAP3 SWAP6 POP SWAP3 SWAP6 SWAP1 SWAP4 POP JUMP JUMPDEST PUSH1 0x0 DUP2 MLOAD DUP1 DUP5 MSTORE PUSH1 0x0 JUMPDEST DUP2 DUP2 LT ISZERO PUSH3 0x8F4 JUMPI PUSH1 0x20 DUP2 DUP6 ADD DUP2 ADD MLOAD DUP7 DUP4 ADD DUP3 ADD MSTORE ADD PUSH3 0x8D6 JUMP JUMPDEST DUP2 DUP2 GT ISZERO PUSH3 0x907 JUMPI PUSH1 0x0 PUSH1 0x20 DUP4 DUP8 ADD ADD MSTORE JUMPDEST POP PUSH1 0x1F ADD PUSH1 0x1F NOT AND SWAP3 SWAP1 SWAP3 ADD PUSH1 0x20 ADD SWAP3 SWAP2 POP POP JUMP JUMPDEST PUSH1 0x1 PUSH1 0x1 PUSH1 0xA0 SHL SUB DUP8 DUP2 AND DUP3 MSTORE DUP7 DUP2 AND PUSH1 0x20 DUP4 ADD MSTORE DUP6 AND PUSH1 0x40 DUP3 ADD MSTORE PUSH1 0x60 DUP2 ADD DUP5 SWAP1 MSTORE PUSH1 0xC0 PUSH1 0x80 DUP3 ADD DUP2 SWAP1 MSTORE PUSH1 0x0 SWAP1 PUSH3 0x959 SWAP1 DUP4 ADD DUP6 PUSH3 0x8CC JUMP JUMPDEST DUP3 DUP2 SUB PUSH1 0xA0 DUP5 ADD MSTORE PUSH3 0x96D DUP2 DUP6 PUSH3 0x8CC JUMP JUMPDEST SWAP10 SWAP9 POP POP POP POP POP POP POP POP POP JUMP JUMPDEST DUP4 DUP2 MSTORE PUSH1 0x60 PUSH1 0x20 DUP3 ADD MSTORE PUSH1 0x0 PUSH3 0x995 PUSH1 0x60 DUP4 ADD DUP6 PUSH3 0x8CC JUMP JUMPDEST DUP3 DUP2 SUB PUSH1 0x40 DUP5 ADD MSTORE PUSH3 0x9A9 DUP2 DUP6 PUSH3 0x8CC JUMP JUMPDEST SWAP7 SWAP6 POP POP POP POP POP POP JUMP JUMPDEST PUSH1 0x0 DUP3 NOT DUP3 GT ISZERO PUSH3 0x9C9 JUMPI PUSH3 0x9C9 PUSH3 0xB52 JUMP JUMPDEST POP ADD SWAP1 JUMP JUMPDEST PUSH1 0x1 DUP2 DUP2 JUMPDEST DUP1 DUP6 GT ISZERO PUSH3 0xA0F JUMPI DUP2 PUSH1 0x0 NOT DIV DUP3 GT ISZERO PUSH3 0x9F3 JUMPI PUSH3 0x9F3 PUSH3 0xB52 JUMP JUMPDEST DUP1 DUP6 AND ISZERO PUSH3 0xA01 JUMPI SWAP2 DUP2 MUL SWAP2 JUMPDEST SWAP4 DUP5 SHR SWAP4 SWAP1 DUP1 MUL SWAP1 PUSH3 0x9D3 JUMP JUMPDEST POP SWAP3 POP SWAP3 SWAP1 POP JUMP JUMPDEST PUSH1 0x0 PUSH3 0x7A7 DUP4 DUP4 PUSH1 0x0 DUP3 PUSH3 0xA30 JUMPI POP PUSH1 0x1 PUSH3 0xACF JUMP JUMPDEST DUP2 PUSH3 0xA3F JUMPI POP PUSH1 0x0 PUSH3 0xACF JUMP JUMPDEST DUP2 PUSH1 0x1 DUP2 EQ PUSH3 0xA58 JUMPI PUSH1 0x2 DUP2 EQ PUSH3 0xA63 JUMPI PUSH3 0xA83 JUMP JUMPDEST PUSH1 0x1 SWAP2 POP POP PUSH3 0xACF JUMP JUMPDEST PUSH1 0xFF DUP5 GT ISZERO PUSH3 0xA77 JUMPI PUSH3 0xA77 PUSH3 0xB52 JUMP JUMPDEST POP POP PUSH1 0x1 DUP3 SHL PUSH3 0xACF JUMP JUMPDEST POP PUSH1 0x20 DUP4 LT PUSH2 0x133 DUP4 LT AND PUSH1 0x4E DUP5 LT PUSH1 0xB DUP5 LT AND OR ISZERO PUSH3 0xAA8 JUMPI POP DUP2 DUP2 EXP PUSH3 0xACF JUMP JUMPDEST PUSH3 0xAB4 DUP4 DUP4 PUSH3 0x9CE JUMP JUMPDEST DUP1 PUSH1 0x0 NOT DIV DUP3 GT ISZERO PUSH3 0xACB JUMPI PUSH3 0xACB PUSH3 0xB52 JUMP JUMPDEST MUL SWAP1 POP JUMPDEST SWAP3 SWAP2 POP POP JUMP JUMPDEST PUSH1 0x0 DUP2 PUSH1 0x0 NOT DIV DUP4 GT DUP3 ISZERO ISZERO AND ISZERO PUSH3 0xAF2 JUMPI PUSH3 0xAF2 PUSH3 0xB52 JUMP JUMPDEST POP MUL SWAP1 JUMP JUMPDEST PUSH1 0x1 DUP2 DUP2 SHR SWAP1 DUP3 AND DUP1 PUSH3 0xB0C JUMPI PUSH1 0x7F DUP3 AND SWAP2 POP JUMPDEST PUSH1 0x20 DUP3 LT DUP2 EQ ISZERO PUSH3 0xB2E JUMPI PUSH4 0x4E487B71 PUSH1 0xE0 SHL PUSH1 0x0 MSTORE PUSH1 0x22 PUSH1 0x4 MSTORE PUSH1 0x24 PUSH1 0x0 REVERT JUMPDEST POP SWAP2 SWAP1 POP JUMP JUMPDEST PUSH1 0x0 PUSH1 0x0 NOT DUP3 EQ ISZERO PUSH3 0xB4B JUMPI PUSH3 0xB4B PUSH3 0xB52 JUMP JUMPDEST POP PUSH1 0x1 ADD SWAP1 JUMP JUMPDEST PUSH4 0x4E487B71 PUSH1 0xE0 SHL PUSH1 0x0 MSTORE PUSH1 0x11 PUSH1 0x4 MSTORE PUSH1 0x24 PUSH1 0x0 REVERT JUMPDEST PUSH4 0x4E487B71 PUSH1 0xE0 SHL PUSH1 0x0 MSTORE PUSH1 0x32 PUSH1 0x4 MSTORE PUSH1 0x24 PUSH1 0x0 REVERT JUMPDEST PUSH4 0x4E487B71 PUSH1 0xE0 SHL PUSH1 0x0 MSTORE PUSH1 0x41 PUSH1 0x4 MSTORE PUSH1 0x24 PUSH1 0x0 REVERT JUMPDEST PUSH2 0x1DA4 DUP1 PUSH3 0xBA4 PUSH1 0x0 CODECOPY PUSH1 0x0 RETURN INVALID PUSH1 0x80 PUSH1 0x40 MSTORE CALLVALUE DUP1 ISZERO PUSH2 0x10 JUMPI PUSH1 0x0 DUP1 REVERT JUMPDEST POP PUSH1 0x4 CALLDATASIZE LT PUSH2 0x147 JUMPI PUSH1 0x0 CALLDATALOAD PUSH1 0xE0 SHR DUP1 PUSH4 0x70A08231 GT PUSH2 0xC8 JUMPI DUP1 PUSH4 0xA9059CBB GT PUSH2 0x8C JUMPI DUP1 PUSH4 0xFAD8B32A GT PUSH2 0x66 JUMPI DUP1 PUSH4 0xFAD8B32A EQ PUSH2 0x2E9 JUMPI DUP1 PUSH4 0xFC673C4F EQ PUSH2 0x2FC JUMPI DUP1 PUSH4 0xFE9D9303 EQ PUSH2 0x30F JUMPI PUSH1 0x0 DUP1 REVERT JUMPDEST DUP1 PUSH4 0xA9059CBB EQ PUSH2 0x28A JUMPI DUP1 PUSH4 0xD95B6371 EQ PUSH2 0x29D JUMPI DUP1 PUSH4 0xDD62ED3E EQ PUSH2 0x2B0 JUMPI PUSH1 0x0 DUP1 REVERT JUMPDEST DUP1 PUSH4 0x70A08231 EQ PUSH2 0x218 JUMPI DUP1 PUSH4 0x959B8C3F EQ PUSH2 0x241 JUMPI DUP1 PUSH4 0x95D89B41 EQ PUSH2 0x254 JUMPI DUP1 PUSH4 0x9BD9BBC6 EQ PUSH2 0x25C JUMPI DUP1 PUSH4 0x9BE00363 EQ PUSH2 0x26F JUMPI PUSH1 0x0 DUP1 REVERT JUMPDEST DUP1 PUSH4 0x313CE567 GT PUSH2 0x10F JUMPI DUP1 PUSH4 0x313CE567 EQ PUSH2 0x1C7 JUMPI DUP1 PUSH4 0x556F0DC7 EQ PUSH2 0x1D6 JUMPI DUP1 PUSH4 0x62AD1B83 EQ PUSH2 0x1DD JUMPI DUP1 PUSH4 0x6C22E3F9 EQ PUSH2 0x1F2 JUMPI DUP1 PUSH4 0x6C81396E EQ PUSH2 0x205 JUMPI PUSH1 0x0 DUP1 REVERT JUMPDEST DUP1 PUSH4 0x6E48538 EQ PUSH2 0x14C JUMPI DUP1 PUSH4 0x6FDDE03 EQ PUSH2 0x16A JUMPI DUP1 PUSH4 0x95EA7B3 EQ PUSH2 0x17F JUMPI DUP1 PUSH4 0x18160DDD EQ PUSH2 0x1A2 JUMPI DUP1 PUSH4 0x23B872DD EQ PUSH2 0x1B4 JUMPI JUMPDEST PUSH1 0x0 DUP1 REVERT JUMPDEST PUSH2 0x154 PUSH2 0x322 JUMP JUMPDEST PUSH1 0x40 MLOAD PUSH2 0x161 SWAP2 SWAP1 PUSH2 0x1B21 JUMP JUMPDEST PUSH1 0x40 MLOAD DUP1 SWAP2 SUB SWAP1 RETURN JUMPDEST PUSH2 0x172 PUSH2 0x384 JUMP JUMPDEST PUSH1 0x40 MLOAD PUSH2 0x161 SWAP2 SWAP1 PUSH2 0x1B6E JUMP JUMPDEST PUSH2 0x192 PUSH2 0x18D CALLDATASIZE PUSH1 0x4 PUSH2 0x192F JUMP JUMPDEST PUSH2 0x40D JUMP JUMPDEST PUSH1 0x40 MLOAD SWAP1 ISZERO ISZERO DUP2 MSTORE PUSH1 0x20 ADD PUSH2 0x161 JUMP JUMPDEST PUSH1 0x1 SLOAD JUMPDEST PUSH1 0x40 MLOAD SWAP1 DUP2 MSTORE PUSH1 0x20 ADD PUSH2 0x161 JUMP JUMPDEST PUSH2 0x192 PUSH2 0x1C2 CALLDATASIZE PUSH1 0x4 PUSH2 0x185B JUMP JUMPDEST PUSH2 0x427 JUMP JUMPDEST PUSH1 0x40 MLOAD PUSH1 0x12 DUP2 MSTORE PUSH1 0x20 ADD PUSH2 0x161 JUMP JUMPDEST PUSH1 0x1 PUSH2 0x1A6 JUMP JUMPDEST PUSH2 0x1F0 PUSH2 0x1EB CALLDATASIZE PUSH1 0x4 PUSH2 0x189C JUMP JUMPDEST PUSH2 0x628 JUMP JUMPDEST STOP JUMPDEST PUSH2 0x1F0 PUSH2 0x200 CALLDATASIZE PUSH1 0x4 PUSH2 0x192F JUMP JUMPDEST PUSH2 0x6A9 JUMP JUMPDEST PUSH2 0x1F0 PUSH2 0x213 CALLDATASIZE PUSH1 0x4 PUSH2 0x192F JUMP JUMPDEST PUSH2 0x82A JUMP JUMPDEST PUSH2 0x1A6 PUSH2 0x226 CALLDATASIZE PUSH1 0x4 PUSH2 0x17E8 JUMP JUMPDEST PUSH1 0x1 PUSH1 0x1 PUSH1 0xA0 SHL SUB AND PUSH1 0x0 SWAP1 DUP2 MSTORE PUSH1 0x20 DUP2 SWAP1 MSTORE PUSH1 0x40 SWAP1 KECCAK256 SLOAD SWAP1 JUMP JUMPDEST PUSH2 0x1F0 PUSH2 0x24F CALLDATASIZE PUSH1 0x4 PUSH2 0x17E8 JUMP JUMPDEST PUSH2 0x946 JUMP JUMPDEST PUSH2 0x172 PUSH2 0xA64 JUMP JUMPDEST PUSH2 0x1F0 PUSH2 0x26A CALLDATASIZE PUSH1 0x4 PUSH2 0x195B JUMP JUMPDEST PUSH2 0xA73 JUMP JUMPDEST PUSH1 0x9 SLOAD PUSH1 0x40 MLOAD PUSH1 0x1 PUSH1 0x1 PUSH1 0xA0 SHL SUB SWAP1 SWAP2 AND DUP2 MSTORE PUSH1 0x20 ADD PUSH2 0x161 JUMP JUMPDEST PUSH2 0x192 PUSH2 0x298 CALLDATASIZE PUSH1 0x4 PUSH2 0x192F JUMP JUMPDEST PUSH2 0xA91 JUMP JUMPDEST PUSH2 0x192 PUSH2 0x2AB CALLDATASIZE PUSH1 0x4 PUSH2 0x1822 JUMP JUMPDEST PUSH2 0xB80 JUMP JUMPDEST PUSH2 0x1A6 PUSH2 0x2BE CALLDATASIZE PUSH1 0x4 PUSH2 0x1822 JUMP JUMPDEST PUSH1 0x1 PUSH1 0x1 PUSH1 0xA0 SHL SUB SWAP2 DUP3 AND PUSH1 0x0 SWAP1 DUP2 MSTORE PUSH1 0x8 PUSH1 0x20 SWAP1 DUP2 MSTORE PUSH1 0x40 DUP1 DUP4 KECCAK256 SWAP4 SWAP1 SWAP5 AND DUP3 MSTORE SWAP2 SWAP1 SWAP2 MSTORE KECCAK256 SLOAD SWAP1 JUMP JUMPDEST PUSH2 0x1F0 PUSH2 0x2F7 CALLDATASIZE PUSH1 0x4 PUSH2 0x17E8 JUMP JUMPDEST PUSH2 0xC22 JUMP JUMPDEST PUSH2 0x1F0 PUSH2 0x30A CALLDATASIZE PUSH1 0x4 PUSH2 0x19B4 JUMP JUMPDEST PUSH2 0xD3E JUMP JUMPDEST PUSH2 0x1F0 PUSH2 0x31D CALLDATASIZE PUSH1 0x4 PUSH2 0x1A34 JUMP JUMPDEST PUSH2 0xDBB JUMP JUMPDEST PUSH1 0x60 PUSH1 0x4 DUP1 SLOAD DUP1 PUSH1 0x20 MUL PUSH1 0x20 ADD PUSH1 0x40 MLOAD SWAP1 DUP2 ADD PUSH1 0x40 MSTORE DUP1 SWAP3 SWAP2 SWAP1 DUP2 DUP2 MSTORE PUSH1 0x20 ADD DUP3 DUP1 SLOAD DUP1 ISZERO PUSH2 0x37A JUMPI PUSH1 0x20 MUL DUP3 ADD SWAP2 SWAP1 PUSH1 0x0 MSTORE PUSH1 0x20 PUSH1 0x0 KECCAK256 SWAP1 JUMPDEST DUP2 SLOAD PUSH1 0x1 PUSH1 0x1 PUSH1 0xA0 SHL SUB AND DUP2 MSTORE PUSH1 0x1 SWAP1 SWAP2 ADD SWAP1 PUSH1 0x20 ADD DUP1 DUP4 GT PUSH2 0x35C JUMPI JUMPDEST POP POP POP POP POP SWAP1 POP SWAP1 JUMP JUMPDEST PUSH1 0x60 PUSH1 0x2 DUP1 SLOAD PUSH2 0x393 SWAP1 PUSH2 0x1CEF JUMP JUMPDEST DUP1 PUSH1 0x1F ADD PUSH1 0x20 DUP1 SWAP2 DIV MUL PUSH1 0x20 ADD PUSH1 0x40 MLOAD SWAP1 DUP2 ADD PUSH1 0x40 MSTORE DUP1 SWAP3 SWAP2 SWAP1 DUP2 DUP2 MSTORE PUSH1 0x20 ADD DUP3 DUP1 SLOAD PUSH2 0x3BF SWAP1 PUSH2 0x1CEF JUMP JUMPDEST DUP1 ISZERO PUSH2 0x37A JUMPI DUP1 PUSH1 0x1F LT PUSH2 0x3E1 JUMPI PUSH2 0x100 DUP1 DUP4 SLOAD DIV MUL DUP4 MSTORE SWAP2 PUSH1 0x20 ADD SWAP2 PUSH2 0x37A JUMP JUMPDEST DUP3 ADD SWAP2 SWAP1 PUSH1 0x0 MSTORE PUSH1 0x20 PUSH1 0x0 KECCAK256 SWAP1 JUMPDEST DUP2 SLOAD DUP2 MSTORE SWAP1 PUSH1 0x1 ADD SWAP1 PUSH1 0x20 ADD DUP1 DUP4 GT PUSH2 0x3EF JUMPI POP SWAP4 SWAP6 SWAP5 POP POP POP POP POP JUMP JUMPDEST PUSH1 0x0 CALLER PUSH2 0x41B DUP2 DUP6 DUP6 PUSH2 0xDE0 JUMP JUMPDEST PUSH1 0x1 SWAP2 POP POP JUMPDEST SWAP3 SWAP2 POP POP JUMP JUMPDEST PUSH1 0x0 PUSH1 0x1 PUSH1 0x1 PUSH1 0xA0 SHL SUB DUP4 AND PUSH2 0x490 JUMPI PUSH1 0x40 MLOAD PUSH3 0x461BCD PUSH1 0xE5 SHL DUP2 MSTORE PUSH1 0x20 PUSH1 0x4 DUP3 ADD MSTORE PUSH1 0x24 DUP1 DUP3 ADD MSTORE PUSH32 0x4552433737373A207472616E7366657220746F20746865207A65726F20616464 PUSH1 0x44 DUP3 ADD MSTORE PUSH4 0x72657373 PUSH1 0xE0 SHL PUSH1 0x64 DUP3 ADD MSTORE PUSH1 0x84 ADD JUMPDEST PUSH1 0x40 MLOAD DUP1 SWAP2 SUB SWAP1 REVERT JUMPDEST PUSH1 0x1 PUSH1 0x1 PUSH1 0xA0 SHL SUB DUP5 AND PUSH2 0x4F5 JUMPI PUSH1 0x40 MLOAD PUSH3 0x461BCD PUSH1 0xE5 SHL DUP2 MSTORE PUSH1 0x20 PUSH1 0x4 DUP3 ADD MSTORE PUSH1 0x26 PUSH1 0x24 DUP3 ADD MSTORE PUSH32 0x4552433737373A207472616E736665722066726F6D20746865207A65726F2061 PUSH1 0x44 DUP3 ADD MSTORE PUSH6 0x646472657373 PUSH1 0xD0 SHL PUSH1 0x64 DUP3 ADD MSTORE PUSH1 0x84 ADD PUSH2 0x487 JUMP JUMPDEST PUSH1 0x0 CALLER SWAP1 POP PUSH2 0x526 DUP2 DUP7 DUP7 DUP7 PUSH1 0x40 MLOAD DUP1 PUSH1 0x20 ADD PUSH1 0x40 MSTORE DUP1 PUSH1 0x0 DUP2 MSTORE POP PUSH1 0x40 MLOAD DUP1 PUSH1 0x20 ADD PUSH1 0x40 MSTORE DUP1 PUSH1 0x0 DUP2 MSTORE POP PUSH2 0xF07 JUMP JUMPDEST PUSH2 0x552 DUP2 DUP7 DUP7 DUP7 PUSH1 0x40 MLOAD DUP1 PUSH1 0x20 ADD PUSH1 0x40 MSTORE DUP1 PUSH1 0x0 DUP2 MSTORE POP PUSH1 0x40 MLOAD DUP1 PUSH1 0x20 ADD PUSH1 0x40 MSTORE DUP1 PUSH1 0x0 DUP2 MSTORE POP PUSH2 0x103E JUMP JUMPDEST PUSH1 0x1 PUSH1 0x1 PUSH1 0xA0 SHL SUB DUP1 DUP7 AND PUSH1 0x0 SWAP1 DUP2 MSTORE PUSH1 0x8 PUSH1 0x20 SWAP1 DUP2 MSTORE PUSH1 0x40 DUP1 DUP4 KECCAK256 SWAP4 DUP6 AND DUP4 MSTORE SWAP3 SWAP1 MSTORE KECCAK256 SLOAD DUP4 DUP2 LT ISZERO PUSH2 0x5DA JUMPI PUSH1 0x40 MLOAD PUSH3 0x461BCD PUSH1 0xE5 SHL DUP2 MSTORE PUSH1 0x20 PUSH1 0x4 DUP3 ADD MSTORE PUSH1 0x29 PUSH1 0x24 DUP3 ADD MSTORE PUSH32 0x4552433737373A207472616E7366657220616D6F756E74206578636565647320 PUSH1 0x44 DUP3 ADD MSTORE PUSH9 0x616C6C6F77616E6365 PUSH1 0xB8 SHL PUSH1 0x64 DUP3 ADD MSTORE PUSH1 0x84 ADD PUSH2 0x487 JUMP JUMPDEST PUSH2 0x5EE DUP7 DUP4 PUSH2 0x5E9 DUP8 DUP6 PUSH2 0x1CD8 JUMP JUMPDEST PUSH2 0xDE0 JUMP JUMPDEST PUSH2 0x61C DUP3 DUP8 DUP8 DUP8 PUSH1 0x40 MLOAD DUP1 PUSH1 0x20 ADD PUSH1 0x40 MSTORE DUP1 PUSH1 0x0 DUP2 MSTORE POP PUSH1 0x40 MLOAD DUP1 PUSH1 0x20 ADD PUSH1 0x40 MSTORE DUP1 PUSH1 0x0 DUP2 MSTORE POP PUSH1 0x0 PUSH2 0x11A4 JUMP JUMPDEST POP PUSH1 0x1 SWAP6 SWAP5 POP POP POP POP POP JUMP JUMPDEST PUSH2 0x632 CALLER DUP7 PUSH2 0xB80 JUMP JUMPDEST PUSH2 0x693 JUMPI PUSH1 0x40 MLOAD PUSH3 0x461BCD PUSH1 0xE5 SHL DUP2 MSTORE PUSH1 0x20 PUSH1 0x4 DUP3 ADD MSTORE PUSH1 0x2C PUSH1 0x24 DUP3 ADD MSTORE PUSH32 0x4552433737373A2063616C6C6572206973206E6F7420616E206F70657261746F PUSH1 0x44 DUP3 ADD MSTORE PUSH12 0x39103337B9103437B63232B9 PUSH1 0xA1 SHL PUSH1 0x64 DUP3 ADD MSTORE PUSH1 0x84 ADD PUSH2 0x487 JUMP JUMPDEST PUSH2 0x6A2 DUP6 DUP6 DUP6 DUP6 DUP6 PUSH1 0x1 PUSH2 0x1378 JUMP JUMPDEST POP POP POP POP POP JUMP JUMPDEST PUSH1 0x9 SLOAD PUSH1 0x1 PUSH1 0x1 PUSH1 0xA0 SHL SUB AND PUSH2 0x701 JUMPI PUSH1 0x40 MLOAD PUSH3 0x461BCD PUSH1 0xE5 SHL DUP2 MSTORE PUSH1 0x20 PUSH1 0x4 DUP3 ADD MSTORE PUSH1 0x1E PUSH1 0x24 DUP3 ADD MSTORE PUSH32 0x6D697261636C65436172642061646472657373206973206E6F74207365740000 PUSH1 0x44 DUP3 ADD MSTORE PUSH1 0x64 ADD PUSH2 0x487 JUMP JUMPDEST PUSH1 0x9 SLOAD PUSH1 0x1 PUSH1 0x1 PUSH1 0xA0 SHL SUB AND CALLER EQ PUSH2 0x781 JUMPI PUSH1 0x40 MLOAD PUSH3 0x461BCD PUSH1 0xE5 SHL DUP2 MSTORE PUSH1 0x20 PUSH1 0x4 DUP3 ADD MSTORE PUSH1 0x38 PUSH1 0x24 DUP3 ADD MSTORE PUSH32 0x54686973206D6574686F642063616E206F6E6C792062652063616C6C65642062 PUSH1 0x44 DUP3 ADD MSTORE PUSH32 0x79207468652073706563696669656420636F6E74726163740000000000000000 PUSH1 0x64 DUP3 ADD MSTORE PUSH1 0x84 ADD PUSH2 0x487 JUMP JUMPDEST PUSH1 0x1 PUSH1 0x1 PUSH1 0xA0 SHL SUB DUP3 AND PUSH2 0x7E1 JUMPI PUSH1 0x40 MLOAD PUSH3 0x461BCD PUSH1 0xE5 SHL DUP2 MSTORE PUSH1 0x20 PUSH1 0x4 DUP3 ADD MSTORE PUSH1 0x21 PUSH1 0x24 DUP3 ADD MSTORE PUSH32 0x455243313135353A206D696E7420746F20746865207A65726F20616464726573 PUSH1 0x44 DUP3 ADD MSTORE PUSH1 0x73 PUSH1 0xF8 SHL PUSH1 0x64 DUP3 ADD MSTORE PUSH1 0x84 ADD PUSH2 0x487 JUMP JUMPDEST PUSH1 0x0 PUSH2 0x7EF PUSH1 0x12 PUSH1 0xA PUSH2 0x1C11 JUMP JUMPDEST PUSH2 0x7F9 SWAP1 DUP4 PUSH2 0x1CB9 JUMP JUMPDEST SWAP1 POP PUSH2 0x825 DUP4 DUP3 PUSH1 0x40 MLOAD DUP1 PUSH1 0x20 ADD PUSH1 0x40 MSTORE DUP1 PUSH1 0x0 DUP2 MSTORE POP PUSH1 0x40 MLOAD DUP1 PUSH1 0x20 ADD PUSH1 0x40 MSTORE DUP1 PUSH1 0x0 DUP2 MSTORE POP PUSH2 0x145B JUMP JUMPDEST POP POP POP JUMP JUMPDEST PUSH1 0x9 SLOAD PUSH1 0x1 PUSH1 0x1 PUSH1 0xA0 SHL SUB AND PUSH2 0x882 JUMPI PUSH1 0x40 MLOAD PUSH3 0x461BCD PUSH1 0xE5 SHL DUP2 MSTORE PUSH1 0x20 PUSH1 0x4 DUP3 ADD MSTORE PUSH1 0x1E PUSH1 0x24 DUP3 ADD MSTORE PUSH32 0x6D697261636C65436172642061646472657373206973206E6F74207365740000 PUSH1 0x44 DUP3 ADD MSTORE PUSH1 0x64 ADD PUSH2 0x487 JUMP JUMPDEST PUSH1 0x9 SLOAD PUSH1 0x1 PUSH1 0x1 PUSH1 0xA0 SHL SUB AND CALLER EQ PUSH2 0x902 JUMPI PUSH1 0x40 MLOAD PUSH3 0x461BCD PUSH1 0xE5 SHL DUP2 MSTORE PUSH1 0x20 PUSH1 0x4 DUP3 ADD MSTORE PUSH1 0x38 PUSH1 0x24 DUP3 ADD MSTORE PUSH32 0x54686973206D6574686F642063616E206F6E6C792062652063616C6C65642062 PUSH1 0x44 DUP3 ADD MSTORE PUSH32 0x79207468652073706563696669656420636F6E74726163740000000000000000 PUSH1 0x64 DUP3 ADD MSTORE PUSH1 0x84 ADD PUSH2 0x487 JUMP JUMPDEST PUSH1 0x0 PUSH2 0x910 PUSH1 0x12 PUSH1 0xA PUSH2 0x1C11 JUMP JUMPDEST PUSH2 0x91A SWAP1 DUP4 PUSH2 0x1CB9 JUMP JUMPDEST SWAP1 POP PUSH2 0x825 DUP4 DUP3 PUSH1 0x40 MLOAD DUP1 PUSH1 0x20 ADD PUSH1 0x40 MSTORE DUP1 PUSH1 0x0 DUP2 MSTORE POP PUSH1 0x40 MLOAD DUP1 PUSH1 0x20 ADD PUSH1 0x40 MSTORE DUP1 PUSH1 0x0 DUP2 MSTORE POP PUSH2 0x1469 JUMP JUMPDEST CALLER PUSH1 0x1 PUSH1 0x1 PUSH1 0xA0 SHL SUB DUP3 AND EQ ISZERO PUSH2 0x9AB JUMPI PUSH1 0x40 MLOAD PUSH3 0x461BCD PUSH1 0xE5 SHL DUP2 MSTORE PUSH1 0x20 PUSH1 0x4 DUP3 ADD MSTORE PUSH1 0x24 DUP1 DUP3 ADD MSTORE PUSH32 0x4552433737373A20617574686F72697A696E672073656C66206173206F706572 PUSH1 0x44 DUP3 ADD MSTORE PUSH4 0x30BA37B9 PUSH1 0xE1 SHL PUSH1 0x64 DUP3 ADD MSTORE PUSH1 0x84 ADD PUSH2 0x487 JUMP JUMPDEST PUSH1 0x1 PUSH1 0x1 PUSH1 0xA0 SHL SUB DUP2 AND PUSH1 0x0 SWAP1 DUP2 MSTORE PUSH1 0x5 PUSH1 0x20 MSTORE PUSH1 0x40 SWAP1 KECCAK256 SLOAD PUSH1 0xFF AND ISZERO PUSH2 0x9FC JUMPI CALLER PUSH1 0x0 SWAP1 DUP2 MSTORE PUSH1 0x7 PUSH1 0x20 SWAP1 DUP2 MSTORE PUSH1 0x40 DUP1 DUP4 KECCAK256 PUSH1 0x1 PUSH1 0x1 PUSH1 0xA0 SHL SUB DUP6 AND DUP5 MSTORE SWAP1 SWAP2 MSTORE SWAP1 KECCAK256 DUP1 SLOAD PUSH1 0xFF NOT AND SWAP1 SSTORE PUSH2 0xA2B JUMP JUMPDEST CALLER PUSH1 0x0 SWAP1 DUP2 MSTORE PUSH1 0x6 PUSH1 0x20 SWAP1 DUP2 MSTORE PUSH1 0x40 DUP1 DUP4 KECCAK256 PUSH1 0x1 PUSH1 0x1 PUSH1 0xA0 SHL SUB DUP6 AND DUP5 MSTORE SWAP1 SWAP2 MSTORE SWAP1 KECCAK256 DUP1 SLOAD PUSH1 0xFF NOT AND PUSH1 0x1 OR SWAP1 SSTORE JUMPDEST PUSH1 0x40 MLOAD CALLER SWAP1 PUSH1 0x1 PUSH1 0x1 PUSH1 0xA0 SHL SUB DUP4 AND SWAP1 PUSH32 0xF4CAEB2D6CA8932A215A353D0703C326EC2D81FC68170F320EB2AB49E9DF61F9 SWAP1 PUSH1 0x0 SWAP1 LOG3 POP JUMP JUMPDEST PUSH1 0x60 PUSH1 0x3 DUP1 SLOAD PUSH2 0x393 SWAP1 PUSH2 0x1CEF JUMP JUMPDEST PUSH2 0x825 CALLER DUP5 DUP5 DUP5 PUSH1 0x40 MLOAD DUP1 PUSH1 0x20 ADD PUSH1 0x40 MSTORE DUP1 PUSH1 0x0 DUP2 MSTORE POP PUSH1 0x1 PUSH2 0x1378 JUMP JUMPDEST PUSH1 0x0 PUSH1 0x1 PUSH1 0x1 PUSH1 0xA0 SHL SUB DUP4 AND PUSH2 0xAF5 JUMPI PUSH1 0x40 MLOAD PUSH3 0x461BCD PUSH1 0xE5 SHL DUP2 MSTORE PUSH1 0x20 PUSH1 0x4 DUP3 ADD MSTORE PUSH1 0x24 DUP1 DUP3 ADD MSTORE PUSH32 0x4552433737373A207472616E7366657220746F20746865207A65726F20616464 PUSH1 0x44 DUP3 ADD MSTORE PUSH4 0x72657373 PUSH1 0xE0 SHL PUSH1 0x64 DUP3 ADD MSTORE PUSH1 0x84 ADD PUSH2 0x487 JUMP JUMPDEST PUSH1 0x0 CALLER SWAP1 POP PUSH2 0xB26 DUP2 DUP3 DUP7 DUP7 PUSH1 0x40 MLOAD DUP1 PUSH1 0x20 ADD PUSH1 0x40 MSTORE DUP1 PUSH1 0x0 DUP2 MSTORE POP PUSH1 0x40 MLOAD DUP1 PUSH1 0x20 ADD PUSH1 0x40 MSTORE DUP1 PUSH1 0x0 DUP2 MSTORE POP PUSH2 0xF07 JUMP JUMPDEST PUSH2 0xB52 DUP2 DUP3 DUP7 DUP7 PUSH1 0x40 MLOAD DUP1 PUSH1 0x20 ADD PUSH1 0x40 MSTORE DUP1 PUSH1 0x0 DUP2 MSTORE POP PUSH1 0x40 MLOAD DUP1 PUSH1 0x20 ADD PUSH1 0x40 MSTORE DUP1 PUSH1 0x0 DUP2 MSTORE POP PUSH2 0x103E JUMP JUMPDEST PUSH2 0x41B DUP2 DUP3 DUP7 DUP7 PUSH1 0x40 MLOAD DUP1 PUSH1 0x20 ADD PUSH1 0x40 MSTORE DUP1 PUSH1 0x0 DUP2 MSTORE POP PUSH1 0x40 MLOAD DUP1 PUSH1 0x20 ADD PUSH1 0x40 MSTORE DUP1 PUSH1 0x0 DUP2 MSTORE POP PUSH1 0x0 PUSH2 0x11A4 JUMP JUMPDEST PUSH1 0x0 DUP2 PUSH1 0x1 PUSH1 0x1 PUSH1 0xA0 SHL SUB AND DUP4 PUSH1 0x1 PUSH1 0x1 PUSH1 0xA0 SHL SUB AND EQ DUP1 PUSH2 0xBEB JUMPI POP PUSH1 0x1 PUSH1 0x1 PUSH1 0xA0 SHL SUB DUP4 AND PUSH1 0x0 SWAP1 DUP2 MSTORE PUSH1 0x5 PUSH1 0x20 MSTORE PUSH1 0x40 SWAP1 KECCAK256 SLOAD PUSH1 0xFF AND DUP1 ISZERO PUSH2 0xBEB JUMPI POP PUSH1 0x1 PUSH1 0x1 PUSH1 0xA0 SHL SUB DUP1 DUP4 AND PUSH1 0x0 SWAP1 DUP2 MSTORE PUSH1 0x7 PUSH1 0x20 SWAP1 DUP2 MSTORE PUSH1 0x40 DUP1 DUP4 KECCAK256 SWAP4 DUP8 AND DUP4 MSTORE SWAP3 SWAP1 MSTORE KECCAK256 SLOAD PUSH1 0xFF AND ISZERO JUMPDEST DUP1 PUSH2 0xC1B JUMPI POP PUSH1 0x1 PUSH1 0x1 PUSH1 0xA0 SHL SUB DUP1 DUP4 AND PUSH1 0x0 SWAP1 DUP2 MSTORE PUSH1 0x6 PUSH1 0x20 SWAP1 DUP2 MSTORE PUSH1 0x40 DUP1 DUP4 KECCAK256 SWAP4 DUP8 AND DUP4 MSTORE SWAP3 SWAP1 MSTORE KECCAK256 SLOAD PUSH1 0xFF AND JUMPDEST SWAP4 SWAP3 POP POP POP JUMP JUMPDEST PUSH1 0x1 PUSH1 0x1 PUSH1 0xA0 SHL SUB DUP2 AND CALLER EQ ISZERO PUSH2 0xC85 JUMPI PUSH1 0x40 MLOAD PUSH3 0x461BCD PUSH1 0xE5 SHL DUP2 MSTORE PUSH1 0x20 PUSH1 0x4 DUP3 ADD MSTORE PUSH1 0x21 PUSH1 0x24 DUP3 ADD MSTORE PUSH32 0x4552433737373A207265766F6B696E672073656C66206173206F70657261746F PUSH1 0x44 DUP3 ADD MSTORE PUSH1 0x39 PUSH1 0xF9 SHL PUSH1 0x64 DUP3 ADD MSTORE PUSH1 0x84 ADD PUSH2 0x487 JUMP JUMPDEST PUSH1 0x1 PUSH1 0x1 PUSH1 0xA0 SHL SUB DUP2 AND PUSH1 0x0 SWAP1 DUP2 MSTORE PUSH1 0x5 PUSH1 0x20 MSTORE PUSH1 0x40 SWAP1 KECCAK256 SLOAD PUSH1 0xFF AND ISZERO PUSH2 0xCD9 JUMPI CALLER PUSH1 0x0 SWAP1 DUP2 MSTORE PUSH1 0x7 PUSH1 0x20 SWAP1 DUP2 MSTORE PUSH1 0x40 DUP1 DUP4 KECCAK256 PUSH1 0x1 PUSH1 0x1 PUSH1 0xA0 SHL SUB DUP6 AND DUP5 MSTORE SWAP1 SWAP2 MSTORE SWAP1 KECCAK256 DUP1 SLOAD PUSH1 0xFF NOT AND PUSH1 0x1 OR SWAP1 SSTORE PUSH2 0xD05 JUMP JUMPDEST CALLER PUSH1 0x0 SWAP1 DUP2 MSTORE PUSH1 0x6 PUSH1 0x20 SWAP1 DUP2 MSTORE PUSH1 0x40 DUP1 DUP4 KECCAK256 PUSH1 0x1 PUSH1 0x1 PUSH1 0xA0 SHL SUB DUP6 AND DUP5 MSTORE SWAP1 SWAP2 MSTORE SWAP1 KECCAK256 DUP1 SLOAD PUSH1 0xFF NOT AND SWAP1 SSTORE JUMPDEST PUSH1 0x40 MLOAD CALLER SWAP1 PUSH1 0x1 PUSH1 0x1 PUSH1 0xA0 SHL SUB DUP4 AND SWAP1 PUSH32 0x50546E66E5F44D728365DC3908C63BC5CFEEAB470722C1677E3073A6AC294AA1 SWAP1 PUSH1 0x0 SWAP1 LOG3 POP JUMP JUMPDEST PUSH2 0xD48 CALLER DUP6 PUSH2 0xB80 JUMP JUMPDEST PUSH2 0xDA9 JUMPI PUSH1 0x40 MLOAD PUSH3 0x461BCD PUSH1 0xE5 SHL DUP2 MSTORE PUSH1 0x20 PUSH1 0x4 DUP3 ADD MSTORE PUSH1 0x2C PUSH1 0x24 DUP3 ADD MSTORE PUSH32 0x4552433737373A2063616C6C6572206973206E6F7420616E206F70657261746F PUSH1 0x44 DUP3 ADD MSTORE PUSH12 0x39103337B9103437B63232B9 PUSH1 0xA1 SHL PUSH1 0x64 DUP3 ADD MSTORE PUSH1 0x84 ADD PUSH2 0x487 JUMP JUMPDEST PUSH2 0xDB5 DUP5 DUP5 DUP5 DUP5 PUSH2 0x1469 JUMP JUMPDEST POP POP POP POP JUMP JUMPDEST PUSH2 0xDD6 CALLER DUP4 DUP4 PUSH1 0x40 MLOAD DUP1 PUSH1 0x20 ADD PUSH1 0x40 MSTORE DUP1 PUSH1 0x0 DUP2 MSTORE POP PUSH2 0x1469 JUMP JUMPDEST POP POP JUMP JUMPDEST EXTCODESIZE ISZERO ISZERO SWAP1 JUMP JUMPDEST PUSH1 0x1 PUSH1 0x1 PUSH1 0xA0 SHL SUB DUP4 AND PUSH2 0xE44 JUMPI PUSH1 0x40 MLOAD PUSH3 0x461BCD PUSH1 0xE5 SHL DUP2 MSTORE PUSH1 0x20 PUSH1 0x4 DUP3 ADD MSTORE PUSH1 0x25 PUSH1 0x24 DUP3 ADD MSTORE PUSH32 0x4552433737373A20617070726F76652066726F6D20746865207A65726F206164 PUSH1 0x44 DUP3 ADD MSTORE PUSH5 0x6472657373 PUSH1 0xD8 SHL PUSH1 0x64 DUP3 ADD MSTORE PUSH1 0x84 ADD PUSH2 0x487 JUMP JUMPDEST PUSH1 0x1 PUSH1 0x1 PUSH1 0xA0 SHL SUB DUP3 AND PUSH2 0xEA6 JUMPI PUSH1 0x40 MLOAD PUSH3 0x461BCD PUSH1 0xE5 SHL DUP2 MSTORE PUSH1 0x20 PUSH1 0x4 DUP3 ADD MSTORE PUSH1 0x23 PUSH1 0x24 DUP3 ADD MSTORE PUSH32 0x4552433737373A20617070726F766520746F20746865207A65726F2061646472 PUSH1 0x44 DUP3 ADD MSTORE PUSH3 0x657373 PUSH1 0xE8 SHL PUSH1 0x64 DUP3 ADD MSTORE PUSH1 0x84 ADD PUSH2 0x487 JUMP JUMPDEST PUSH1 0x1 PUSH1 0x1 PUSH1 0xA0 SHL SUB DUP4 DUP2 AND PUSH1 0x0 DUP2 DUP2 MSTORE PUSH1 0x8 PUSH1 0x20 SWAP1 DUP2 MSTORE PUSH1 0x40 DUP1 DUP4 KECCAK256 SWAP5 DUP8 AND DUP1 DUP5 MSTORE SWAP5 DUP3 MSTORE SWAP2 DUP3 SWAP1 KECCAK256 DUP6 SWAP1 SSTORE SWAP1 MLOAD DUP5 DUP2 MSTORE PUSH32 0x8C5BE1E5EBEC7D5BD14F71427D1E84F3DD0314C0F7B2291E5B200AC8C7C3B925 SWAP2 ADD PUSH1 0x40 MLOAD DUP1 SWAP2 SUB SWAP1 LOG3 POP POP POP JUMP JUMPDEST PUSH1 0x40 MLOAD PUSH4 0x555DDC65 PUSH1 0xE1 SHL DUP2 MSTORE PUSH1 0x1 PUSH1 0x1 PUSH1 0xA0 SHL SUB DUP7 AND PUSH1 0x4 DUP3 ADD MSTORE PUSH32 0x29DDB589B1FB5FC7CF394961C1ADF5F8C6454761ADF795E67FE149F658ABE895 PUSH1 0x24 DUP3 ADD MSTORE PUSH1 0x0 SWAP1 PUSH20 0x1820A4B7618BDE71DCE8CDC73AAB6C95905FAD24 SWAP1 PUSH4 0xAABBB8CA SWAP1 PUSH1 0x44 ADD PUSH1 0x20 PUSH1 0x40 MLOAD DUP1 DUP4 SUB DUP2 DUP7 DUP1 EXTCODESIZE ISZERO DUP1 ISZERO PUSH2 0xF83 JUMPI PUSH1 0x0 DUP1 REVERT JUMPDEST POP GAS STATICCALL ISZERO DUP1 ISZERO PUSH2 0xF97 JUMPI RETURNDATASIZE PUSH1 0x0 DUP1 RETURNDATACOPY RETURNDATASIZE PUSH1 0x0 REVERT JUMPDEST POP POP POP POP PUSH1 0x40 MLOAD RETURNDATASIZE PUSH1 0x1F NOT PUSH1 0x1F DUP3 ADD AND DUP3 ADD DUP1 PUSH1 0x40 MSTORE POP DUP2 ADD SWAP1 PUSH2 0xFBB SWAP2 SWAP1 PUSH2 0x1805 JUMP JUMPDEST SWAP1 POP PUSH1 0x1 PUSH1 0x1 PUSH1 0xA0 SHL SUB DUP2 AND ISZERO PUSH2 0x1035 JUMPI PUSH1 0x40 MLOAD PUSH4 0x3AD5CBC1 PUSH1 0xE1 SHL DUP2 MSTORE PUSH1 0x1 PUSH1 0x1 PUSH1 0xA0 SHL SUB DUP3 AND SWAP1 PUSH4 0x75AB9782 SWAP1 PUSH2 0x1002 SWAP1 DUP11 SWAP1 DUP11 SWAP1 DUP11 SWAP1 DUP11 SWAP1 DUP11 SWAP1 DUP11 SWAP1 PUSH1 0x4 ADD PUSH2 0x1AC8 JUMP JUMPDEST PUSH1 0x0 PUSH1 0x40 MLOAD DUP1 DUP4 SUB DUP2 PUSH1 0x0 DUP8 DUP1 EXTCODESIZE ISZERO DUP1 ISZERO PUSH2 0x101C JUMPI PUSH1 0x0 DUP1 REVERT JUMPDEST POP GAS CALL ISZERO DUP1 ISZERO PUSH2 0x1030 JUMPI RETURNDATASIZE PUSH1 0x0 DUP1 RETURNDATACOPY RETURNDATASIZE PUSH1 0x0 REVERT JUMPDEST POP POP POP POP JUMPDEST POP POP POP POP POP POP POP JUMP JUMPDEST PUSH1 0x1 PUSH1 0x1 PUSH1 0xA0 SHL SUB DUP6 AND PUSH1 0x0 SWAP1 DUP2 MSTORE PUSH1 0x20 DUP2 SWAP1 MSTORE PUSH1 0x40 SWAP1 KECCAK256 SLOAD DUP4 DUP2 LT ISZERO PUSH2 0x10B7 JUMPI PUSH1 0x40 MLOAD PUSH3 0x461BCD PUSH1 0xE5 SHL DUP2 MSTORE PUSH1 0x20 PUSH1 0x4 DUP3 ADD MSTORE PUSH1 0x27 PUSH1 0x24 DUP3 ADD MSTORE PUSH32 0x4552433737373A207472616E7366657220616D6F756E74206578636565647320 PUSH1 0x44 DUP3 ADD MSTORE PUSH7 0x62616C616E6365 PUSH1 0xC8 SHL PUSH1 0x64 DUP3 ADD MSTORE PUSH1 0x84 ADD PUSH2 0x487 JUMP JUMPDEST PUSH1 0x1 PUSH1 0x1 PUSH1 0xA0 SHL SUB DUP1 DUP8 AND PUSH1 0x0 SWAP1 DUP2 MSTORE PUSH1 0x20 DUP2 SWAP1 MSTORE PUSH1 0x40 DUP1 DUP3 KECCAK256 DUP8 DUP6 SUB SWAP1 SSTORE SWAP2 DUP8 AND DUP2 MSTORE SWAP1 DUP2 KECCAK256 DUP1 SLOAD DUP7 SWAP3 SWAP1 PUSH2 0x10EE SWAP1 DUP5 SWAP1 PUSH2 0x1BB6 JUMP JUMPDEST SWAP3 POP POP DUP2 SWAP1 SSTORE POP DUP5 PUSH1 0x1 PUSH1 0x1 PUSH1 0xA0 SHL SUB AND DUP7 PUSH1 0x1 PUSH1 0x1 PUSH1 0xA0 SHL SUB AND DUP9 PUSH1 0x1 PUSH1 0x1 PUSH1 0xA0 SHL SUB AND PUSH32 0x6B541DDAA720DB2B10A4D0CDAC39B8D360425FC073085FAC19BC82614677987 DUP8 DUP8 DUP8 PUSH1 0x40 MLOAD PUSH2 0x1146 SWAP4 SWAP3 SWAP2 SWAP1 PUSH2 0x1B81 JUMP JUMPDEST PUSH1 0x40 MLOAD DUP1 SWAP2 SUB SWAP1 LOG4 DUP5 PUSH1 0x1 PUSH1 0x1 PUSH1 0xA0 SHL SUB AND DUP7 PUSH1 0x1 PUSH1 0x1 PUSH1 0xA0 SHL SUB AND PUSH32 0xDDF252AD1BE2C89B69C2B068FC378DAA952BA7F163C4A11628F55A4DF523B3EF DUP7 PUSH1 0x40 MLOAD PUSH2 0x1193 SWAP2 DUP2 MSTORE PUSH1 0x20 ADD SWAP1 JUMP JUMPDEST PUSH1 0x40 MLOAD DUP1 SWAP2 SUB SWAP1 LOG3 POP POP POP POP POP POP POP JUMP JUMPDEST PUSH1 0x40 MLOAD PUSH4 0x555DDC65 PUSH1 0xE1 SHL DUP2 MSTORE PUSH1 0x1 PUSH1 0x1 PUSH1 0xA0 SHL SUB DUP7 AND PUSH1 0x4 DUP3 ADD MSTORE PUSH32 0xB281FC8C12954D22544DB45DE3159A39272895B169A852B314F9CC762E44C53B PUSH1 0x24 DUP3 ADD MSTORE PUSH1 0x0 SWAP1 PUSH20 0x1820A4B7618BDE71DCE8CDC73AAB6C95905FAD24 SWAP1 PUSH4 0xAABBB8CA SWAP1 PUSH1 0x44 ADD PUSH1 0x20 PUSH1 0x40 MLOAD DUP1 DUP4 SUB DUP2 DUP7 DUP1 EXTCODESIZE ISZERO DUP1 ISZERO PUSH2 0x1220 JUMPI PUSH1 0x0 DUP1 REVERT JUMPDEST POP GAS STATICCALL ISZERO DUP1 ISZERO PUSH2 0x1234 JUMPI RETURNDATASIZE PUSH1 0x0 DUP1 RETURNDATACOPY RETURNDATASIZE PUSH1 0x0 REVERT JUMPDEST POP POP POP POP PUSH1 0x40 MLOAD RETURNDATASIZE PUSH1 0x1F NOT PUSH1 0x1F DUP3 ADD AND DUP3 ADD DUP1 PUSH1 0x40 MSTORE POP DUP2 ADD SWAP1 PUSH2 0x1258 SWAP2 SWAP1 PUSH2 0x1805 JUMP JUMPDEST SWAP1 POP PUSH1 0x1 PUSH1 0x1 PUSH1 0xA0 SHL SUB DUP2 AND ISZERO PUSH2 0x12D4 JUMPI PUSH1 0x40 MLOAD PUSH3 0x23DE29 PUSH1 0xE0 SHL DUP2 MSTORE PUSH1 0x1 PUSH1 0x1 PUSH1 0xA0 SHL SUB DUP3 AND SWAP1 PUSH3 0x23DE29 SWAP1 PUSH2 0x129D SWAP1 DUP12 SWAP1 DUP12 SWAP1 DUP12 SWAP1 DUP12 SWAP1 DUP12 SWAP1 DUP12 SWAP1 PUSH1 0x4 ADD PUSH2 0x1AC8 JUMP JUMPDEST PUSH1 0x0 PUSH1 0x40 MLOAD DUP1 DUP4 SUB DUP2 PUSH1 0x0 DUP8 DUP1 EXTCODESIZE ISZERO DUP1 ISZERO PUSH2 0x12B7 JUMPI PUSH1 0x0 DUP1 REVERT JUMPDEST POP GAS CALL ISZERO DUP1 ISZERO PUSH2 0x12CB JUMPI RETURNDATASIZE PUSH1 0x0 DUP1 RETURNDATACOPY RETURNDATASIZE PUSH1 0x0 REVERT JUMPDEST POP POP POP POP PUSH2 0x136E JUMP JUMPDEST DUP2 ISZERO PUSH2 0x136E JUMPI PUSH1 0x1 PUSH1 0x1 PUSH1 0xA0 SHL SUB DUP7 AND EXTCODESIZE ISZERO PUSH2 0x136E JUMPI PUSH1 0x40 MLOAD PUSH3 0x461BCD PUSH1 0xE5 SHL DUP2 MSTORE PUSH1 0x20 PUSH1 0x4 DUP3 ADD MSTORE PUSH1 0x4D PUSH1 0x24 DUP3 ADD MSTORE PUSH32 0x4552433737373A20746F6B656E20726563697069656E7420636F6E7472616374 PUSH1 0x44 DUP3 ADD MSTORE PUSH32 0x20686173206E6F20696D706C656D656E74657220666F7220455243373737546F PUSH1 0x64 DUP3 ADD MSTORE PUSH13 0x1AD95B9CD49958DA5C1A595B9D PUSH1 0x9A SHL PUSH1 0x84 DUP3 ADD MSTORE PUSH1 0xA4 ADD PUSH2 0x487 JUMP JUMPDEST POP POP POP POP POP POP POP POP JUMP JUMPDEST PUSH1 0x1 PUSH1 0x1 PUSH1 0xA0 SHL SUB DUP7 AND PUSH2 0x13D9 JUMPI PUSH1 0x40 MLOAD PUSH3 0x461BCD PUSH1 0xE5 SHL DUP2 MSTORE PUSH1 0x20 PUSH1 0x4 DUP3 ADD MSTORE PUSH1 0x22 PUSH1 0x24 DUP3 ADD MSTORE PUSH32 0x4552433737373A2073656E642066726F6D20746865207A65726F206164647265 PUSH1 0x44 DUP3 ADD MSTORE PUSH2 0x7373 PUSH1 0xF0 SHL PUSH1 0x64 DUP3 ADD MSTORE PUSH1 0x84 ADD PUSH2 0x487 JUMP JUMPDEST PUSH1 0x1 PUSH1 0x1 PUSH1 0xA0 SHL SUB DUP6 AND PUSH2 0x142F JUMPI PUSH1 0x40 MLOAD PUSH3 0x461BCD PUSH1 0xE5 SHL DUP2 MSTORE PUSH1 0x20 PUSH1 0x4 DUP3 ADD DUP2 SWAP1 MSTORE PUSH1 0x24 DUP3 ADD MSTORE PUSH32 0x4552433737373A2073656E6420746F20746865207A65726F2061646472657373 PUSH1 0x44 DUP3 ADD MSTORE PUSH1 0x64 ADD PUSH2 0x487 JUMP JUMPDEST CALLER PUSH2 0x143E DUP2 DUP9 DUP9 DUP9 DUP9 DUP9 PUSH2 0xF07 JUMP JUMPDEST PUSH2 0x144C DUP2 DUP9 DUP9 DUP9 DUP9 DUP9 PUSH2 0x103E JUMP JUMPDEST PUSH2 0x1035 DUP2 DUP9 DUP9 DUP9 DUP9 DUP9 DUP9 PUSH2 0x11A4 JUMP JUMPDEST PUSH2 0xDB5 DUP5 DUP5 DUP5 DUP5 PUSH1 0x1 PUSH2 0x161E JUMP JUMPDEST PUSH1 0x1 PUSH1 0x1 PUSH1 0xA0 SHL SUB DUP5 AND PUSH2 0x14CA JUMPI PUSH1 0x40 MLOAD PUSH3 0x461BCD PUSH1 0xE5 SHL DUP2 MSTORE PUSH1 0x20 PUSH1 0x4 DUP3 ADD MSTORE PUSH1 0x22 PUSH1 0x24 DUP3 ADD MSTORE PUSH32 0x4552433737373A206275726E2066726F6D20746865207A65726F206164647265 PUSH1 0x44 DUP3 ADD MSTORE PUSH2 0x7373 PUSH1 0xF0 SHL PUSH1 0x64 DUP3 ADD MSTORE PUSH1 0x84 ADD PUSH2 0x487 JUMP JUMPDEST CALLER PUSH2 0x14DA DUP2 DUP7 PUSH1 0x0 DUP8 DUP8 DUP8 PUSH2 0xF07 JUMP JUMPDEST PUSH1 0x1 PUSH1 0x1 PUSH1 0xA0 SHL SUB DUP6 AND PUSH1 0x0 SWAP1 DUP2 MSTORE PUSH1 0x20 DUP2 SWAP1 MSTORE PUSH1 0x40 SWAP1 KECCAK256 SLOAD DUP5 DUP2 LT ISZERO PUSH2 0x154F JUMPI PUSH1 0x40 MLOAD PUSH3 0x461BCD PUSH1 0xE5 SHL DUP2 MSTORE PUSH1 0x20 PUSH1 0x4 DUP3 ADD MSTORE PUSH1 0x23 PUSH1 0x24 DUP3 ADD MSTORE PUSH32 0x4552433737373A206275726E20616D6F756E7420657863656564732062616C61 PUSH1 0x44 DUP3 ADD MSTORE PUSH3 0x6E6365 PUSH1 0xE8 SHL PUSH1 0x64 DUP3 ADD MSTORE PUSH1 0x84 ADD PUSH2 0x487 JUMP JUMPDEST PUSH1 0x1 PUSH1 0x1 PUSH1 0xA0 SHL SUB DUP7 AND PUSH1 0x0 SWAP1 DUP2 MSTORE PUSH1 0x20 DUP2 SWAP1 MSTORE PUSH1 0x40 DUP2 KECCAK256 DUP7 DUP4 SUB SWAP1 SSTORE PUSH1 0x1 DUP1 SLOAD DUP8 SWAP3 SWAP1 PUSH2 0x157E SWAP1 DUP5 SWAP1 PUSH2 0x1CD8 JUMP JUMPDEST SWAP3 POP POP DUP2 SWAP1 SSTORE POP DUP6 PUSH1 0x1 PUSH1 0x1 PUSH1 0xA0 SHL SUB AND DUP3 PUSH1 0x1 PUSH1 0x1 PUSH1 0xA0 SHL SUB AND PUSH32 0xA78A9BE3A7B862D26933AD85FB11D80EF66B8F972D7CBBA06621D583943A4098 DUP8 DUP8 DUP8 PUSH1 0x40 MLOAD PUSH2 0x15CC SWAP4 SWAP3 SWAP2 SWAP1 PUSH2 0x1B81 JUMP JUMPDEST PUSH1 0x40 MLOAD DUP1 SWAP2 SUB SWAP1 LOG3 PUSH1 0x40 MLOAD DUP6 DUP2 MSTORE PUSH1 0x0 SWAP1 PUSH1 0x1 PUSH1 0x1 PUSH1 0xA0 SHL SUB DUP9 AND SWAP1 PUSH32 0xDDF252AD1BE2C89B69C2B068FC378DAA952BA7F163C4A11628F55A4DF523B3EF SWAP1 PUSH1 0x20 ADD JUMPDEST PUSH1 0x40 MLOAD DUP1 SWAP2 SUB SWAP1 LOG3 POP POP POP POP POP POP JUMP JUMPDEST PUSH1 0x1 PUSH1 0x1 PUSH1 0xA0 SHL SUB DUP6 AND PUSH2 0x1674 JUMPI PUSH1 0x40 MLOAD PUSH3 0x461BCD PUSH1 0xE5 SHL DUP2 MSTORE PUSH1 0x20 PUSH1 0x4 DUP3 ADD DUP2 SWAP1 MSTORE PUSH1 0x24 DUP3 ADD MSTORE PUSH32 0x4552433737373A206D696E7420746F20746865207A65726F2061646472657373 PUSH1 0x44 DUP3 ADD MSTORE PUSH1 0x64 ADD PUSH2 0x487 JUMP JUMPDEST PUSH1 0x0 CALLER SWAP1 POP DUP5 PUSH1 0x1 PUSH1 0x0 DUP3 DUP3 SLOAD PUSH2 0x168B SWAP2 SWAP1 PUSH2 0x1BB6 JUMP JUMPDEST SWAP1 SWAP2 SSTORE POP POP PUSH1 0x1 PUSH1 0x1 PUSH1 0xA0 SHL SUB DUP7 AND PUSH1 0x0 SWAP1 DUP2 MSTORE PUSH1 0x20 DUP2 SWAP1 MSTORE PUSH1 0x40 DUP2 KECCAK256 DUP1 SLOAD DUP8 SWAP3 SWAP1 PUSH2 0x16B8 SWAP1 DUP5 SWAP1 PUSH2 0x1BB6 JUMP JUMPDEST SWAP1 SWAP2 SSTORE POP PUSH2 0x16CE SWAP1 POP DUP2 PUSH1 0x0 DUP9 DUP9 DUP9 DUP9 DUP9 PUSH2 0x11A4 JUMP JUMPDEST DUP6 PUSH1 0x1 PUSH1 0x1 PUSH1 0xA0 SHL SUB AND DUP2 PUSH1 0x1 PUSH1 0x1 PUSH1 0xA0 SHL SUB AND PUSH32 0x2FE5BE0146F74C5BCE36C0B80911AF6C7D86FF27E89D5CFA61FC681327954E5D DUP8 DUP8 DUP8 PUSH1 0x40 MLOAD PUSH2 0x1715 SWAP4 SWAP3 SWAP2 SWAP1 PUSH2 0x1B81 JUMP JUMPDEST PUSH1 0x40 MLOAD DUP1 SWAP2 SUB SWAP1 LOG3 PUSH1 0x40 MLOAD DUP6 DUP2 MSTORE PUSH1 0x1 PUSH1 0x1 PUSH1 0xA0 SHL SUB DUP8 AND SWAP1 PUSH1 0x0 SWAP1 PUSH32 0xDDF252AD1BE2C89B69C2B068FC378DAA952BA7F163C4A11628F55A4DF523B3EF SWAP1 PUSH1 0x20 ADD PUSH2 0x160E JUMP JUMPDEST PUSH1 0x0 DUP3 PUSH1 0x1F DUP4 ADD SLT PUSH2 0x176C JUMPI PUSH1 0x0 DUP1 REVERT JUMPDEST DUP2 CALLDATALOAD PUSH8 0xFFFFFFFFFFFFFFFF DUP1 DUP3 GT ISZERO PUSH2 0x1787 JUMPI PUSH2 0x1787 PUSH2 0x1D40 JUMP JUMPDEST PUSH1 0x40 MLOAD PUSH1 0x1F DUP4 ADD PUSH1 0x1F NOT SWAP1 DUP2 AND PUSH1 0x3F ADD AND DUP2 ADD SWAP1 DUP3 DUP3 GT DUP2 DUP4 LT OR ISZERO PUSH2 0x17AF JUMPI PUSH2 0x17AF PUSH2 0x1D40 JUMP JUMPDEST DUP2 PUSH1 0x40 MSTORE DUP4 DUP2 MSTORE DUP7 PUSH1 0x20 DUP6 DUP9 ADD ADD GT ISZERO PUSH2 0x17C8 JUMPI PUSH1 0x0 DUP1 REVERT JUMPDEST DUP4 PUSH1 0x20 DUP8 ADD PUSH1 0x20 DUP4 ADD CALLDATACOPY PUSH1 0x0 PUSH1 0x20 DUP6 DUP4 ADD ADD MSTORE DUP1 SWAP5 POP POP POP POP POP SWAP3 SWAP2 POP POP JUMP JUMPDEST PUSH1 0x0 PUSH1 0x20 DUP3 DUP5 SUB SLT ISZERO PUSH2 0x17FA JUMPI PUSH1 0x0 DUP1 REVERT JUMPDEST DUP2 CALLDATALOAD PUSH2 0xC1B DUP2 PUSH2 0x1D56 JUMP JUMPDEST PUSH1 0x0 PUSH1 0x20 DUP3 DUP5 SUB SLT ISZERO PUSH2 0x1817 JUMPI PUSH1 0x0 DUP1 REVERT JUMPDEST DUP2 MLOAD PUSH2 0xC1B DUP2 PUSH2 0x1D56 JUMP JUMPDEST PUSH1 0x0 DUP1 PUSH1 0x40 DUP4 DUP6 SUB SLT ISZERO PUSH2 0x1835 JUMPI PUSH1 0x0 DUP1 REVERT JUMPDEST DUP3 CALLDATALOAD PUSH2 0x1840 DUP2 PUSH2 0x1D56 JUMP JUMPDEST SWAP2 POP PUSH1 0x20 DUP4 ADD CALLDATALOAD PUSH2 0x1850 DUP2 PUSH2 0x1D56 JUMP JUMPDEST DUP1 SWAP2 POP POP SWAP3 POP SWAP3 SWAP1 POP JUMP JUMPDEST PUSH1 0x0 DUP1 PUSH1 0x0 PUSH1 0x60 DUP5 DUP7 SUB SLT ISZERO PUSH2 0x1870 JUMPI PUSH1 0x0 DUP1 REVERT JUMPDEST DUP4 CALLDATALOAD PUSH2 0x187B DUP2 PUSH2 0x1D56 JUMP JUMPDEST SWAP3 POP PUSH1 0x20 DUP5 ADD CALLDATALOAD PUSH2 0x188B DUP2 PUSH2 0x1D56 JUMP JUMPDEST SWAP3 SWAP6 SWAP3 SWAP5 POP POP POP PUSH1 0x40 SWAP2 SWAP1 SWAP2 ADD CALLDATALOAD SWAP1 JUMP JUMPDEST PUSH1 0x0 DUP1 PUSH1 0x0 DUP1 PUSH1 0x0 PUSH1 0xA0 DUP7 DUP9 SUB SLT ISZERO PUSH2 0x18B4 JUMPI PUSH1 0x0 DUP1 REVERT JUMPDEST DUP6 CALLDATALOAD PUSH2 0x18BF DUP2 PUSH2 0x1D56 JUMP JUMPDEST SWAP5 POP PUSH1 0x20 DUP7 ADD CALLDATALOAD PUSH2 0x18CF DUP2 PUSH2 0x1D56 JUMP JUMPDEST SWAP4 POP PUSH1 0x40 DUP7 ADD CALLDATALOAD SWAP3 POP PUSH1 0x60 DUP7 ADD CALLDATALOAD PUSH8 0xFFFFFFFFFFFFFFFF DUP1 DUP3 GT ISZERO PUSH2 0x18F3 JUMPI PUSH1 0x0 DUP1 REVERT JUMPDEST PUSH2 0x18FF DUP10 DUP4 DUP11 ADD PUSH2 0x175B JUMP JUMPDEST SWAP4 POP PUSH1 0x80 DUP9 ADD CALLDATALOAD SWAP2 POP DUP1 DUP3 GT ISZERO PUSH2 0x1915 JUMPI PUSH1 0x0 DUP1 REVERT JUMPDEST POP PUSH2 0x1922 DUP9 DUP3 DUP10 ADD PUSH2 0x175B JUMP JUMPDEST SWAP2 POP POP SWAP3 SWAP6 POP SWAP3 SWAP6 SWAP1 SWAP4 POP JUMP JUMPDEST PUSH1 0x0 DUP1 PUSH1 0x40 DUP4 DUP6 SUB SLT ISZERO PUSH2 0x1942 JUMPI PUSH1 0x0 DUP1 REVERT JUMPDEST DUP3 CALLDATALOAD PUSH2 0x194D DUP2 PUSH2 0x1D56 JUMP JUMPDEST SWAP5 PUSH1 0x20 SWAP4 SWAP1 SWAP4 ADD CALLDATALOAD SWAP4 POP POP POP JUMP JUMPDEST PUSH1 0x0 DUP1 PUSH1 0x0 PUSH1 0x60 DUP5 DUP7 SUB SLT ISZERO PUSH2 0x1970 JUMPI PUSH1 0x0 DUP1 REVERT JUMPDEST DUP4 CALLDATALOAD PUSH2 0x197B DUP2 PUSH2 0x1D56 JUMP JUMPDEST SWAP3 POP PUSH1 0x20 DUP5 ADD CALLDATALOAD SWAP2 POP PUSH1 0x40 DUP5 ADD CALLDATALOAD PUSH8 0xFFFFFFFFFFFFFFFF DUP2 GT ISZERO PUSH2 0x199E JUMPI PUSH1 0x0 DUP1 REVERT JUMPDEST PUSH2 0x19AA DUP7 DUP3 DUP8 ADD PUSH2 0x175B JUMP JUMPDEST SWAP2 POP POP SWAP3 POP SWAP3 POP SWAP3 JUMP JUMPDEST PUSH1 0x0 DUP1 PUSH1 0x0 DUP1 PUSH1 0x80 DUP6 DUP8 SUB SLT ISZERO PUSH2 0x19CA JUMPI PUSH1 0x0 DUP1 REVERT JUMPDEST DUP5 CALLDATALOAD PUSH2 0x19D5 DUP2 PUSH2 0x1D56 JUMP JUMPDEST SWAP4 POP PUSH1 0x20 DUP6 ADD CALLDATALOAD SWAP3 POP PUSH1 0x40 DUP6 ADD CALLDATALOAD PUSH8 0xFFFFFFFFFFFFFFFF DUP1 DUP3 GT ISZERO PUSH2 0x19F9 JUMPI PUSH1 0x0 DUP1 REVERT JUMPDEST PUSH2 0x1A05 DUP9 DUP4 DUP10 ADD PUSH2 0x175B JUMP JUMPDEST SWAP4 POP PUSH1 0x60 DUP8 ADD CALLDATALOAD SWAP2 POP DUP1 DUP3 GT ISZERO PUSH2 0x1A1B JUMPI PUSH1 0x0 DUP1 REVERT JUMPDEST POP PUSH2 0x1A28 DUP8 DUP3 DUP9 ADD PUSH2 0x175B JUMP JUMPDEST SWAP2 POP POP SWAP3 SWAP6 SWAP2 SWAP5 POP SWAP3 POP JUMP JUMPDEST PUSH1 0x0 DUP1 PUSH1 0x40 DUP4 DUP6 SUB SLT ISZERO PUSH2 0x1A47 JUMPI PUSH1 0x0 DUP1 REVERT JUMPDEST DUP3 CALLDATALOAD SWAP2 POP PUSH1 0x20 DUP4 ADD CALLDATALOAD PUSH8 0xFFFFFFFFFFFFFFFF DUP2 GT ISZERO PUSH2 0x1A65 JUMPI PUSH1 0x0 DUP1 REVERT JUMPDEST PUSH2 0x1A71 DUP6 DUP3 DUP7 ADD PUSH2 0x175B JUMP JUMPDEST SWAP2 POP POP SWAP3 POP SWAP3 SWAP1 POP JUMP JUMPDEST PUSH1 0x0 DUP2 MLOAD DUP1 DUP5 MSTORE PUSH1 0x0 JUMPDEST DUP2 DUP2 LT ISZERO PUSH2 0x1AA1 JUMPI PUSH1 0x20 DUP2 DUP6 ADD DUP2 ADD MLOAD DUP7 DUP4 ADD DUP3 ADD MSTORE ADD PUSH2 0x1A85 JUMP JUMPDEST DUP2 DUP2 GT ISZERO PUSH2 0x1AB3 JUMPI PUSH1 0x0 PUSH1 0x20 DUP4 DUP8 ADD ADD MSTORE JUMPDEST POP PUSH1 0x1F ADD PUSH1 0x1F NOT AND SWAP3 SWAP1 SWAP3 ADD PUSH1 0x20 ADD SWAP3 SWAP2 POP POP JUMP JUMPDEST PUSH1 0x0 PUSH1 0x1 PUSH1 0x1 PUSH1 0xA0 SHL SUB DUP1 DUP10 AND DUP4 MSTORE DUP1 DUP9 AND PUSH1 0x20 DUP5 ADD MSTORE DUP1 DUP8 AND PUSH1 0x40 DUP5 ADD MSTORE POP DUP5 PUSH1 0x60 DUP4 ADD MSTORE PUSH1 0xC0 PUSH1 0x80 DUP4 ADD MSTORE PUSH2 0x1B02 PUSH1 0xC0 DUP4 ADD DUP6 PUSH2 0x1A7B JUMP JUMPDEST DUP3 DUP2 SUB PUSH1 0xA0 DUP5 ADD MSTORE PUSH2 0x1B14 DUP2 DUP6 PUSH2 0x1A7B JUMP JUMPDEST SWAP10 SWAP9 POP POP POP POP POP POP POP POP POP JUMP JUMPDEST PUSH1 0x20 DUP1 DUP3 MSTORE DUP3 MLOAD DUP3 DUP3 ADD DUP2 SWAP1 MSTORE PUSH1 0x0 SWAP2 SWAP1 DUP5 DUP3 ADD SWAP1 PUSH1 0x40 DUP6 ADD SWAP1 DUP5 JUMPDEST DUP2 DUP2 LT ISZERO PUSH2 0x1B62 JUMPI DUP4 MLOAD PUSH1 0x1 PUSH1 0x1 PUSH1 0xA0 SHL SUB AND DUP4 MSTORE SWAP3 DUP5 ADD SWAP3 SWAP2 DUP5 ADD SWAP2 PUSH1 0x1 ADD PUSH2 0x1B3D JUMP JUMPDEST POP SWAP1 SWAP7 SWAP6 POP POP POP POP POP POP JUMP JUMPDEST PUSH1 0x20 DUP2 MSTORE PUSH1 0x0 PUSH2 0xC1B PUSH1 0x20 DUP4 ADD DUP5 PUSH2 0x1A7B JUMP JUMPDEST DUP4 DUP2 MSTORE PUSH1 0x60 PUSH1 0x20 DUP3 ADD MSTORE PUSH1 0x0 PUSH2 0x1B9A PUSH1 0x60 DUP4 ADD DUP6 PUSH2 0x1A7B JUMP JUMPDEST DUP3 DUP2 SUB PUSH1 0x40 DUP5 ADD MSTORE PUSH2 0x1BAC DUP2 DUP6 PUSH2 0x1A7B JUMP JUMPDEST SWAP7 SWAP6 POP POP POP POP POP POP JUMP JUMPDEST PUSH1 0x0 DUP3 NOT DUP3 GT ISZERO PUSH2 0x1BC9 JUMPI PUSH2 0x1BC9 PUSH2 0x1D2A JUMP JUMPDEST POP ADD SWAP1 JUMP JUMPDEST PUSH1 0x1 DUP2 DUP2 JUMPDEST DUP1 DUP6 GT ISZERO PUSH2 0x1C09 JUMPI DUP2 PUSH1 0x0 NOT DIV DUP3 GT ISZERO PUSH2 0x1BEF JUMPI PUSH2 0x1BEF PUSH2 0x1D2A JUMP JUMPDEST DUP1 DUP6 AND ISZERO PUSH2 0x1BFC JUMPI SWAP2 DUP2 MUL SWAP2 JUMPDEST SWAP4 DUP5 SHR SWAP4 SWAP1 DUP1 MUL SWAP1 PUSH2 0x1BD3 JUMP JUMPDEST POP SWAP3 POP SWAP3 SWAP1 POP JUMP JUMPDEST PUSH1 0x0 PUSH2 0xC1B DUP4 DUP4 PUSH1 0x0 DUP3 PUSH2 0x1C27 JUMPI POP PUSH1 0x1 PUSH2 0x421 JUMP JUMPDEST DUP2 PUSH2 0x1C34 JUMPI POP PUSH1 0x0 PUSH2 0x421 JUMP JUMPDEST DUP2 PUSH1 0x1 DUP2 EQ PUSH2 0x1C4A JUMPI PUSH1 0x2 DUP2 EQ PUSH2 0x1C54 JUMPI PUSH2 0x1C70 JUMP JUMPDEST PUSH1 0x1 SWAP2 POP POP PUSH2 0x421 JUMP JUMPDEST PUSH1 0xFF DUP5 GT ISZERO PUSH2 0x1C65 JUMPI PUSH2 0x1C65 PUSH2 0x1D2A JUMP JUMPDEST POP POP PUSH1 0x1 DUP3 SHL PUSH2 0x421 JUMP JUMPDEST POP PUSH1 0x20 DUP4 LT PUSH2 0x133 DUP4 LT AND PUSH1 0x4E DUP5 LT PUSH1 0xB DUP5 LT AND OR ISZERO PUSH2 0x1C93 JUMPI POP DUP2 DUP2 EXP PUSH2 0x421 JUMP JUMPDEST PUSH2 0x1C9D DUP4 DUP4 PUSH2 0x1BCE JUMP JUMPDEST DUP1 PUSH1 0x0 NOT DIV DUP3 GT ISZERO PUSH2 0x1CB1 JUMPI PUSH2 0x1CB1 PUSH2 0x1D2A JUMP JUMPDEST MUL SWAP4 SWAP3 POP POP POP JUMP JUMPDEST PUSH1 0x0 DUP2 PUSH1 0x0 NOT DIV DUP4 GT DUP3 ISZERO ISZERO AND ISZERO PUSH2 0x1CD3 JUMPI PUSH2 0x1CD3 PUSH2 0x1D2A JUMP JUMPDEST POP MUL SWAP1 JUMP JUMPDEST PUSH1 0x0 DUP3 DUP3 LT ISZERO PUSH2 0x1CEA JUMPI PUSH2 0x1CEA PUSH2 0x1D2A JUMP JUMPDEST POP SUB SWAP1 JUMP JUMPDEST PUSH1 0x1 DUP2 DUP2 SHR SWAP1 DUP3 AND DUP1 PUSH2 0x1D03 JUMPI PUSH1 0x7F DUP3 AND SWAP2 POP JUMPDEST PUSH1 0x20 DUP3 LT DUP2 EQ ISZERO PUSH2 0x1D24 JUMPI PUSH4 0x4E487B71 PUSH1 0xE0 SHL PUSH1 0x0 MSTORE PUSH1 0x22 PUSH1 0x4 MSTORE PUSH1 0x24 PUSH1 0x0 REVERT JUMPDEST POP SWAP2 SWAP1 POP JUMP JUMPDEST PUSH4 0x4E487B71 PUSH1 0xE0 SHL PUSH1 0x0 MSTORE PUSH1 0x11 PUSH1 0x4 MSTORE PUSH1 0x24 PUSH1 0x0 REVERT JUMPDEST PUSH4 0x4E487B71 PUSH1 0xE0 SHL PUSH1 0x0 MSTORE PUSH1 0x41 PUSH1 0x4 MSTORE PUSH1 0x24 PUSH1 0x0 REVERT JUMPDEST PUSH1 0x1 PUSH1 0x1 PUSH1 0xA0 SHL SUB DUP2 AND DUP2 EQ PUSH2 0x1D6B JUMPI PUSH1 0x0 DUP1 REVERT JUMPDEST POP JUMP INVALID LOG2 PUSH5 0x6970667358 0x22 SLT KECCAK256 0xD1 DIV NUMBER PUSH25 0xDC9F0302D0B04ECADDC3BA33825120330F391AD49C447E6DC2 JUMPDEST BYTE SAR PUSH5 0x736F6C6343 STOP ADDMOD SMOD STOP CALLER PUSH9 0x747470733A2F2F6E66 PUSH21 0x2E6675616B6F726D2E636F6D2F7B69647D2E6A736F PUSH15 0x0 "
        },
        "gasEstimates": {
            "creation": {
                "codeDepositCost": "3552200",
                "executionCost": "infinite",
                "totalCost": "infinite"
            },
            "external": {
                "CreateCardByOwner(uint256[],uint256[],uint256,uint256,string)": "infinite",
                "_entrys(uint256)": "4697",
                "_entrysLength()": "2397",
                "allBalance(address)": "infinite",
                "allTokenIds()": "infinite",
                "balanceOf(address)": "infinite",
                "balanceOf(address,uint256)": "2771",
                "balanceOfBatch(address[],uint256[])": "infinite",
                "buyCardPack()": "infinite",
                "buyCardPackCast()": "2374",
                "cardPackBuyerNum()": "2354",
                "createCard(uint256,uint256[],string)": "infinite",
                "createCardCast()": "2397",
                "decimals()": "267",
                "getMiracleDustTokenAddress()": "2400",
                "getToken(uint256)": "infinite",
                "isApprovedForAll(address,address)": "infinite",
                "isTrustedAddress(address)": "2662",
                "lockCardDust(uint256[],uint256[],address)": "infinite",
                "maxBuyCardStar()": "2396",
                "maxCardCreateStar()": "2375",
                "name()": "infinite",
                "ownerOf(uint256)": "infinite",
                "randomPackUris(uint256)": "4633",
                "rechargeCardUseDust(uint256,uint256)": "infinite",
                "rechargeCards(uint256[],uint256[])": "infinite",
                "removeTrustedAddress(address)": "infinite",
                "safeBatchTransferFrom(address,address,uint256[],uint256[],bytes)": "infinite",
                "safeTransferFrom(address,address,uint256,uint256,bytes)": "infinite",
                "setApprovalForAll(address,bool)": "26717",
                "setBuyCardPackCast(uint256)": "infinite",
                "setCardPackBuyerNum(uint256)": "24606",
                "setCreateCardCast(uint256)": "infinite",
                "setDefaultDust(uint256)": "24583",
                "setEntrys(uint256[])": "infinite",
                "setEntrysLength(uint256)": "infinite",
                "setMDT(address)": "24615",
                "setMaxBuyCardStar(uint256)": "24626",
                "setMaxCardCreateStar(uint256)": "24626",
                "setRandomPackUris(bytes32[])": "infinite",
                "setTokenValue(uint256,uint256,uint256,uint256[],uint256[],string)": "infinite",
                "setTrustedAddress(address)": "infinite",
                "setURI(string)": "infinite",
                "supportsInterface(bytes4)": "500",
                "symbol()": "infinite",
                "transferFrom(address,address,uint256)": "infinite",
                "uri(uint256)": "infinite",
                "useCard(uint256[])": "infinite",
                "useCast()": "2396",
                "useCastProportion()": "2396"
            },
            "internal": {
                "getRandomCardEntrys(uint256[] memory)": "infinite"
            }
        },
        "methodIdentifiers": {
            "CreateCardByOwner(uint256[],uint256[],uint256,uint256,string)": "c365e336",
            "_entrys(uint256)": "7408a222",
            "_entrysLength()": "1597a43d",
            "allBalance(address)": "a1813fac",
            "allTokenIds()": "e7619fad",
            "balanceOf(address)": "70a08231",
            "balanceOf(address,uint256)": "00fdd58e",
            "balanceOfBatch(address[],uint256[])": "4e1273f4",
            "buyCardPack()": "79ef1b38",
            "buyCardPackCast()": "afa16385",
            "cardPackBuyerNum()": "0036f0ad",
            "createCard(uint256,uint256[],string)": "36eb146c",
            "createCardCast()": "303b1195",
            "decimals()": "313ce567",
            "getMiracleDustTokenAddress()": "76263c8c",
            "getToken(uint256)": "e4b50cb8",
            "isApprovedForAll(address,address)": "e985e9c5",
            "isTrustedAddress(address)": "0848a136",
            "lockCardDust(uint256[],uint256[],address)": "8aebc916",
            "maxBuyCardStar()": "beba6432",
            "maxCardCreateStar()": "770bdff8",
            "name()": "06fdde03",
            "ownerOf(uint256)": "6352211e",
            "randomPackUris(uint256)": "0e53310a",
            "rechargeCardUseDust(uint256,uint256)": "29adb287",
            "rechargeCards(uint256[],uint256[])": "f9893b8e",
            "removeTrustedAddress(address)": "f9f494ed",
            "safeBatchTransferFrom(address,address,uint256[],uint256[],bytes)": "2eb2c2d6",
            "safeTransferFrom(address,address,uint256,uint256,bytes)": "f242432a",
            "setApprovalForAll(address,bool)": "a22cb465",
            "setBuyCardPackCast(uint256)": "986192cf",
            "setCardPackBuyerNum(uint256)": "2fa5fe38",
            "setCreateCardCast(uint256)": "ca11e7f0",
            "setDefaultDust(uint256)": "aa7ac1a3",
            "setEntrys(uint256[])": "6f03894f",
            "setEntrysLength(uint256)": "97388126",
            "setMDT(address)": "3130eb5e",
            "setMaxBuyCardStar(uint256)": "ed2ee69d",
            "setMaxCardCreateStar(uint256)": "a5ea0fec",
            "setRandomPackUris(bytes32[])": "2b1618e0",
            "setTokenValue(uint256,uint256,uint256,uint256[],uint256[],string)": "f220e4ff",
            "setTrustedAddress(address)": "8cbfc305",
            "setURI(string)": "02fe5305",
            "supportsInterface(bytes4)": "01ffc9a7",
            "symbol()": "95d89b41",
            "transferFrom(address,address,uint256)": "23b872dd",
            "uri(uint256)": "0e89341c",
            "useCard(uint256[])": "38cb8d20",
            "useCast()": "925057fa",
            "useCastProportion()": "6121b0b3"
        }
    },
    "abi": [
        {
            "inputs": [
                {
                    "internalType": "address payable",
                    "name": "payTo",
                    "type": "address"
                },
                {
                    "internalType": "uint256",
                    "name": "initDustNum",
                    "type": "uint256"
                }
            ],
            "stateMutability": "nonpayable",
            "type": "constructor"
        },
        {
            "anonymous": false,
            "inputs": [
                {
                    "indexed": true,
                    "internalType": "address",
                    "name": "account",
                    "type": "address"
                },
                {
                    "indexed": true,
                    "internalType": "address",
                    "name": "operator",
                    "type": "address"
                },
                {
                    "indexed": false,
                    "internalType": "bool",
                    "name": "approved",
                    "type": "bool"
                }
            ],
            "name": "ApprovalForAll",
            "type": "event"
        },
        {
            "anonymous": false,
            "inputs": [
                {
                    "indexed": true,
                    "internalType": "address",
                    "name": "toAddress",
                    "type": "address"
                },
                {
                    "indexed": false,
                    "internalType": "uint256",
                    "name": "tokenId",
                    "type": "uint256"
                }
            ],
            "name": "CardCreated",
            "type": "event"
        },
        {
            "anonymous": false,
            "inputs": [
                {
                    "indexed": true,
                    "internalType": "address",
                    "name": "operator",
                    "type": "address"
                },
                {
                    "indexed": true,
                    "internalType": "address",
                    "name": "from",
                    "type": "address"
                },
                {
                    "indexed": true,
                    "internalType": "address",
                    "name": "to",
                    "type": "address"
                },
                {
                    "indexed": false,
                    "internalType": "uint256[]",
                    "name": "ids",
                    "type": "uint256[]"
                },
                {
                    "indexed": false,
                    "internalType": "uint256[]",
                    "name": "values",
                    "type": "uint256[]"
                }
            ],
            "name": "TransferBatch",
            "type": "event"
        },
        {
            "anonymous": false,
            "inputs": [
                {
                    "indexed": true,
                    "internalType": "address",
                    "name": "operator",
                    "type": "address"
                },
                {
                    "indexed": true,
                    "internalType": "address",
                    "name": "from",
                    "type": "address"
                },
                {
                    "indexed": true,
                    "internalType": "address",
                    "name": "to",
                    "type": "address"
                },
                {
                    "indexed": false,
                    "internalType": "uint256",
                    "name": "id",
                    "type": "uint256"
                },
                {
                    "indexed": false,
                    "internalType": "uint256",
                    "name": "value",
                    "type": "uint256"
                }
            ],
            "name": "TransferSingle",
            "type": "event"
        },
        {
            "anonymous": false,
            "inputs": [
                {
                    "indexed": false,
                    "internalType": "string",
                    "name": "value",
                    "type": "string"
                },
                {
                    "indexed": true,
                    "internalType": "uint256",
                    "name": "id",
                    "type": "uint256"
                }
            ],
            "name": "URI",
            "type": "event"
        },
        {
            "inputs": [
                {
                    "internalType": "uint256[]",
                    "name": "cardTypes",
                    "type": "uint256[]"
                },
                {
                    "internalType": "uint256[]",
                    "name": "cardEntrys",
                    "type": "uint256[]"
                },
                {
                    "internalType": "uint256",
                    "name": "star",
                    "type": "uint256"
                },
                {
                    "internalType": "uint256",
                    "name": "dust",
                    "type": "uint256"
                },
                {
                    "internalType": "string",
                    "name": "cardUri",
                    "type": "string"
                }
            ],
            "name": "CreateCardByOwner",
            "outputs": [],
            "stateMutability": "nonpayable",
            "type": "function"
        },
        {
            "inputs": [
                {
                    "internalType": "uint256",
                    "name": "",
                    "type": "uint256"
                }
            ],
            "name": "_entrys",
            "outputs": [
                {
                    "internalType": "uint256",
                    "name": "",
                    "type": "uint256"
                }
            ],
            "stateMutability": "view",
            "type": "function"
        },
        {
            "inputs": [],
            "name": "_entrysLength",
            "outputs": [
                {
                    "internalType": "uint256",
                    "name": "",
                    "type": "uint256"
                }
            ],
            "stateMutability": "view",
            "type": "function"
        },
        {
            "inputs": [
                {
                    "internalType": "address",
                    "name": "account",
                    "type": "address"
                }
            ],
            "name": "allBalance",
            "outputs": [
                {
                    "internalType": "bytes32[]",
                    "name": "",
                    "type": "bytes32[]"
                }
            ],
            "stateMutability": "view",
            "type": "function"
        },
        {
            "inputs": [],
            "name": "allTokenIds",
            "outputs": [
                {
                    "internalType": "uint256[]",
                    "name": "",
                    "type": "uint256[]"
                }
            ],
            "stateMutability": "view",
            "type": "function"
        },
        {
            "inputs": [
                {
                    "internalType": "address",
                    "name": "account",
                    "type": "address"
                },
                {
                    "internalType": "uint256",
                    "name": "id",
                    "type": "uint256"
                }
            ],
            "name": "balanceOf",
            "outputs": [
                {
                    "internalType": "uint256",
                    "name": "",
                    "type": "uint256"
                }
            ],
            "stateMutability": "view",
            "type": "function"
        },
        {
            "inputs": [
                {
                    "internalType": "address",
                    "name": "owner",
                    "type": "address"
                }
            ],
            "name": "balanceOf",
            "outputs": [
                {
                    "internalType": "uint256",
                    "name": "",
                    "type": "uint256"
                }
            ],
            "stateMutability": "view",
            "type": "function"
        },
        {
            "inputs": [
                {
                    "internalType": "address[]",
                    "name": "accounts",
                    "type": "address[]"
                },
                {
                    "internalType": "uint256[]",
                    "name": "ids",
                    "type": "uint256[]"
                }
            ],
            "name": "balanceOfBatch",
            "outputs": [
                {
                    "internalType": "uint256[]",
                    "name": "",
                    "type": "uint256[]"
                }
            ],
            "stateMutability": "view",
            "type": "function"
        },
        {
            "inputs": [],
            "name": "buyCardPack",
            "outputs": [],
            "stateMutability": "payable",
            "type": "function"
        },
        {
            "inputs": [],
            "name": "buyCardPackCast",
            "outputs": [
                {
                    "internalType": "uint256",
                    "name": "",
                    "type": "uint256"
                }
            ],
            "stateMutability": "view",
            "type": "function"
        },
        {
            "inputs": [],
            "name": "cardPackBuyerNum",
            "outputs": [
                {
                    "internalType": "uint256",
                    "name": "",
                    "type": "uint256"
                }
            ],
            "stateMutability": "view",
            "type": "function"
        },
        {
            "inputs": [
                {
                    "internalType": "uint256",
                    "name": "cardType",
                    "type": "uint256"
                },
                {
                    "internalType": "uint256[]",
                    "name": "cardEntrys",
                    "type": "uint256[]"
                },
                {
                    "internalType": "string",
                    "name": "tokenUri",
                    "type": "string"
                }
            ],
            "name": "createCard",
            "outputs": [],
            "stateMutability": "payable",
            "type": "function"
        },
        {
            "inputs": [],
            "name": "createCardCast",
            "outputs": [
                {
                    "internalType": "uint256",
                    "name": "",
                    "type": "uint256"
                }
            ],
            "stateMutability": "view",
            "type": "function"
        },
        {
            "inputs": [],
            "name": "decimals",
            "outputs": [
                {
                    "internalType": "uint8",
                    "name": "",
                    "type": "uint8"
                }
            ],
            "stateMutability": "view",
            "type": "function"
        },
        {
            "inputs": [],
            "name": "getMiracleDustTokenAddress",
            "outputs": [
                {
                    "internalType": "address",
                    "name": "",
                    "type": "address"
                }
            ],
            "stateMutability": "view",
            "type": "function"
        },
        {
            "inputs": [
                {
                    "internalType": "uint256",
                    "name": "tokenId",
                    "type": "uint256"
                }
            ],
            "name": "getToken",
            "outputs": [
                {
                    "internalType": "uint256",
                    "name": "id",
                    "type": "uint256"
                },
                {
                    "internalType": "uint256",
                    "name": "star",
                    "type": "uint256"
                },
                {
                    "internalType": "uint256",
                    "name": "tokenVal",
                    "type": "uint256"
                },
                {
                    "internalType": "uint256[]",
                    "name": "cardType",
                    "type": "uint256[]"
                },
                {
                    "internalType": "uint256[]",
                    "name": "cardEntrys",
                    "type": "uint256[]"
                },
                {
                    "internalType": "string",
                    "name": "tokenUri",
                    "type": "string"
                },
                {
                    "internalType": "address",
                    "name": "ownerAddress",
                    "type": "address"
                }
            ],
            "stateMutability": "view",
            "type": "function"
        },
        {
            "inputs": [
                {
                    "internalType": "address",
                    "name": "account",
                    "type": "address"
                },
                {
                    "internalType": "address",
                    "name": "operator",
                    "type": "address"
                }
            ],
            "name": "isApprovedForAll",
            "outputs": [
                {
                    "internalType": "bool",
                    "name": "",
                    "type": "bool"
                }
            ],
            "stateMutability": "view",
            "type": "function"
        },
        {
            "inputs": [
                {
                    "internalType": "address",
                    "name": "_address",
                    "type": "address"
                }
            ],
            "name": "isTrustedAddress",
            "outputs": [
                {
                    "internalType": "bool",
                    "name": "",
                    "type": "bool"
                }
            ],
            "stateMutability": "view",
            "type": "function"
        },
        {
            "inputs": [
                {
                    "internalType": "uint256[]",
                    "name": "useCards",
                    "type": "uint256[]"
                },
                {
                    "internalType": "uint256[]",
                    "name": "lockVal",
                    "type": "uint256[]"
                },
                {
                    "internalType": "address",
                    "name": "lockTo",
                    "type": "address"
                }
            ],
            "name": "lockCardDust",
            "outputs": [],
            "stateMutability": "nonpayable",
            "type": "function"
        },
        {
            "inputs": [],
            "name": "maxBuyCardStar",
            "outputs": [
                {
                    "internalType": "uint256",
                    "name": "",
                    "type": "uint256"
                }
            ],
            "stateMutability": "view",
            "type": "function"
        },
        {
            "inputs": [],
            "name": "maxCardCreateStar",
            "outputs": [
                {
                    "internalType": "uint256",
                    "name": "",
                    "type": "uint256"
                }
            ],
            "stateMutability": "view",
            "type": "function"
        },
        {
            "inputs": [],
            "name": "name",
            "outputs": [
                {
                    "internalType": "string",
                    "name": "",
                    "type": "string"
                }
            ],
            "stateMutability": "view",
            "type": "function"
        },
        {
            "inputs": [
                {
                    "internalType": "uint256",
                    "name": "tokenId",
                    "type": "uint256"
                }
            ],
            "name": "ownerOf",
            "outputs": [
                {
                    "internalType": "address",
                    "name": "",
                    "type": "address"
                }
            ],
            "stateMutability": "view",
            "type": "function"
        },
        {
            "inputs": [
                {
                    "internalType": "uint256",
                    "name": "",
                    "type": "uint256"
                }
            ],
            "name": "randomPackUris",
            "outputs": [
                {
                    "internalType": "bytes32",
                    "name": "",
                    "type": "bytes32"
                }
            ],
            "stateMutability": "view",
            "type": "function"
        },
        {
            "inputs": [
                {
                    "internalType": "uint256",
                    "name": "tokenId",
                    "type": "uint256"
                },
                {
                    "internalType": "uint256",
                    "name": "num",
                    "type": "uint256"
                }
            ],
            "name": "rechargeCardUseDust",
            "outputs": [],
            "stateMutability": "nonpayable",
            "type": "function"
        },
        {
            "inputs": [
                {
                    "internalType": "uint256[]",
                    "name": "cards",
                    "type": "uint256[]"
                },
                {
                    "internalType": "uint256[]",
                    "name": "rechargeNums",
                    "type": "uint256[]"
                }
            ],
            "name": "rechargeCards",
            "outputs": [],
            "stateMutability": "nonpayable",
            "type": "function"
        },
        {
            "inputs": [
                {
                    "internalType": "address",
                    "name": "_address",
                    "type": "address"
                }
            ],
            "name": "removeTrustedAddress",
            "outputs": [],
            "stateMutability": "nonpayable",
            "type": "function"
        },
        {
            "inputs": [
                {
                    "internalType": "address",
                    "name": "from",
                    "type": "address"
                },
                {
                    "internalType": "address",
                    "name": "to",
                    "type": "address"
                },
                {
                    "internalType": "uint256[]",
                    "name": "ids",
                    "type": "uint256[]"
                },
                {
                    "internalType": "uint256[]",
                    "name": "amounts",
                    "type": "uint256[]"
                },
                {
                    "internalType": "bytes",
                    "name": "data",
                    "type": "bytes"
                }
            ],
            "name": "safeBatchTransferFrom",
            "outputs": [],
            "stateMutability": "nonpayable",
            "type": "function"
        },
        {
            "inputs": [
                {
                    "internalType": "address",
                    "name": "from",
                    "type": "address"
                },
                {
                    "internalType": "address",
                    "name": "to",
                    "type": "address"
                },
                {
                    "internalType": "uint256",
                    "name": "id",
                    "type": "uint256"
                },
                {
                    "internalType": "uint256",
                    "name": "amount",
                    "type": "uint256"
                },
                {
                    "internalType": "bytes",
                    "name": "data",
                    "type": "bytes"
                }
            ],
            "name": "safeTransferFrom",
            "outputs": [],
            "stateMutability": "nonpayable",
            "type": "function"
        },
        {
            "inputs": [
                {
                    "internalType": "address",
                    "name": "operator",
                    "type": "address"
                },
                {
                    "internalType": "bool",
                    "name": "approved",
                    "type": "bool"
                }
            ],
            "name": "setApprovalForAll",
            "outputs": [],
            "stateMutability": "nonpayable",
            "type": "function"
        },
        {
            "inputs": [
                {
                    "internalType": "uint256",
                    "name": "_cast",
                    "type": "uint256"
                }
            ],
            "name": "setBuyCardPackCast",
            "outputs": [],
            "stateMutability": "nonpayable",
            "type": "function"
        },
        {
            "inputs": [
                {
                    "internalType": "uint256",
                    "name": "_num",
                    "type": "uint256"
                }
            ],
            "name": "setCardPackBuyerNum",
            "outputs": [],
            "stateMutability": "nonpayable",
            "type": "function"
        },
        {
            "inputs": [
                {
                    "internalType": "uint256",
                    "name": "_cast",
                    "type": "uint256"
                }
            ],
            "name": "setCreateCardCast",
            "outputs": [],
            "stateMutability": "nonpayable",
            "type": "function"
        },
        {
            "inputs": [
                {
                    "internalType": "uint256",
                    "name": "_dust",
                    "type": "uint256"
                }
            ],
            "name": "setDefaultDust",
            "outputs": [],
            "stateMutability": "nonpayable",
            "type": "function"
        },
        {
            "inputs": [
                {
                    "internalType": "uint256[]",
                    "name": "entrys",
                    "type": "uint256[]"
                }
            ],
            "name": "setEntrys",
            "outputs": [],
            "stateMutability": "nonpayable",
            "type": "function"
        },
        {
            "inputs": [
                {
                    "internalType": "uint256",
                    "name": "newEntrysLength",
                    "type": "uint256"
                }
            ],
            "name": "setEntrysLength",
            "outputs": [],
            "stateMutability": "nonpayable",
            "type": "function"
        },
        {
            "inputs": [
                {
                    "internalType": "address",
                    "name": "mdtAddress",
                    "type": "address"
                }
            ],
            "name": "setMDT",
            "outputs": [],
            "stateMutability": "nonpayable",
            "type": "function"
        },
        {
            "inputs": [
                {
                    "internalType": "uint256",
                    "name": "_max",
                    "type": "uint256"
                }
            ],
            "name": "setMaxBuyCardStar",
            "outputs": [],
            "stateMutability": "nonpayable",
            "type": "function"
        },
        {
            "inputs": [
                {
                    "internalType": "uint256",
                    "name": "_max",
                    "type": "uint256"
                }
            ],
            "name": "setMaxCardCreateStar",
            "outputs": [],
            "stateMutability": "nonpayable",
            "type": "function"
        },
        {
            "inputs": [
                {
                    "internalType": "bytes32[]",
                    "name": "randomUris",
                    "type": "bytes32[]"
                }
            ],
            "name": "setRandomPackUris",
            "outputs": [],
            "stateMutability": "nonpayable",
            "type": "function"
        },
        {
            "inputs": [
                {
                    "internalType": "uint256",
                    "name": "tokenId",
                    "type": "uint256"
                },
                {
                    "internalType": "uint256",
                    "name": "star",
                    "type": "uint256"
                },
                {
                    "internalType": "uint256",
                    "name": "tokenValue",
                    "type": "uint256"
                },
                {
                    "internalType": "uint256[]",
                    "name": "cardType",
                    "type": "uint256[]"
                },
                {
                    "internalType": "uint256[]",
                    "name": "cardEntrys",
                    "type": "uint256[]"
                },
                {
                    "internalType": "string",
                    "name": "tokenUri",
                    "type": "string"
                }
            ],
            "name": "setTokenValue",
            "outputs": [],
            "stateMutability": "nonpayable",
            "type": "function"
        },
        {
            "inputs": [
                {
                    "internalType": "address",
                    "name": "_address",
                    "type": "address"
                }
            ],
            "name": "setTrustedAddress",
            "outputs": [],
            "stateMutability": "nonpayable",
            "type": "function"
        },
        {
            "inputs": [
                {
                    "internalType": "string",
                    "name": "newuri",
                    "type": "string"
                }
            ],
            "name": "setURI",
            "outputs": [],
            "stateMutability": "nonpayable",
            "type": "function"
        },
        {
            "inputs": [
                {
                    "internalType": "bytes4",
                    "name": "interfaceId",
                    "type": "bytes4"
                }
            ],
            "name": "supportsInterface",
            "outputs": [
                {
                    "internalType": "bool",
                    "name": "",
                    "type": "bool"
                }
            ],
            "stateMutability": "view",
            "type": "function"
        },
        {
            "inputs": [],
            "name": "symbol",
            "outputs": [
                {
                    "internalType": "string",
                    "name": "",
                    "type": "string"
                }
            ],
            "stateMutability": "view",
            "type": "function"
        },
        {
            "inputs": [
                {
                    "internalType": "address",
                    "name": "from",
                    "type": "address"
                },
                {
                    "internalType": "address",
                    "name": "to",
                    "type": "address"
                },
                {
                    "internalType": "uint256",
                    "name": "tokenId",
                    "type": "uint256"
                }
            ],
            "name": "transferFrom",
            "outputs": [],
            "stateMutability": "nonpayable",
            "type": "function"
        },
        {
            "inputs": [
                {
                    "internalType": "uint256",
                    "name": "",
                    "type": "uint256"
                }
            ],
            "name": "uri",
            "outputs": [
                {
                    "internalType": "string",
                    "name": "",
                    "type": "string"
                }
            ],
            "stateMutability": "view",
            "type": "function"
        },
        {
            "inputs": [
                {
                    "internalType": "uint256[]",
                    "name": "useCardPip",
                    "type": "uint256[]"
                }
            ],
            "name": "useCard",
            "outputs": [],
            "stateMutability": "nonpayable",
            "type": "function"
        },
        {
            "inputs": [],
            "name": "useCast",
            "outputs": [
                {
                    "internalType": "uint256",
                    "name": "",
                    "type": "uint256"
                }
            ],
            "stateMutability": "view",
            "type": "function"
        },
        {
            "inputs": [],
            "name": "useCastProportion",
            "outputs": [
                {
                    "internalType": "uint256",
                    "name": "",
                    "type": "uint256"
                }
            ],
            "stateMutability": "view",
            "type": "function"
        }
    ]
}